{
	"data": {
		"bytecode": {
			"linkReferences": {},
			"object": "60806040526002805473bb4cdb9cbd36b01bd1cbaebf2de08d9173bc095c6001600160a01b0319918216179091556003805461dead90831617905560048054909116905560098054601260ff1991821617909155600a54600b819055600c819055606460218190556102e160225560146025556026556028805460ff60a01b191690556207a120602a55602b80548316600190811761ff001916610a0017909155602d80549093161790915561271090601e0204602e55348015620000c357600080fd5b5060405162004d2e38038062004d2e833981016040819052620000e691620006f9565b600080546001600160a01b0319163390811782558152600160208181526040909220805460ff1916909117905587516200012791600791908a019062000575565b5085516200013d90600890602089019062000575565b50600a85905583516016819055602080860151601781905560408088015160188190556060890151601981905560808a0151601a81905560a08b0151601b81905560c08c0151601c81905560e08d0151601d81905594909801909101909601601e8190559301909401909301601f819055018155600580546001600160a01b038087166001600160a01b0319928316179092556006805486841690831617905560278054909116739ac64cc6e4415144c455bd8e4837fea55603e5c31790819055835163c45a015560e01b8152935191169263c45a0155926004828101939192829003018186803b1580156200023257600080fd5b505afa15801562000247573d6000803e3d6000fd5b505050506040513d601f19601f820116820180604052508101906200026d9190620006d5565b6002546040516364e329cb60e11b81526001600160a01b039283169263c9c6539692620002a29291169030906004016200082d565b602060405180830381600087803b158015620002bd57600080fd5b505af1158015620002d2573d6000803e3d6000fd5b505050506040513d601f19601f82011682018060405250810190620002f89190620006d5565b602880546001600160a01b0319166001600160a01b03928316179055306000818152600e6020908152604080832060275490951683529390528290206000199055905184919062000349906200060a565b620003569291906200082d565b604051809103906000f08015801562000373573d6000803e3d6000fd5b50602980546001600160a01b039283166001600160a01b031991821617909155336000818152600f60209081526040808320805460ff19908116600190811790925560058054891686528386208054831684179055868652601485528386208054831684179055805489168652838620805483168417905586865260158552838620805483168417905580548916865283862080548316841790558686526012855283862080548316841790558054891686528386208054831684179055600380548a1687528487208054841685179055308088528588208054851686179055602880548c168952601188528689208054861687179055602780548d168a52878a208054871688179055828a52878a20805487168817905584548d168a52878a2080548716905583548d168a52878a20805487168817905590548c168952601388528689208054861687179055548b16885285882080548516861790558752848720805484168517905581548a168752848720805484169055548916865283862080549092169092179055546023805487169190971690811790965560248054909516909517909355600a54828252600d90935283812083905592519092917fddf252ad1be2c89b69c2b068fc378daa952ba7f163c4a11628f55a4df523b3ef9162000560919062000847565b60405180910390a35050505050505062000874565b828054600181600116156101000203166002900490600052602060002090601f016020900481019282620005ad5760008555620005f8565b82601f10620005c857805160ff1916838001178555620005f8565b82800160010185558215620005f8579182015b82811115620005f8578251825591602001919060010190620005db565b506200060692915062000618565b5090565b6111198062003c1583390190565b5b8082111562000606576000815560010162000619565b80516001600160a01b03811681146200064757600080fd5b919050565b600082601f8301126200065d578081fd5b81516001600160401b038111156200067157fe5b602062000687601f8301601f1916820162000850565b82815285828487010111156200069b578384fd5b835b83811015620006ba5785810183015182820184015282016200069d565b83811115620006cb57848385840101525b5095945050505050565b600060208284031215620006e7578081fd5b620006f2826200062f565b9392505050565b60008060008060008060008789036101c081121562000716578384fd5b88516001600160401b03808211156200072d578586fd5b6200073b8c838d016200064c565b995060208b015191508082111562000751578586fd5b6200075f8c838d016200064c565b985060408b01519750610100915081605f19840112156200077e578586fd5b604051925081830183811082821117156200079557fe5b80604052505060608a0151825260808a0151602083015260a08a0151604083015260c08a0151606083015260e08a01516080830152808a015160a08301525061012089015160c082015261014089015160e082015280945050620007fd61016089016200062f565b92506200080e61018089016200062f565b91506200081f6101a089016200062f565b905092959891949750929550565b6001600160a01b0392831681529116602082015260400190565b90815260200190565b6040518181016001600160401b03811182821017156200086c57fe5b604052919050565b61339180620008846000396000f3fe6080604052600436106102f75760003560e01c8062851fb3146103035780630445b6671461032e57806306fdde031461035057806309302dc614610372578063095ea7b3146103945780630d295980146103c15780631161ae39146103e1578063180b0d7e1461040157806318160ddd146104165780631bff78981461042b5780631ca0a28d146104405780631da1db5e14610460578063201e79911461048057806323b872dd146104a057806324f8d179146104c05780632b112e49146104e05780632d48e896146104f55780632d594567146105155780632f54bf6e14610535578063313ce567146105555780633301241114610577578063335f6a431461058c57806333f2a6e9146105ac578063363f1e92146105cc57806344a33fd2146105ec57806346469afb1461060c5780635252a22814610621578063571ac8b0146106365780635a686d54146106565780636053b8811461066b578063617fe0ed146106805780636ab91206146106955780636ddd1713146106aa57806370a08231146106bf578063722b62ad146106df57806378109e54146106f45780637d1db4a514610709578063875385f31461071e578063893d20e81461073e57806395d89b41146107535780639d1944f514610768578063a2cbba2814610788578063a4b45c001461079d578063a8aa1b31146107bd578063a9059cbb146107d2578063aaa867a0146107f2578063adf1869314610812578063b6a5d7de14610832578063bc33718214610852578063bd9ab53714610872578063bfe1092814610892578063c6dae9a1146108a7578063ca33e64c146108c7578063d2138a6d146108dc578063d51ed1c8146108fc578063dd62ed3e1461091c578063df20fd491461093c578063e1662ed31461095c578063e96db1ef14610971578063ec72d65f14610986578063f0b37c04146109a6578063f2fde38b146109c6578063f887ea40146109e6578063fe85b42b146109fb578063fe9fbb8014610a10578063fed0d2a114610a30578063ffb54a9914610a45576102fe565b366102fe57005b600080fd5b34801561030f57600080fd5b50610318610a5a565b6040516103259190612ec8565b60405180910390f35b34801561033a57600080fd5b50610343610a69565b60405161032591906132a2565b34801561035c57600080fd5b50610365610a6f565b6040516103259190612f70565b34801561037e57600080fd5b5061039261038d366004612e1f565b610b05565b005b3480156103a057600080fd5b506103b46103af366004612cf7565b610b49565b6040516103259190612f30565b3480156103cd57600080fd5b506103926103dc366004612d22565b610bb4565b3480156103ed57600080fd5b506103b46103fc366004612e37565b610bf7565b34801561040d57600080fd5b50610343610c0b565b34801561042257600080fd5b50610343610c11565b34801561043757600080fd5b50610343610c17565b34801561044c57600080fd5b5061039261045b366004612beb565b610c1d565b34801561046c57600080fd5b5061039261047b366004612e1f565b610f3e565b34801561048c57600080fd5b5061039261049b366004612e37565b611058565b3480156104ac57600080fd5b506103b46104bb366004612bab565b611088565b3480156104cc57600080fd5b506103926104db366004612cc3565b611147565b3480156104ec57600080fd5b50610343611197565b34801561050157600080fd5b50610392610510366004612e37565b6111e0565b34801561052157600080fd5b50610392610530366004612d57565b611265565b34801561054157600080fd5b506103b4610550366004612b57565b6112b0565b34801561056157600080fd5b5061056a6112c7565b60405161032591906132f5565b34801561058357600080fd5b506103436112d0565b34801561059857600080fd5b506103926105a7366004612c6a565b6112d6565b3480156105b857600080fd5b506103926105c7366004612cc3565b611595565b3480156105d857600080fd5b506103926105e7366004612cc3565b6115e5565b3480156105f857600080fd5b50610392610607366004612e1f565b611719565b34801561061857600080fd5b50610343611776565b34801561062d57600080fd5b5061034361177c565b34801561064257600080fd5b506103b4610651366004612b57565b611782565b34801561066257600080fd5b50610343611790565b34801561067757600080fd5b50610343611796565b34801561068c57600080fd5b506103b461179c565b3480156106a157600080fd5b506103436117a5565b3480156106b657600080fd5b506103b46117ab565b3480156106cb57600080fd5b506103436106da366004612b57565b6117b4565b3480156106eb57600080fd5b5061056a6117cf565b34801561070057600080fd5b506103436117dd565b34801561071557600080fd5b506103436117e3565b34801561072a57600080fd5b50610392610739366004612cc3565b6117e9565b34801561074a57600080fd5b50610318611839565b34801561075f57600080fd5b50610365611848565b34801561077457600080fd5b50610392610783366004612e1f565b6118a9565b34801561079457600080fd5b506103436118e2565b3480156107a957600080fd5b506103926107b8366004612b73565b6118e8565b3480156107c957600080fd5b5061031861193b565b3480156107de57600080fd5b506103b46107ed366004612cf7565b61194a565b3480156107fe57600080fd5b5061039261080d366004612cc3565b611957565b34801561081e57600080fd5b5061039261082d366004612cc3565b6119a7565b34801561083e57600080fd5b5061039261084d366004612b57565b6119f7565b34801561085e57600080fd5b5061039261086d366004612e1f565b611a43565b34801561087e57600080fd5b5061039261088d366004612e1f565b611a6d565b34801561089e57600080fd5b50610318611aa8565b3480156108b357600080fd5b506103926108c2366004612d87565b611ab7565b3480156108d357600080fd5b50610318611b74565b3480156108e857600080fd5b506103926108f7366004612cc3565b611b83565b34801561090857600080fd5b50610343610917366004612e1f565b611bd3565b34801561092857600080fd5b50610343610937366004612b73565b611c13565b34801561094857600080fd5b50610392610957366004612d3c565b611c3e565b34801561096857600080fd5b50610343611c7a565b34801561097d57600080fd5b50610343611c80565b34801561099257600080fd5b506103926109a1366004612e1f565b611c86565b3480156109b257600080fd5b506103926109c1366004612b57565b611cb0565b3480156109d257600080fd5b506103926109e1366004612b57565b611cf6565b3480156109f257600080fd5b50610318611d8b565b348015610a0757600080fd5b50610343611d9a565b348015610a1c57600080fd5b506103b4610a2b366004612b57565b611da0565b348015610a3c57600080fd5b50610343611dbe565b348015610a5157600080fd5b506103b4611dc4565b6024546001600160a01b031681565b602e5481565b60078054604080516020601f6002600019610100600188161502019095169490940493840181900481028201810190925282815260609390929091830182828015610afb5780601f10610ad057610100808354040283529160200191610afb565b820191906000526020600020905b815481529060010190602001808311610ade57829003601f168201915b5050505050905090565b610b0e336112b0565b610b335760405162461bcd60e51b8152600401610b2a906131ec565b60405180910390fd5b6103e881600a540281610b4257fe5b04600c5550565b336000818152600e602090815260408083206001600160a01b038716808552925280832085905551919290917f8c5be1e5ebec7d5bd14f71427d1e84f3dd0314c0f7b2291e5b200ac8c7c3b92590610ba29086906132a2565b60405180910390a35060015b92915050565b610bbd336112b0565b610bd95760405162461bcd60e51b8152600401610b2a906131ec565b60288054911515600160a01b0260ff60a01b19909216919091179055565b600082610c0383611bd3565b119392505050565b60215481565b600a5490565b601f5481565b610c26336112b0565b610c425760405162461bcd60e51b8152600401610b2a906131ec565b6101f58310610c635760405162461bcd60e51b8152600401610b2a906131b1565b828114610c825760405162461bcd60e51b8152600401610b2a90612fc3565b6000805b84811015610cb057838382818110610c9a57fe5b6020029190910135929092019150600101610c86565b5080610cbb876117b4565b1015610cd95760405162461bcd60e51b8152600401610b2a906130b0565b60005b84811015610e7e57610d2187878784818110610cf457fe5b9050602002016020810190610d099190612b57565b868685818110610d1557fe5b90506020020135611dd4565b5060116000878784818110610d3257fe5b9050602002016020810190610d479190612b57565b6001600160a01b0316815260208101919091526040016000205460ff161580610daf575060136000878784818110610d7b57fe5b9050602002016020810190610d909190612b57565b6001600160a01b0316815260208101919091526040016000205460ff16155b15610e76576029546001600160a01b03166314b6ca96878784818110610dd157fe5b9050602002016020810190610de69190612b57565b600d60008a8a87818110610df657fe5b9050602002016020810190610e0b9190612b57565b6001600160a01b03166001600160a01b03168152602001908152602001600020546040518363ffffffff1660e01b8152600401610e49929190612f17565b600060405180830381600087803b158015610e6357600080fd5b505af1925050508015610e74575060015b505b600101610cdc565b506001600160a01b03861660009081526011602052604090205460ff161580610ec057506001600160a01b03861660009081526013602052604090205460ff16155b15610f36576029546001600160a01b038781166000908152600d602052604090819020549051630a5b654b60e11b815291909216916314b6ca9691610f09918a91600401612f17565b600060405180830381600087803b158015610f2357600080fd5b505af1925050508015610f34575060015b505b505050505050565b610f4733611da0565b610f635760405162461bcd60e51b8152600401610b2a90613242565b6040805160028082526060820183524792606485850204926000929091602083019080368337505060025482519293506001600160a01b031691839150600090610fa957fe5b6001600160a01b039283166020918202929092010152600654825191169082906001908110610fd457fe5b6001600160a01b03928316602091820292909201015260275460245460405163b6f9de9560e01b81529183169263b6f9de95928692611020926000928892909116904290600401612f3b565b6000604051808303818588803b15801561103957600080fd5b505af115801561104d573d6000803e3d6000fd5b505050505050505050565b61106133611da0565b61107d5760405162461bcd60e51b8152600401610b2a90613242565b602591909155602655565b6001600160a01b0383166000908152600e6020908152604080832033845290915281205415611132576040805180820182526016815275496e73756666696369656e7420416c6c6f77616e636560501b6020808301919091526001600160a01b0387166000908152600e8252838120338252909152919091205461110d918490611ea6565b6001600160a01b0385166000908152600e602090815260408083203384529091529020555b61113d848484611ed2565b90505b9392505050565b61115033611da0565b61116c5760405162461bcd60e51b8152600401610b2a90613242565b6001600160a01b03919091166000908152601360205260409020805460ff1916911515919091179055565b6004546000906111db906111b3906001600160a01b03166117b4565b6003546111d5906111cc906001600160a01b03166117b4565b600a54906123e6565b906123e6565b905090565b6111e933611da0565b6112055760405162461bcd60e51b8152600401610b2a90613242565b6029546040516316a4744b60e11b81526001600160a01b0390911690632d48e8969061123790859085906004016132e7565b600060405180830381600087803b15801561125157600080fd5b505af1158015610f36573d6000803e3d6000fd5b61126e336112b0565b61128a5760405162461bcd60e51b8152600401610b2a906131ec565b602b805460ff19169215159290921761ff00191661010060ff9290921691909102179055565b6000546001600160a01b038281169116145b919050565b60095460ff1690565b601a5481565b6112df336112b0565b6112fb5760405162461bcd60e51b8152600401610b2a906131ec565b610321821061131c5760405162461bcd60e51b8152600401610b2a90613267565b80820280611329866117b4565b10156113475760405162461bcd60e51b8152600401610b2a906130b0565b60005b838110156114da5761137d8686868481811061136257fe5b90506020020160208101906113779190612b57565b85611dd4565b506011600086868481811061138e57fe5b90506020020160208101906113a39190612b57565b6001600160a01b0316815260208101919091526040016000205460ff16158061140b5750601360008686848181106113d757fe5b90506020020160208101906113ec9190612b57565b6001600160a01b0316815260208101919091526040016000205460ff16155b156114d2576029546001600160a01b03166314b6ca9686868481811061142d57fe5b90506020020160208101906114429190612b57565b600d600089898781811061145257fe5b90506020020160208101906114679190612b57565b6001600160a01b03166001600160a01b03168152602001908152602001600020546040518363ffffffff1660e01b81526004016114a5929190612f17565b600060405180830381600087803b1580156114bf57600080fd5b505af19250505080156114d0575060015b505b60010161134a565b506001600160a01b03851660009081526011602052604090205460ff16158061151c57506001600160a01b03851660009081526013602052604090205460ff16155b1561158e576029546001600160a01b038681166000908152600d602052604090819020549051630a5b654b60e11b815291909216916314b6ca9691611565918991600401612f17565b600060405180830381600087803b15801561157f57600080fd5b505af1925050508015610f3657505b5050505050565b61159e33611da0565b6115ba5760405162461bcd60e51b8152600401610b2a90613242565b6001600160a01b03919091166000908152601260205260409020805460ff1916911515919091179055565b6115ee33611da0565b61160a5760405162461bcd60e51b8152600401610b2a90613242565b6001600160a01b038216301480159061163157506028546001600160a01b03838116911614155b61163a57600080fd5b6001600160a01b0382166000908152601160205260409020805460ff191682158015919091179091556116d157602954604051630a5b654b60e11b81526001600160a01b03909116906314b6ca969061169a908590600090600401612f17565b600060405180830381600087803b1580156116b457600080fd5b505af11580156116c8573d6000803e3d6000fd5b50505050611715565b6029546001600160a01b038381166000908152600d602052604090819020549051630a5b654b60e11b815291909216916314b6ca9691611237918691600401612f17565b5050565b61172233611da0565b61173e5760405162461bcd60e51b8152600401610b2a90613242565b6040514790339060648484020480156108fc02916000818181858888f19350505050158015611771573d6000803e3d6000fd5b505050565b601e5481565b60185481565b6000610bae82600019610b49565b601c5481565b601d5481565b602b5460ff1681565b60175481565b602d5460ff1681565b6001600160a01b03166000908152600d602052604090205490565b602b54610100900460ff1681565b600c5481565b600b5481565b6117f233611da0565b61180e5760405162461bcd60e51b8152600401610b2a90613242565b6001600160a01b03919091166000908152601060205260409020805460ff1916911515919091179055565b6000546001600160a01b031690565b60088054604080516020601f6002600019610100600188161502019095169490940493840181900481028201810190925282815260609390929091830182828015610afb5780601f10610ad057610100808354040283529160200191610afb565b6118b233611da0565b6118ce5760405162461bcd60e51b8152600401610b2a90613242565b620b71b081106118dd57600080fd5b602a55565b60165481565b6118f133611da0565b61190d5760405162461bcd60e51b8152600401610b2a90613242565b602380546001600160a01b039384166001600160a01b03199182161790915560248054929093169116179055565b6028546001600160a01b031681565b6000611140338484611ed2565b61196033611da0565b61197c5760405162461bcd60e51b8152600401610b2a90613242565b6001600160a01b03919091166000908152601560205260409020805460ff1916911515919091179055565b6119b033611da0565b6119cc5760405162461bcd60e51b8152600401610b2a90613242565b6001600160a01b03919091166000908152600f60205260409020805460ff1916911515919091179055565b611a00336112b0565b611a1c5760405162461bcd60e51b8152600401610b2a906131ec565b6001600160a01b03166000908152600160208190526040909120805460ff19169091179055565b611a4c33611da0565b611a685760405162461bcd60e51b8152600401610b2a90613242565b600b55565b611a76336112b0565b611a925760405162461bcd60e51b8152600401610b2a906131ec565b6103e881600a540281611aa157fe5b04600b5550565b6029546001600160a01b031681565b611ac033611da0565b611adc5760405162461bcd60e51b8152600401610b2a90613242565b81516016819055602080840151601781905560408501516018819055606086015160198190556080870151601a81905560a0880151601b81905560c0890151601c81905560e08a0151601d81905594909701909101909501601e8190559201909301909201601f8190559091019055602181905560038104602054106117155760405162461bcd60e51b8152600401610b2a9061320c565b6023546001600160a01b031681565b611b8c33611da0565b611ba85760405162461bcd60e51b8152600401610b2a90613242565b6001600160a01b03919091166000908152601460205260409020805460ff1916911515919091179055565b6000610bae611be0611197565b602854611c0d90611c0690600290611c00906001600160a01b03166117b4565b90612428565b8590612428565b90612462565b6001600160a01b039182166000908152600e6020908152604080832093909416825291909152205490565b611c4733611da0565b611c635760405162461bcd60e51b8152600401610b2a90613242565b602d805460ff191692151592909217909155602e55565b60195481565b601b5481565b611c8f336112b0565b611cab5760405162461bcd60e51b8152600401610b2a906131ec565b602255565b611cb9336112b0565b611cd55760405162461bcd60e51b8152600401610b2a906131ec565b6001600160a01b03166000908152600160205260409020805460ff19169055565b611cff336112b0565b611d1b5760405162461bcd60e51b8152600401610b2a906131ec565b600080546001600160a01b0319166001600160a01b0383169081178255815260016020819052604091829020805460ff19169091179055517f04dba622d284ed0014ee4b9a6a68386be1a4c08a4913ae272de89199cc68616390611d80908390612ec8565b60405180910390a150565b6027546001600160a01b031681565b60205481565b6001600160a01b031660009081526001602052604090205460ff1690565b60225481565b602854600160a01b900460ff1681565b6040805180820182526014815273496e73756666696369656e742042616c616e636560601b6020808301919091526001600160a01b0386166000908152600d90915291822054611e25918490611ea6565b6001600160a01b038086166000908152600d60205260408082209390935590851681522054611e5490836124a1565b6001600160a01b038085166000818152600d6020526040908190209390935591519086169060008051602061333c83398151915290611e949086906132a2565b60405180910390a35060019392505050565b60008184841115611eca5760405162461bcd60e51b8152600401610b2a9190612f70565b505050900390565b602f5460009060ff1615611ef257611eeb848484611dd4565b9050611140565b6001600160a01b03841660009081526001602052604090205460ff16158015611f3457506001600160a01b03831660009081526001602052604090205460ff16155b15611f6257602854600160a01b900460ff16611f625760405162461bcd60e51b8152600401610b2a906130e5565b6001600160a01b03841660009081526001602052604090205460ff16158015611f9457506001600160a01b0383163014155b8015611fae57506003546001600160a01b03848116911614155b8015611fc857506028546001600160a01b03848116911614155b8015611fe257506024546001600160a01b03848116911614155b8015611ffc57506023546001600160a01b03848116911614155b1561203457600061200c846117b4565b9050600c5483820111156120325760405162461bcd60e51b8152600401610b2a90613154565b505b6028546001600160a01b0385811691161480156120535750602b5460ff165b801561207857506001600160a01b03831660009081526012602052604090205460ff16155b156120dd576001600160a01b0383166000908152602c602052604090205442116120b45760405162461bcd60e51b8152600401610b2a9061306b565b602b546001600160a01b0384166000908152602c6020526040902061010090910460ff16420190555b6120e784836124c6565b6120ef61250b565b156120fc576120fc61255a565b6040805180820182526014815273496e73756666696369656e742042616c616e636560601b6020808301919091526001600160a01b0387166000908152600d909152919091205461214e918490611ea6565b6001600160a01b0385166000908152600d6020526040812091909155612173856129fa565b61217d578261219b565b60285461219b90869085906001600160a01b03888116911614612a19565b6001600160a01b0385166000908152600d60205260409020549091506121c190826124a1565b6001600160a01b038086166000908152600d602090815260408083209490945591881681526011909152205460ff16158061221557506001600160a01b03851660009081526013602052604090205460ff16155b1561228b576029546001600160a01b038681166000908152600d602052604090819020549051630a5b654b60e11b815291909216916314b6ca969161225e918991600401612f17565b600060405180830381600087803b15801561227857600080fd5b505af1925050508015612289575060015b505b6001600160a01b03841660009081526011602052604090205460ff1615806122cc57506001600160a01b03841660009081526013602052604090205460ff16155b15612342576029546001600160a01b038581166000908152600d602052604090819020549051630a5b654b60e11b815291909216916314b6ca9691612315918891600401612f17565b600060405180830381600087803b15801561232f57600080fd5b505af1925050508015612340575060015b505b602954602a546040516001624d3b8760e01b031981526001600160a01b039092169163ffb2c47991612376916004016132a2565b600060405180830381600087803b15801561239057600080fd5b505af19250505080156123a1575060015b50836001600160a01b0316856001600160a01b031660008051602061333c833981519152836040516123d391906132a2565b60405180910390a3506001949350505050565b600061114083836040518060400160405280601e81526020017f536166654d6174683a207375627472616374696f6e206f766572666c6f770000815250611ea6565b60008261243757506000610bae565b8282028284828161244457fe5b04146111405760405162461bcd60e51b8152600401610b2a90613113565b600061114083836040518060400160405280601a815260200179536166654d6174683a206469766973696f6e206279207a65726f60301b815250612ac8565b6000828201838110156111405760405162461bcd60e51b8152600401610b2a90613036565b600b54811115806124ef57506001600160a01b03821660009081526014602052604090205460ff165b6117155760405162461bcd60e51b8152600401610b2a9061300b565b6028546000906001600160a01b0316331480159061252c5750602f5460ff16155b801561253a5750602d5460ff165b80156111db575050602e54306000908152600d6020526040902054101590565b602f805460ff1916600117905560255460265460009161257991610bf7565b61258557601754612588565b60005b905060006125ac6002611c0d601f54611c0d86602e5461242890919063ffffffff16565b905060006125c582602e546123e690919063ffffffff16565b604080516002808252606082018352929350600092909160208301908036833701905050905030816000815181106125f957fe5b6001600160a01b03928316602091820292909201015260025482519116908290600190811061262457fe5b6001600160a01b03928316602091820292909201015260275460405163791ac94760e01b81524792919091169063791ac9479061266e9086906000908790309042906004016132ab565b600060405180830381600087803b15801561268857600080fd5b505af115801561269c573d6000803e3d6000fd5b5050505060006126b582476123e690919063ffffffff16565b905060006126d06126c7886002612462565b601f54906123e6565b905060006126e56002611c0d8481878d612428565b9050600061270283611c0d6019548761242890919063ffffffff16565b9050600061271f84611c0d601d548861242890919063ffffffff16565b9050600061273c85611c0d601b548961242890919063ffffffff16565b9050602960009054906101000a90046001600160a01b03166001600160a01b031663de353ecb846040518263ffffffff1660e01b81526004016000604051808303818588803b15801561278e57600080fd5b505af1935050505080156127a0575060015b50602960009054906101000a90046001600160a01b03166001600160a01b031663152111f7836040518263ffffffff1660e01b81526004016000604051808303818588803b1580156127f157600080fd5b505af193505050508015612803575060015b50604080516002808252606082018352600092602083019080368337505060025482519293506001600160a01b03169183915060009061283f57fe5b6001600160a01b03928316602091820292909201015260065482519116908290600190811061286a57fe5b6001600160a01b03928316602091820292909201015260275460245460405163b6f9de9560e01b81529183169263b6f9de959286926128b6926000928892909116904290600401612f3b565b6000604051808303818588803b1580156128cf57600080fd5b505af11580156128e3573d6000803e3d6000fd5b505050505060008b11156129e257602760009054906101000a90046001600160a01b03166001600160a01b031663f305d71986308e600080602360009054906101000a90046001600160a01b0316426040518863ffffffff1660e01b815260040161295396959493929190612edc565b6060604051808303818588803b15801561296c57600080fd5b505af1158015612980573d6000803e3d6000fd5b50505050506040513d601f19601f820116820180604052508101906129a59190612e58565b5050507f424db2872186fa7e7afa7a5e902ed3b49a2ef19c2f5431e672462495dd6b4506858c6040516129d99291906132e7565b60405180910390a15b5050602f805460ff1916905550505050505050505050565b6001600160a01b03166000908152600f602052604090205460ff161590565b60008082612a28576064612a2c565b6022545b90506000612a52602154606402611c0d84611c006020548a61242890919063ffffffff16565b306000908152600d6020526040902054909150612a6f90826124a1565b306000818152600d6020526040908190209290925590516001600160a01b0388169060008051602061333c83398151915290612aac9085906132a2565b60405180910390a3612abe85826123e6565b9695505050505050565b60008183612ae95760405162461bcd60e51b8152600401610b2a9190612f70565b506000838581612af557fe5b0495945050505050565b60008083601f840112612b10578182fd5b5081356001600160401b03811115612b26578182fd5b6020830191508360208083028501011115612b4057600080fd5b9250929050565b803580151581146112c257600080fd5b600060208284031215612b68578081fd5b813561114081613303565b60008060408385031215612b85578081fd5b8235612b9081613303565b91506020830135612ba081613303565b809150509250929050565b600080600060608486031215612bbf578081fd5b8335612bca81613303565b92506020840135612bda81613303565b929592945050506040919091013590565b600080600080600060608688031215612c02578081fd5b8535612c0d81613303565b945060208601356001600160401b0380821115612c28578283fd5b612c3489838a01612aff565b90965094506040880135915080821115612c4c578283fd5b50612c5988828901612aff565b969995985093965092949392505050565b60008060008060608587031215612c7f578384fd5b8435612c8a81613303565b935060208501356001600160401b03811115612ca4578384fd5b612cb087828801612aff565b9598909750949560400135949350505050565b60008060408385031215612cd5578182fd5b8235612ce081613303565b9150612cee60208401612b47565b90509250929050565b60008060408385031215612d09578182fd5b8235612d1481613303565b946020939093013593505050565b600060208284031215612d33578081fd5b61114082612b47565b60008060408385031215612d4e578182fd5b612d1483612b47565b60008060408385031215612d69578182fd5b612d7283612b47565b9150602083013560ff81168114612ba0578182fd5b600080828403610120811215612d9b578283fd5b61010080821215612daa578384fd5b60405191508082016001600160401b0381118382101715612dc757fe5b604090815285358352602080870135908401528581013590830152606080860135908301526080808601359083015260a0808601359083015260c0808601359083015260e08086013590830152909593013593505050565b600060208284031215612e30578081fd5b5035919050565b60008060408385031215612e49578182fd5b50508035926020909101359150565b600080600060608486031215612e6c578081fd5b8351925060208401519150604084015190509250925092565b6000815180845260208085019450808401835b83811015612ebd5781516001600160a01b031687529582019590820190600101612e98565b509495945050505050565b6001600160a01b0391909116815260200190565b6001600160a01b039687168152602081019590955260408501939093526060840191909152909216608082015260a081019190915260c00190565b6001600160a01b03929092168252602082015260400190565b901515815260200190565b600085825260806020830152612f546080830186612e85565b6001600160a01b03949094166040830152506060015292915050565b6000602080835283518082850152825b81811015612f9c57858101830151858201604001528201612f80565b81811115612fad5783604083870101525b50601f01601f1916929092016040019392505050565b60208082526028908201527f4d69736d61746368206265747765656e204164647265737320616e6420746f6b604082015267195b8818dbdd5b9d60c21b606082015260800190565b602080825260119082015270151608131a5b5a5d08115e18d959591959607a1b604082015260600190565b6020808252601b908201527a536166654d6174683a206164646974696f6e206f766572666c6f7760281b604082015260600190565b60208082526025908201527f506c65617365207761697420666f7220316d696e206265747765656e2074776f604082015264206275797360d81b606082015260800190565b6020808252601b908201527a139bdd08195b9bdd59da081d1bdad95b9cc81a5b881dd85b1b195d602a1b604082015260600190565b602080825260149082015273151c98591a5b99c81b9bdd081bdc195b881e595d60621b604082015260600190565b60208082526021908201527f536166654d6174683a206d756c7469706c69636174696f6e206f766572666c6f6040820152607760f81b606082015260800190565b6020808252603e908201527f546f74616c20486f6c64696e672069732063757272656e746c79206c696d697460408201527f65642c20796f752063616e206e6f74206275792074686174206d7563682e0000606082015260800190565b6020808252602d9082015260008051602061331c83398151915260408201526c3530302061646472657373657360981b606082015260800190565b60208082526006908201526510a7aba722a960d11b604082015260600190565b6020808252601c908201527b466565732063616e6e6f74206265206d6f7265207468616e2033332560201b604082015260600190565b6020808252600b908201526a085055551213d49256915160aa1b604082015260600190565b6020808252602d9082015260008051602061331c83398151915260408201526c3830302061646472657373657360981b606082015260800190565b90815260200190565b600086825285602083015260a060408301526132ca60a0830186612e85565b6001600160a01b0394909416606083015250608001529392505050565b918252602082015260400190565b60ff91909116815260200190565b6001600160a01b038116811461331857600080fd5b5056fe474153204572726f723a206d61782061697264726f70206c696d697420697320ddf252ad1be2c89b69c2b068fc378daa952ba7f163c4a11628f55a4df523b3efa264697066735822122054b4abc4fe2534a4ecb24c2ead8203d99779f6d6e9305db4c5de3cb39f29e82964736f6c634300070600336080604052600380546001600160a01b03191673bb4cdb9cbd36b01bd1cbaebf2de08d9173bc095c1790556ec097ce7bc90715b34b9f1000000000600d55610a8c600e556509184e72a000600f5534801561005957600080fd5b50604051611119380380611119833981016040819052610078916100ee565b600480546001600160a01b0319908116739ac64cc6e4415144c455bd8e4837fea55603e5c31790915560008054821633179055600180546001600160a01b0394851690831617905560028054929093169116179055610120565b80516001600160a01b03811681146100e957600080fd5b919050565b60008060408385031215610100578182fd5b610109836100d2565b9150610117602084016100d2565b90509250929050565b610fea8061012f6000396000f3fe6080604052600436106100b85760003560e01c806311ce023d146100bd57806314b6ca96146100e8578063152111f71461010a57806328fd3198146101125780632d48e896146101325780633a98ef39146101525780634fab0ae814610167578063997664d71461017c578063ce7c2ac214610191578063de353ecb146101c0578063e2d2e219146101c8578063efca2eed146101dd578063f0fc6bca146101f2578063ffb2c47914610207578063ffd49c8414610227575b600080fd5b3480156100c957600080fd5b506100d261023c565b6040516100df9190610f95565b60405180910390f35b3480156100f457600080fd5b50610108610103366004610d9c565b610242565b005b610108610367565b34801561011e57600080fd5b506100d261012d366004610d82565b6105b1565b34801561013e57600080fd5b5061010861014d366004610e15565b61063d565b34801561015e57600080fd5b506100d261065f565b34801561017357600080fd5b506100d2610665565b34801561018857600080fd5b506100d261066b565b34801561019d57600080fd5b506101b16101ac366004610d82565b610671565b6040516100df93929190610f9e565b610108610692565b3480156101d457600080fd5b506100d2610845565b3480156101e957600080fd5b506100d261084b565b3480156101fe57600080fd5b50610108610851565b34801561021357600080fd5b50610108610222366004610de5565b61085c565b34801561023357600080fd5b506100d261093e565b600d5481565b6000546001600160a01b0316331461025957600080fd5b6001600160a01b038216600090815260086020526040902054156102805761028082610944565b6000811180156102a657506001600160a01b038216600090815260086020526040902054155b156102b9576102b482610a6f565b6102ec565b801580156102de57506001600160a01b03821660009081526008602052604090205415155b156102ec576102ec82610ad0565b6001600160a01b03821660009081526008602052604090205460095461031d91839161031791610bbd565b90610c08565b6009556001600160a01b038216600090815260086020526040902081905561034481610c36565b6001600160a01b0390921660009081526008602052604090206001019190915550565b6000546001600160a01b0316331461037e57600080fd5b6001546040516370a0823160e01b81526000916001600160a01b0316906370a08231906103af903090600401610e36565b60206040518083038186803b1580156103c757600080fd5b505afa1580156103db573d6000803e3d6000fd5b505050506040513d601f19601f820116820180604052508101906103ff9190610dfd565b6040805160028082526060820183529293506000929091602083019080368337505060035482519293506001600160a01b03169183915060009061043f57fe5b6001600160a01b039283166020918202929092010152600180548351921691839190811061046957fe5b6001600160a01b0392831660209182029290920101526004805460405163b6f9de9560e01b815292169163b6f9de959134916104ae9160009187913091429101610e63565b6000604051808303818588803b1580156104c757600080fd5b505af11580156104db573d6000803e3d6000fd5b50506001546040516370a0823160e01b81526000945061056f93508692506001600160a01b03909116906370a0823190610519903090600401610e36565b60206040518083038186803b15801561053157600080fd5b505afa158015610545573d6000803e3d6000fd5b505050506040513d601f19601f820116820180604052508101906105699190610dfd565b90610bbd565b600a5490915061057f9082610c08565b600a55600954600d546105a9916105a09161059a9085610c53565b90610c8d565b600c5490610c08565b600c55505050565b6001600160a01b0381166000908152600860205260408120546105d657506000610638565b6001600160a01b0382166000908152600860205260408120546105f890610c36565b6001600160a01b03841660009081526008602052604090206001015490915080821161062957600092505050610638565b6106338282610bbd565b925050505b919050565b6000546001600160a01b0316331461065457600080fd5b600e91909155600f55565b60095481565b600f5481565b600a5481565b60086020526000908152604090208054600182015460029092015490919083565b6000546001600160a01b031633146106a957600080fd5b6001546040516370a0823160e01b81526000916001600160a01b0316906370a08231906106da903090600401610e36565b60206040518083038186803b1580156106f257600080fd5b505afa158015610706573d6000803e3d6000fd5b505050506040513d601f19601f8201168201806040525081019061072a9190610dfd565b6040805160028082526060820183529293506000929091602083019080368337505060035482519293506001600160a01b03169183915060009061076a57fe5b6001600160a01b03928316602091820292909201015260025482519116908290600190811061079557fe5b6001600160a01b0392831660209182029290920101526004805460405163b6f9de9560e01b815292169163b6f9de959134916107da9160009187913091429101610e63565b6000604051808303818588803b1580156107f357600080fd5b505af1158015610807573d6000803e3d6000fd5b50506002546040516370a0823160e01b81526000945061056f93508692506001600160a01b03909116906370a0823190610519903090600401610e36565b600c5481565b600b5481565b61085a33610944565b565b6000546001600160a01b0316331461087357600080fd5b60055480610881575061093b565b6000805a905060005b848310801561089857508381105b156109365783601054106108ac5760006010555b6108d86005601054815481106108be57fe5b6000918252602090912001546001600160a01b0316610ccc565b15610909576109096005601054815481106108ef57fe5b6000918252602090912001546001600160a01b0316610944565b61091e6109175a8490610bbd565b8490610c08565b92505a6010805460019081019091559092500161088a565b505050505b50565b600e5481565b6001600160a01b0381166000908152600860205260409020546109665761093b565b6000610971826105b1565b90508015610a6b57600b546109869082610c08565b600b5560015460405163a9059cbb60e01b81526001600160a01b039091169063a9059cbb906109bb9085908590600401610e4a565b602060405180830381600087803b1580156109d557600080fd5b505af11580156109e9573d6000803e3d6000fd5b505050506040513d601f19601f82011682018060405250810190610a0d9190610dc5565b506001600160a01b03821660009081526007602090815260408083204290556008909152902060020154610a419082610c08565b6001600160a01b038316600090815260086020526040902060028101919091555461034490610c36565b5050565b600580546001600160a01b039092166000818152600660205260408120849055600184018355919091527f036b6384b5eca791c62761152d0c79bb0604c104a5fb6f4eb0703f3154bb3db090910180546001600160a01b0319169091179055565b600580546000198101908110610ae257fe5b60009182526020808320909101546001600160a01b0384811684526006909252604090922054600580549290931692918110610b1a57fe5b600091825260208083209190910180546001600160a01b0319166001600160a01b039485161790559183168152600691829052604081205460058054919392916000198101908110610b6857fe5b60009182526020808320909101546001600160a01b031683528201929092526040019020556005805480610b9857fe5b600082815260209020810160001990810180546001600160a01b031916905501905550565b6000610bff83836040518060400160405280601e81526020017f536166654d6174683a207375627472616374696f6e206f766572666c6f770000815250610d08565b90505b92915050565b600082820183811015610bff5760405162461bcd60e51b8152600401610c2d90610f1f565b60405180910390fd5b6000610c02600d5461059a600c5485610c5390919063ffffffff16565b600082610c6257506000610c02565b82820282848281610c6f57fe5b0414610bff5760405162461bcd60e51b8152600401610c2d90610f54565b6000610bff83836040518060400160405280601a815260200179536166654d6174683a206469766973696f6e206279207a65726f60301b815250610d34565b600e546001600160a01b0382166000908152600760205260408120549091429101108015610c025750600f54610d01836105b1565b1192915050565b60008184841115610d2c5760405162461bcd60e51b8152600401610c2d9190610ecc565b505050900390565b60008183610d555760405162461bcd60e51b8152600401610c2d9190610ecc565b506000838581610d6157fe5b0495945050505050565b80356001600160a01b038116811461063857600080fd5b600060208284031215610d93578081fd5b610bff82610d6b565b60008060408385031215610dae578081fd5b610db783610d6b565b946020939093013593505050565b600060208284031215610dd6578081fd5b81518015158114610bff578182fd5b600060208284031215610df6578081fd5b5035919050565b600060208284031215610e0e578081fd5b5051919050565b60008060408385031215610e27578182fd5b50508035926020909101359150565b6001600160a01b0391909116815260200190565b6001600160a01b03929092168252602082015260400190565b600060808201868352602060808185015281875180845260a0860191508289019350845b81811015610eac5784516001600160a01b031683529383019391830191600101610e87565b50506001600160a01b039690961660408501525050506060015292915050565b6000602080835283518082850152825b81811015610ef857858101830151858201604001528201610edc565b81811115610f095783604083870101525b50601f01601f1916929092016040019392505050565b6020808252601b908201527a536166654d6174683a206164646974696f6e206f766572666c6f7760281b604082015260600190565b60208082526021908201527f536166654d6174683a206d756c7469706c69636174696f6e206f766572666c6f6040820152607760f81b606082015260800190565b90815260200190565b928352602083019190915260408201526060019056fea2646970667358221220cd5083e23ab35ce81d63d6bd2ed6d15a494c184ad914ba7cff0b6c02bed0525f64736f6c63430007060033",
			"opcodes": "PUSH1 0x80 PUSH1 0x40 MSTORE PUSH1 0x2 DUP1 SLOAD PUSH20 0xBB4CDB9CBD36B01BD1CBAEBF2DE08D9173BC095C PUSH1 0x1 PUSH1 0x1 PUSH1 0xA0 SHL SUB NOT SWAP2 DUP3 AND OR SWAP1 SWAP2 SSTORE PUSH1 0x3 DUP1 SLOAD PUSH2 0xDEAD SWAP1 DUP4 AND OR SWAP1 SSTORE PUSH1 0x4 DUP1 SLOAD SWAP1 SWAP2 AND SWAP1 SSTORE PUSH1 0x9 DUP1 SLOAD PUSH1 0x12 PUSH1 0xFF NOT SWAP2 DUP3 AND OR SWAP1 SWAP2 SSTORE PUSH1 0xA SLOAD PUSH1 0xB DUP2 SWAP1 SSTORE PUSH1 0xC DUP2 SWAP1 SSTORE PUSH1 0x64 PUSH1 0x21 DUP2 SWAP1 SSTORE PUSH2 0x2E1 PUSH1 0x22 SSTORE PUSH1 0x14 PUSH1 0x25 SSTORE PUSH1 0x26 SSTORE PUSH1 0x28 DUP1 SLOAD PUSH1 0xFF PUSH1 0xA0 SHL NOT AND SWAP1 SSTORE PUSH3 0x7A120 PUSH1 0x2A SSTORE PUSH1 0x2B DUP1 SLOAD DUP4 AND PUSH1 0x1 SWAP1 DUP2 OR PUSH2 0xFF00 NOT AND PUSH2 0xA00 OR SWAP1 SWAP2 SSTORE PUSH1 0x2D DUP1 SLOAD SWAP1 SWAP4 AND OR SWAP1 SWAP2 SSTORE PUSH2 0x2710 SWAP1 PUSH1 0x1E MUL DIV PUSH1 0x2E SSTORE CALLVALUE DUP1 ISZERO PUSH3 0xC3 JUMPI PUSH1 0x0 DUP1 REVERT JUMPDEST POP PUSH1 0x40 MLOAD PUSH3 0x4D2E CODESIZE SUB DUP1 PUSH3 0x4D2E DUP4 CODECOPY DUP2 ADD PUSH1 0x40 DUP2 SWAP1 MSTORE PUSH3 0xE6 SWAP2 PUSH3 0x6F9 JUMP JUMPDEST PUSH1 0x0 DUP1 SLOAD PUSH1 0x1 PUSH1 0x1 PUSH1 0xA0 SHL SUB NOT AND CALLER SWAP1 DUP2 OR DUP3 SSTORE DUP2 MSTORE PUSH1 0x1 PUSH1 0x20 DUP2 DUP2 MSTORE PUSH1 0x40 SWAP1 SWAP3 KECCAK256 DUP1 SLOAD PUSH1 0xFF NOT AND SWAP1 SWAP2 OR SWAP1 SSTORE DUP8 MLOAD PUSH3 0x127 SWAP2 PUSH1 0x7 SWAP2 SWAP1 DUP11 ADD SWAP1 PUSH3 0x575 JUMP JUMPDEST POP DUP6 MLOAD PUSH3 0x13D SWAP1 PUSH1 0x8 SWAP1 PUSH1 0x20 DUP10 ADD SWAP1 PUSH3 0x575 JUMP JUMPDEST POP PUSH1 0xA DUP6 SWAP1 SSTORE DUP4 MLOAD PUSH1 0x16 DUP2 SWAP1 SSTORE PUSH1 0x20 DUP1 DUP7 ADD MLOAD PUSH1 0x17 DUP2 SWAP1 SSTORE PUSH1 0x40 DUP1 DUP9 ADD MLOAD PUSH1 0x18 DUP2 SWAP1 SSTORE PUSH1 0x60 DUP10 ADD MLOAD PUSH1 0x19 DUP2 SWAP1 SSTORE PUSH1 0x80 DUP11 ADD MLOAD PUSH1 0x1A DUP2 SWAP1 SSTORE PUSH1 0xA0 DUP12 ADD MLOAD PUSH1 0x1B DUP2 SWAP1 SSTORE PUSH1 0xC0 DUP13 ADD MLOAD PUSH1 0x1C DUP2 SWAP1 SSTORE PUSH1 0xE0 DUP14 ADD MLOAD PUSH1 0x1D DUP2 SWAP1 SSTORE SWAP5 SWAP1 SWAP9 ADD SWAP1 SWAP2 ADD SWAP1 SWAP7 ADD PUSH1 0x1E DUP2 SWAP1 SSTORE SWAP4 ADD SWAP1 SWAP5 ADD SWAP1 SWAP4 ADD PUSH1 0x1F DUP2 SWAP1 SSTORE ADD DUP2 SSTORE PUSH1 0x5 DUP1 SLOAD PUSH1 0x1 PUSH1 0x1 PUSH1 0xA0 SHL SUB DUP1 DUP8 AND PUSH1 0x1 PUSH1 0x1 PUSH1 0xA0 SHL SUB NOT SWAP3 DUP4 AND OR SWAP1 SWAP3 SSTORE PUSH1 0x6 DUP1 SLOAD DUP7 DUP5 AND SWAP1 DUP4 AND OR SWAP1 SSTORE PUSH1 0x27 DUP1 SLOAD SWAP1 SWAP2 AND PUSH20 0x9AC64CC6E4415144C455BD8E4837FEA55603E5C3 OR SWAP1 DUP2 SWAP1 SSTORE DUP4 MLOAD PUSH4 0xC45A0155 PUSH1 0xE0 SHL DUP2 MSTORE SWAP4 MLOAD SWAP2 AND SWAP3 PUSH4 0xC45A0155 SWAP3 PUSH1 0x4 DUP3 DUP2 ADD SWAP4 SWAP2 SWAP3 DUP3 SWAP1 SUB ADD DUP2 DUP7 DUP1 EXTCODESIZE ISZERO DUP1 ISZERO PUSH3 0x232 JUMPI PUSH1 0x0 DUP1 REVERT JUMPDEST POP GAS STATICCALL ISZERO DUP1 ISZERO PUSH3 0x247 JUMPI RETURNDATASIZE PUSH1 0x0 DUP1 RETURNDATACOPY RETURNDATASIZE PUSH1 0x0 REVERT JUMPDEST POP POP POP POP PUSH1 0x40 MLOAD RETURNDATASIZE PUSH1 0x1F NOT PUSH1 0x1F DUP3 ADD AND DUP3 ADD DUP1 PUSH1 0x40 MSTORE POP DUP2 ADD SWAP1 PUSH3 0x26D SWAP2 SWAP1 PUSH3 0x6D5 JUMP JUMPDEST PUSH1 0x2 SLOAD PUSH1 0x40 MLOAD PUSH4 0x64E329CB PUSH1 0xE1 SHL DUP2 MSTORE PUSH1 0x1 PUSH1 0x1 PUSH1 0xA0 SHL SUB SWAP3 DUP4 AND SWAP3 PUSH4 0xC9C65396 SWAP3 PUSH3 0x2A2 SWAP3 SWAP2 AND SWAP1 ADDRESS SWAP1 PUSH1 0x4 ADD PUSH3 0x82D JUMP JUMPDEST PUSH1 0x20 PUSH1 0x40 MLOAD DUP1 DUP4 SUB DUP2 PUSH1 0x0 DUP8 DUP1 EXTCODESIZE ISZERO DUP1 ISZERO PUSH3 0x2BD JUMPI PUSH1 0x0 DUP1 REVERT JUMPDEST POP GAS CALL ISZERO DUP1 ISZERO PUSH3 0x2D2 JUMPI RETURNDATASIZE PUSH1 0x0 DUP1 RETURNDATACOPY RETURNDATASIZE PUSH1 0x0 REVERT JUMPDEST POP POP POP POP PUSH1 0x40 MLOAD RETURNDATASIZE PUSH1 0x1F NOT PUSH1 0x1F DUP3 ADD AND DUP3 ADD DUP1 PUSH1 0x40 MSTORE POP DUP2 ADD SWAP1 PUSH3 0x2F8 SWAP2 SWAP1 PUSH3 0x6D5 JUMP JUMPDEST PUSH1 0x28 DUP1 SLOAD PUSH1 0x1 PUSH1 0x1 PUSH1 0xA0 SHL SUB NOT AND PUSH1 0x1 PUSH1 0x1 PUSH1 0xA0 SHL SUB SWAP3 DUP4 AND OR SWAP1 SSTORE ADDRESS PUSH1 0x0 DUP2 DUP2 MSTORE PUSH1 0xE PUSH1 0x20 SWAP1 DUP2 MSTORE PUSH1 0x40 DUP1 DUP4 KECCAK256 PUSH1 0x27 SLOAD SWAP1 SWAP6 AND DUP4 MSTORE SWAP4 SWAP1 MSTORE DUP3 SWAP1 KECCAK256 PUSH1 0x0 NOT SWAP1 SSTORE SWAP1 MLOAD DUP5 SWAP2 SWAP1 PUSH3 0x349 SWAP1 PUSH3 0x60A JUMP JUMPDEST PUSH3 0x356 SWAP3 SWAP2 SWAP1 PUSH3 0x82D JUMP JUMPDEST PUSH1 0x40 MLOAD DUP1 SWAP2 SUB SWAP1 PUSH1 0x0 CREATE DUP1 ISZERO DUP1 ISZERO PUSH3 0x373 JUMPI RETURNDATASIZE PUSH1 0x0 DUP1 RETURNDATACOPY RETURNDATASIZE PUSH1 0x0 REVERT JUMPDEST POP PUSH1 0x29 DUP1 SLOAD PUSH1 0x1 PUSH1 0x1 PUSH1 0xA0 SHL SUB SWAP3 DUP4 AND PUSH1 0x1 PUSH1 0x1 PUSH1 0xA0 SHL SUB NOT SWAP2 DUP3 AND OR SWAP1 SWAP2 SSTORE CALLER PUSH1 0x0 DUP2 DUP2 MSTORE PUSH1 0xF PUSH1 0x20 SWAP1 DUP2 MSTORE PUSH1 0x40 DUP1 DUP4 KECCAK256 DUP1 SLOAD PUSH1 0xFF NOT SWAP1 DUP2 AND PUSH1 0x1 SWAP1 DUP2 OR SWAP1 SWAP3 SSTORE PUSH1 0x5 DUP1 SLOAD DUP10 AND DUP7 MSTORE DUP4 DUP7 KECCAK256 DUP1 SLOAD DUP4 AND DUP5 OR SWAP1 SSTORE DUP7 DUP7 MSTORE PUSH1 0x14 DUP6 MSTORE DUP4 DUP7 KECCAK256 DUP1 SLOAD DUP4 AND DUP5 OR SWAP1 SSTORE DUP1 SLOAD DUP10 AND DUP7 MSTORE DUP4 DUP7 KECCAK256 DUP1 SLOAD DUP4 AND DUP5 OR SWAP1 SSTORE DUP7 DUP7 MSTORE PUSH1 0x15 DUP6 MSTORE DUP4 DUP7 KECCAK256 DUP1 SLOAD DUP4 AND DUP5 OR SWAP1 SSTORE DUP1 SLOAD DUP10 AND DUP7 MSTORE DUP4 DUP7 KECCAK256 DUP1 SLOAD DUP4 AND DUP5 OR SWAP1 SSTORE DUP7 DUP7 MSTORE PUSH1 0x12 DUP6 MSTORE DUP4 DUP7 KECCAK256 DUP1 SLOAD DUP4 AND DUP5 OR SWAP1 SSTORE DUP1 SLOAD DUP10 AND DUP7 MSTORE DUP4 DUP7 KECCAK256 DUP1 SLOAD DUP4 AND DUP5 OR SWAP1 SSTORE PUSH1 0x3 DUP1 SLOAD DUP11 AND DUP8 MSTORE DUP5 DUP8 KECCAK256 DUP1 SLOAD DUP5 AND DUP6 OR SWAP1 SSTORE ADDRESS DUP1 DUP9 MSTORE DUP6 DUP9 KECCAK256 DUP1 SLOAD DUP6 AND DUP7 OR SWAP1 SSTORE PUSH1 0x28 DUP1 SLOAD DUP13 AND DUP10 MSTORE PUSH1 0x11 DUP9 MSTORE DUP7 DUP10 KECCAK256 DUP1 SLOAD DUP7 AND DUP8 OR SWAP1 SSTORE PUSH1 0x27 DUP1 SLOAD DUP14 AND DUP11 MSTORE DUP8 DUP11 KECCAK256 DUP1 SLOAD DUP8 AND DUP9 OR SWAP1 SSTORE DUP3 DUP11 MSTORE DUP8 DUP11 KECCAK256 DUP1 SLOAD DUP8 AND DUP9 OR SWAP1 SSTORE DUP5 SLOAD DUP14 AND DUP11 MSTORE DUP8 DUP11 KECCAK256 DUP1 SLOAD DUP8 AND SWAP1 SSTORE DUP4 SLOAD DUP14 AND DUP11 MSTORE DUP8 DUP11 KECCAK256 DUP1 SLOAD DUP8 AND DUP9 OR SWAP1 SSTORE SWAP1 SLOAD DUP13 AND DUP10 MSTORE PUSH1 0x13 DUP9 MSTORE DUP7 DUP10 KECCAK256 DUP1 SLOAD DUP7 AND DUP8 OR SWAP1 SSTORE SLOAD DUP12 AND DUP9 MSTORE DUP6 DUP9 KECCAK256 DUP1 SLOAD DUP6 AND DUP7 OR SWAP1 SSTORE DUP8 MSTORE DUP5 DUP8 KECCAK256 DUP1 SLOAD DUP5 AND DUP6 OR SWAP1 SSTORE DUP2 SLOAD DUP11 AND DUP8 MSTORE DUP5 DUP8 KECCAK256 DUP1 SLOAD DUP5 AND SWAP1 SSTORE SLOAD DUP10 AND DUP7 MSTORE DUP4 DUP7 KECCAK256 DUP1 SLOAD SWAP1 SWAP3 AND SWAP1 SWAP3 OR SWAP1 SSTORE SLOAD PUSH1 0x23 DUP1 SLOAD DUP8 AND SWAP2 SWAP1 SWAP8 AND SWAP1 DUP2 OR SWAP1 SWAP7 SSTORE PUSH1 0x24 DUP1 SLOAD SWAP1 SWAP6 AND SWAP1 SWAP6 OR SWAP1 SWAP4 SSTORE PUSH1 0xA SLOAD DUP3 DUP3 MSTORE PUSH1 0xD SWAP1 SWAP4 MSTORE DUP4 DUP2 KECCAK256 DUP4 SWAP1 SSTORE SWAP3 MLOAD SWAP1 SWAP3 SWAP2 PUSH32 0xDDF252AD1BE2C89B69C2B068FC378DAA952BA7F163C4A11628F55A4DF523B3EF SWAP2 PUSH3 0x560 SWAP2 SWAP1 PUSH3 0x847 JUMP JUMPDEST PUSH1 0x40 MLOAD DUP1 SWAP2 SUB SWAP1 LOG3 POP POP POP POP POP POP POP PUSH3 0x874 JUMP JUMPDEST DUP3 DUP1 SLOAD PUSH1 0x1 DUP2 PUSH1 0x1 AND ISZERO PUSH2 0x100 MUL SUB AND PUSH1 0x2 SWAP1 DIV SWAP1 PUSH1 0x0 MSTORE PUSH1 0x20 PUSH1 0x0 KECCAK256 SWAP1 PUSH1 0x1F ADD PUSH1 0x20 SWAP1 DIV DUP2 ADD SWAP3 DUP3 PUSH3 0x5AD JUMPI PUSH1 0x0 DUP6 SSTORE PUSH3 0x5F8 JUMP JUMPDEST DUP3 PUSH1 0x1F LT PUSH3 0x5C8 JUMPI DUP1 MLOAD PUSH1 0xFF NOT AND DUP4 DUP1 ADD OR DUP6 SSTORE PUSH3 0x5F8 JUMP JUMPDEST DUP3 DUP1 ADD PUSH1 0x1 ADD DUP6 SSTORE DUP3 ISZERO PUSH3 0x5F8 JUMPI SWAP2 DUP3 ADD JUMPDEST DUP3 DUP2 GT ISZERO PUSH3 0x5F8 JUMPI DUP3 MLOAD DUP3 SSTORE SWAP2 PUSH1 0x20 ADD SWAP2 SWAP1 PUSH1 0x1 ADD SWAP1 PUSH3 0x5DB JUMP JUMPDEST POP PUSH3 0x606 SWAP3 SWAP2 POP PUSH3 0x618 JUMP JUMPDEST POP SWAP1 JUMP JUMPDEST PUSH2 0x1119 DUP1 PUSH3 0x3C15 DUP4 CODECOPY ADD SWAP1 JUMP JUMPDEST JUMPDEST DUP1 DUP3 GT ISZERO PUSH3 0x606 JUMPI PUSH1 0x0 DUP2 SSTORE PUSH1 0x1 ADD PUSH3 0x619 JUMP JUMPDEST DUP1 MLOAD PUSH1 0x1 PUSH1 0x1 PUSH1 0xA0 SHL SUB DUP2 AND DUP2 EQ PUSH3 0x647 JUMPI PUSH1 0x0 DUP1 REVERT JUMPDEST SWAP2 SWAP1 POP JUMP JUMPDEST PUSH1 0x0 DUP3 PUSH1 0x1F DUP4 ADD SLT PUSH3 0x65D JUMPI DUP1 DUP2 REVERT JUMPDEST DUP2 MLOAD PUSH1 0x1 PUSH1 0x1 PUSH1 0x40 SHL SUB DUP2 GT ISZERO PUSH3 0x671 JUMPI INVALID JUMPDEST PUSH1 0x20 PUSH3 0x687 PUSH1 0x1F DUP4 ADD PUSH1 0x1F NOT AND DUP3 ADD PUSH3 0x850 JUMP JUMPDEST DUP3 DUP2 MSTORE DUP6 DUP3 DUP5 DUP8 ADD ADD GT ISZERO PUSH3 0x69B JUMPI DUP4 DUP5 REVERT JUMPDEST DUP4 JUMPDEST DUP4 DUP2 LT ISZERO PUSH3 0x6BA JUMPI DUP6 DUP2 ADD DUP4 ADD MLOAD DUP3 DUP3 ADD DUP5 ADD MSTORE DUP3 ADD PUSH3 0x69D JUMP JUMPDEST DUP4 DUP2 GT ISZERO PUSH3 0x6CB JUMPI DUP5 DUP4 DUP6 DUP5 ADD ADD MSTORE JUMPDEST POP SWAP6 SWAP5 POP POP POP POP POP JUMP JUMPDEST PUSH1 0x0 PUSH1 0x20 DUP3 DUP5 SUB SLT ISZERO PUSH3 0x6E7 JUMPI DUP1 DUP2 REVERT JUMPDEST PUSH3 0x6F2 DUP3 PUSH3 0x62F JUMP JUMPDEST SWAP4 SWAP3 POP POP POP JUMP JUMPDEST PUSH1 0x0 DUP1 PUSH1 0x0 DUP1 PUSH1 0x0 DUP1 PUSH1 0x0 DUP8 DUP10 SUB PUSH2 0x1C0 DUP2 SLT ISZERO PUSH3 0x716 JUMPI DUP4 DUP5 REVERT JUMPDEST DUP9 MLOAD PUSH1 0x1 PUSH1 0x1 PUSH1 0x40 SHL SUB DUP1 DUP3 GT ISZERO PUSH3 0x72D JUMPI DUP6 DUP7 REVERT JUMPDEST PUSH3 0x73B DUP13 DUP4 DUP14 ADD PUSH3 0x64C JUMP JUMPDEST SWAP10 POP PUSH1 0x20 DUP12 ADD MLOAD SWAP2 POP DUP1 DUP3 GT ISZERO PUSH3 0x751 JUMPI DUP6 DUP7 REVERT JUMPDEST PUSH3 0x75F DUP13 DUP4 DUP14 ADD PUSH3 0x64C JUMP JUMPDEST SWAP9 POP PUSH1 0x40 DUP12 ADD MLOAD SWAP8 POP PUSH2 0x100 SWAP2 POP DUP2 PUSH1 0x5F NOT DUP5 ADD SLT ISZERO PUSH3 0x77E JUMPI DUP6 DUP7 REVERT JUMPDEST PUSH1 0x40 MLOAD SWAP3 POP DUP2 DUP4 ADD DUP4 DUP2 LT DUP3 DUP3 GT OR ISZERO PUSH3 0x795 JUMPI INVALID JUMPDEST DUP1 PUSH1 0x40 MSTORE POP POP PUSH1 0x60 DUP11 ADD MLOAD DUP3 MSTORE PUSH1 0x80 DUP11 ADD MLOAD PUSH1 0x20 DUP4 ADD MSTORE PUSH1 0xA0 DUP11 ADD MLOAD PUSH1 0x40 DUP4 ADD MSTORE PUSH1 0xC0 DUP11 ADD MLOAD PUSH1 0x60 DUP4 ADD MSTORE PUSH1 0xE0 DUP11 ADD MLOAD PUSH1 0x80 DUP4 ADD MSTORE DUP1 DUP11 ADD MLOAD PUSH1 0xA0 DUP4 ADD MSTORE POP PUSH2 0x120 DUP10 ADD MLOAD PUSH1 0xC0 DUP3 ADD MSTORE PUSH2 0x140 DUP10 ADD MLOAD PUSH1 0xE0 DUP3 ADD MSTORE DUP1 SWAP5 POP POP PUSH3 0x7FD PUSH2 0x160 DUP10 ADD PUSH3 0x62F JUMP JUMPDEST SWAP3 POP PUSH3 0x80E PUSH2 0x180 DUP10 ADD PUSH3 0x62F JUMP JUMPDEST SWAP2 POP PUSH3 0x81F PUSH2 0x1A0 DUP10 ADD PUSH3 0x62F JUMP JUMPDEST SWAP1 POP SWAP3 SWAP6 SWAP9 SWAP2 SWAP5 SWAP8 POP SWAP3 SWAP6 POP JUMP JUMPDEST PUSH1 0x1 PUSH1 0x1 PUSH1 0xA0 SHL SUB SWAP3 DUP4 AND DUP2 MSTORE SWAP2 AND PUSH1 0x20 DUP3 ADD MSTORE PUSH1 0x40 ADD SWAP1 JUMP JUMPDEST SWAP1 DUP2 MSTORE PUSH1 0x20 ADD SWAP1 JUMP JUMPDEST PUSH1 0x40 MLOAD DUP2 DUP2 ADD PUSH1 0x1 PUSH1 0x1 PUSH1 0x40 SHL SUB DUP2 GT DUP3 DUP3 LT OR ISZERO PUSH3 0x86C JUMPI INVALID JUMPDEST PUSH1 0x40 MSTORE SWAP2 SWAP1 POP JUMP JUMPDEST PUSH2 0x3391 DUP1 PUSH3 0x884 PUSH1 0x0 CODECOPY PUSH1 0x0 RETURN INVALID PUSH1 0x80 PUSH1 0x40 MSTORE PUSH1 0x4 CALLDATASIZE LT PUSH2 0x2F7 JUMPI PUSH1 0x0 CALLDATALOAD PUSH1 0xE0 SHR DUP1 PUSH3 0x851FB3 EQ PUSH2 0x303 JUMPI DUP1 PUSH4 0x445B667 EQ PUSH2 0x32E JUMPI DUP1 PUSH4 0x6FDDE03 EQ PUSH2 0x350 JUMPI DUP1 PUSH4 0x9302DC6 EQ PUSH2 0x372 JUMPI DUP1 PUSH4 0x95EA7B3 EQ PUSH2 0x394 JUMPI DUP1 PUSH4 0xD295980 EQ PUSH2 0x3C1 JUMPI DUP1 PUSH4 0x1161AE39 EQ PUSH2 0x3E1 JUMPI DUP1 PUSH4 0x180B0D7E EQ PUSH2 0x401 JUMPI DUP1 PUSH4 0x18160DDD EQ PUSH2 0x416 JUMPI DUP1 PUSH4 0x1BFF7898 EQ PUSH2 0x42B JUMPI DUP1 PUSH4 0x1CA0A28D EQ PUSH2 0x440 JUMPI DUP1 PUSH4 0x1DA1DB5E EQ PUSH2 0x460 JUMPI DUP1 PUSH4 0x201E7991 EQ PUSH2 0x480 JUMPI DUP1 PUSH4 0x23B872DD EQ PUSH2 0x4A0 JUMPI DUP1 PUSH4 0x24F8D179 EQ PUSH2 0x4C0 JUMPI DUP1 PUSH4 0x2B112E49 EQ PUSH2 0x4E0 JUMPI DUP1 PUSH4 0x2D48E896 EQ PUSH2 0x4F5 JUMPI DUP1 PUSH4 0x2D594567 EQ PUSH2 0x515 JUMPI DUP1 PUSH4 0x2F54BF6E EQ PUSH2 0x535 JUMPI DUP1 PUSH4 0x313CE567 EQ PUSH2 0x555 JUMPI DUP1 PUSH4 0x33012411 EQ PUSH2 0x577 JUMPI DUP1 PUSH4 0x335F6A43 EQ PUSH2 0x58C JUMPI DUP1 PUSH4 0x33F2A6E9 EQ PUSH2 0x5AC JUMPI DUP1 PUSH4 0x363F1E92 EQ PUSH2 0x5CC JUMPI DUP1 PUSH4 0x44A33FD2 EQ PUSH2 0x5EC JUMPI DUP1 PUSH4 0x46469AFB EQ PUSH2 0x60C JUMPI DUP1 PUSH4 0x5252A228 EQ PUSH2 0x621 JUMPI DUP1 PUSH4 0x571AC8B0 EQ PUSH2 0x636 JUMPI DUP1 PUSH4 0x5A686D54 EQ PUSH2 0x656 JUMPI DUP1 PUSH4 0x6053B881 EQ PUSH2 0x66B JUMPI DUP1 PUSH4 0x617FE0ED EQ PUSH2 0x680 JUMPI DUP1 PUSH4 0x6AB91206 EQ PUSH2 0x695 JUMPI DUP1 PUSH4 0x6DDD1713 EQ PUSH2 0x6AA JUMPI DUP1 PUSH4 0x70A08231 EQ PUSH2 0x6BF JUMPI DUP1 PUSH4 0x722B62AD EQ PUSH2 0x6DF JUMPI DUP1 PUSH4 0x78109E54 EQ PUSH2 0x6F4 JUMPI DUP1 PUSH4 0x7D1DB4A5 EQ PUSH2 0x709 JUMPI DUP1 PUSH4 0x875385F3 EQ PUSH2 0x71E JUMPI DUP1 PUSH4 0x893D20E8 EQ PUSH2 0x73E JUMPI DUP1 PUSH4 0x95D89B41 EQ PUSH2 0x753 JUMPI DUP1 PUSH4 0x9D1944F5 EQ PUSH2 0x768 JUMPI DUP1 PUSH4 0xA2CBBA28 EQ PUSH2 0x788 JUMPI DUP1 PUSH4 0xA4B45C00 EQ PUSH2 0x79D JUMPI DUP1 PUSH4 0xA8AA1B31 EQ PUSH2 0x7BD JUMPI DUP1 PUSH4 0xA9059CBB EQ PUSH2 0x7D2 JUMPI DUP1 PUSH4 0xAAA867A0 EQ PUSH2 0x7F2 JUMPI DUP1 PUSH4 0xADF18693 EQ PUSH2 0x812 JUMPI DUP1 PUSH4 0xB6A5D7DE EQ PUSH2 0x832 JUMPI DUP1 PUSH4 0xBC337182 EQ PUSH2 0x852 JUMPI DUP1 PUSH4 0xBD9AB537 EQ PUSH2 0x872 JUMPI DUP1 PUSH4 0xBFE10928 EQ PUSH2 0x892 JUMPI DUP1 PUSH4 0xC6DAE9A1 EQ PUSH2 0x8A7 JUMPI DUP1 PUSH4 0xCA33E64C EQ PUSH2 0x8C7 JUMPI DUP1 PUSH4 0xD2138A6D EQ PUSH2 0x8DC JUMPI DUP1 PUSH4 0xD51ED1C8 EQ PUSH2 0x8FC JUMPI DUP1 PUSH4 0xDD62ED3E EQ PUSH2 0x91C JUMPI DUP1 PUSH4 0xDF20FD49 EQ PUSH2 0x93C JUMPI DUP1 PUSH4 0xE1662ED3 EQ PUSH2 0x95C JUMPI DUP1 PUSH4 0xE96DB1EF EQ PUSH2 0x971 JUMPI DUP1 PUSH4 0xEC72D65F EQ PUSH2 0x986 JUMPI DUP1 PUSH4 0xF0B37C04 EQ PUSH2 0x9A6 JUMPI DUP1 PUSH4 0xF2FDE38B EQ PUSH2 0x9C6 JUMPI DUP1 PUSH4 0xF887EA40 EQ PUSH2 0x9E6 JUMPI DUP1 PUSH4 0xFE85B42B EQ PUSH2 0x9FB JUMPI DUP1 PUSH4 0xFE9FBB80 EQ PUSH2 0xA10 JUMPI DUP1 PUSH4 0xFED0D2A1 EQ PUSH2 0xA30 JUMPI DUP1 PUSH4 0xFFB54A99 EQ PUSH2 0xA45 JUMPI PUSH2 0x2FE JUMP JUMPDEST CALLDATASIZE PUSH2 0x2FE JUMPI STOP JUMPDEST PUSH1 0x0 DUP1 REVERT JUMPDEST CALLVALUE DUP1 ISZERO PUSH2 0x30F JUMPI PUSH1 0x0 DUP1 REVERT JUMPDEST POP PUSH2 0x318 PUSH2 0xA5A JUMP JUMPDEST PUSH1 0x40 MLOAD PUSH2 0x325 SWAP2 SWAP1 PUSH2 0x2EC8 JUMP JUMPDEST PUSH1 0x40 MLOAD DUP1 SWAP2 SUB SWAP1 RETURN JUMPDEST CALLVALUE DUP1 ISZERO PUSH2 0x33A JUMPI PUSH1 0x0 DUP1 REVERT JUMPDEST POP PUSH2 0x343 PUSH2 0xA69 JUMP JUMPDEST PUSH1 0x40 MLOAD PUSH2 0x325 SWAP2 SWAP1 PUSH2 0x32A2 JUMP JUMPDEST CALLVALUE DUP1 ISZERO PUSH2 0x35C JUMPI PUSH1 0x0 DUP1 REVERT JUMPDEST POP PUSH2 0x365 PUSH2 0xA6F JUMP JUMPDEST PUSH1 0x40 MLOAD PUSH2 0x325 SWAP2 SWAP1 PUSH2 0x2F70 JUMP JUMPDEST CALLVALUE DUP1 ISZERO PUSH2 0x37E JUMPI PUSH1 0x0 DUP1 REVERT JUMPDEST POP PUSH2 0x392 PUSH2 0x38D CALLDATASIZE PUSH1 0x4 PUSH2 0x2E1F JUMP JUMPDEST PUSH2 0xB05 JUMP JUMPDEST STOP JUMPDEST CALLVALUE DUP1 ISZERO PUSH2 0x3A0 JUMPI PUSH1 0x0 DUP1 REVERT JUMPDEST POP PUSH2 0x3B4 PUSH2 0x3AF CALLDATASIZE PUSH1 0x4 PUSH2 0x2CF7 JUMP JUMPDEST PUSH2 0xB49 JUMP JUMPDEST PUSH1 0x40 MLOAD PUSH2 0x325 SWAP2 SWAP1 PUSH2 0x2F30 JUMP JUMPDEST CALLVALUE DUP1 ISZERO PUSH2 0x3CD JUMPI PUSH1 0x0 DUP1 REVERT JUMPDEST POP PUSH2 0x392 PUSH2 0x3DC CALLDATASIZE PUSH1 0x4 PUSH2 0x2D22 JUMP JUMPDEST PUSH2 0xBB4 JUMP JUMPDEST CALLVALUE DUP1 ISZERO PUSH2 0x3ED JUMPI PUSH1 0x0 DUP1 REVERT JUMPDEST POP PUSH2 0x3B4 PUSH2 0x3FC CALLDATASIZE PUSH1 0x4 PUSH2 0x2E37 JUMP JUMPDEST PUSH2 0xBF7 JUMP JUMPDEST CALLVALUE DUP1 ISZERO PUSH2 0x40D JUMPI PUSH1 0x0 DUP1 REVERT JUMPDEST POP PUSH2 0x343 PUSH2 0xC0B JUMP JUMPDEST CALLVALUE DUP1 ISZERO PUSH2 0x422 JUMPI PUSH1 0x0 DUP1 REVERT JUMPDEST POP PUSH2 0x343 PUSH2 0xC11 JUMP JUMPDEST CALLVALUE DUP1 ISZERO PUSH2 0x437 JUMPI PUSH1 0x0 DUP1 REVERT JUMPDEST POP PUSH2 0x343 PUSH2 0xC17 JUMP JUMPDEST CALLVALUE DUP1 ISZERO PUSH2 0x44C JUMPI PUSH1 0x0 DUP1 REVERT JUMPDEST POP PUSH2 0x392 PUSH2 0x45B CALLDATASIZE PUSH1 0x4 PUSH2 0x2BEB JUMP JUMPDEST PUSH2 0xC1D JUMP JUMPDEST CALLVALUE DUP1 ISZERO PUSH2 0x46C JUMPI PUSH1 0x0 DUP1 REVERT JUMPDEST POP PUSH2 0x392 PUSH2 0x47B CALLDATASIZE PUSH1 0x4 PUSH2 0x2E1F JUMP JUMPDEST PUSH2 0xF3E JUMP JUMPDEST CALLVALUE DUP1 ISZERO PUSH2 0x48C JUMPI PUSH1 0x0 DUP1 REVERT JUMPDEST POP PUSH2 0x392 PUSH2 0x49B CALLDATASIZE PUSH1 0x4 PUSH2 0x2E37 JUMP JUMPDEST PUSH2 0x1058 JUMP JUMPDEST CALLVALUE DUP1 ISZERO PUSH2 0x4AC JUMPI PUSH1 0x0 DUP1 REVERT JUMPDEST POP PUSH2 0x3B4 PUSH2 0x4BB CALLDATASIZE PUSH1 0x4 PUSH2 0x2BAB JUMP JUMPDEST PUSH2 0x1088 JUMP JUMPDEST CALLVALUE DUP1 ISZERO PUSH2 0x4CC JUMPI PUSH1 0x0 DUP1 REVERT JUMPDEST POP PUSH2 0x392 PUSH2 0x4DB CALLDATASIZE PUSH1 0x4 PUSH2 0x2CC3 JUMP JUMPDEST PUSH2 0x1147 JUMP JUMPDEST CALLVALUE DUP1 ISZERO PUSH2 0x4EC JUMPI PUSH1 0x0 DUP1 REVERT JUMPDEST POP PUSH2 0x343 PUSH2 0x1197 JUMP JUMPDEST CALLVALUE DUP1 ISZERO PUSH2 0x501 JUMPI PUSH1 0x0 DUP1 REVERT JUMPDEST POP PUSH2 0x392 PUSH2 0x510 CALLDATASIZE PUSH1 0x4 PUSH2 0x2E37 JUMP JUMPDEST PUSH2 0x11E0 JUMP JUMPDEST CALLVALUE DUP1 ISZERO PUSH2 0x521 JUMPI PUSH1 0x0 DUP1 REVERT JUMPDEST POP PUSH2 0x392 PUSH2 0x530 CALLDATASIZE PUSH1 0x4 PUSH2 0x2D57 JUMP JUMPDEST PUSH2 0x1265 JUMP JUMPDEST CALLVALUE DUP1 ISZERO PUSH2 0x541 JUMPI PUSH1 0x0 DUP1 REVERT JUMPDEST POP PUSH2 0x3B4 PUSH2 0x550 CALLDATASIZE PUSH1 0x4 PUSH2 0x2B57 JUMP JUMPDEST PUSH2 0x12B0 JUMP JUMPDEST CALLVALUE DUP1 ISZERO PUSH2 0x561 JUMPI PUSH1 0x0 DUP1 REVERT JUMPDEST POP PUSH2 0x56A PUSH2 0x12C7 JUMP JUMPDEST PUSH1 0x40 MLOAD PUSH2 0x325 SWAP2 SWAP1 PUSH2 0x32F5 JUMP JUMPDEST CALLVALUE DUP1 ISZERO PUSH2 0x583 JUMPI PUSH1 0x0 DUP1 REVERT JUMPDEST POP PUSH2 0x343 PUSH2 0x12D0 JUMP JUMPDEST CALLVALUE DUP1 ISZERO PUSH2 0x598 JUMPI PUSH1 0x0 DUP1 REVERT JUMPDEST POP PUSH2 0x392 PUSH2 0x5A7 CALLDATASIZE PUSH1 0x4 PUSH2 0x2C6A JUMP JUMPDEST PUSH2 0x12D6 JUMP JUMPDEST CALLVALUE DUP1 ISZERO PUSH2 0x5B8 JUMPI PUSH1 0x0 DUP1 REVERT JUMPDEST POP PUSH2 0x392 PUSH2 0x5C7 CALLDATASIZE PUSH1 0x4 PUSH2 0x2CC3 JUMP JUMPDEST PUSH2 0x1595 JUMP JUMPDEST CALLVALUE DUP1 ISZERO PUSH2 0x5D8 JUMPI PUSH1 0x0 DUP1 REVERT JUMPDEST POP PUSH2 0x392 PUSH2 0x5E7 CALLDATASIZE PUSH1 0x4 PUSH2 0x2CC3 JUMP JUMPDEST PUSH2 0x15E5 JUMP JUMPDEST CALLVALUE DUP1 ISZERO PUSH2 0x5F8 JUMPI PUSH1 0x0 DUP1 REVERT JUMPDEST POP PUSH2 0x392 PUSH2 0x607 CALLDATASIZE PUSH1 0x4 PUSH2 0x2E1F JUMP JUMPDEST PUSH2 0x1719 JUMP JUMPDEST CALLVALUE DUP1 ISZERO PUSH2 0x618 JUMPI PUSH1 0x0 DUP1 REVERT JUMPDEST POP PUSH2 0x343 PUSH2 0x1776 JUMP JUMPDEST CALLVALUE DUP1 ISZERO PUSH2 0x62D JUMPI PUSH1 0x0 DUP1 REVERT JUMPDEST POP PUSH2 0x343 PUSH2 0x177C JUMP JUMPDEST CALLVALUE DUP1 ISZERO PUSH2 0x642 JUMPI PUSH1 0x0 DUP1 REVERT JUMPDEST POP PUSH2 0x3B4 PUSH2 0x651 CALLDATASIZE PUSH1 0x4 PUSH2 0x2B57 JUMP JUMPDEST PUSH2 0x1782 JUMP JUMPDEST CALLVALUE DUP1 ISZERO PUSH2 0x662 JUMPI PUSH1 0x0 DUP1 REVERT JUMPDEST POP PUSH2 0x343 PUSH2 0x1790 JUMP JUMPDEST CALLVALUE DUP1 ISZERO PUSH2 0x677 JUMPI PUSH1 0x0 DUP1 REVERT JUMPDEST POP PUSH2 0x343 PUSH2 0x1796 JUMP JUMPDEST CALLVALUE DUP1 ISZERO PUSH2 0x68C JUMPI PUSH1 0x0 DUP1 REVERT JUMPDEST POP PUSH2 0x3B4 PUSH2 0x179C JUMP JUMPDEST CALLVALUE DUP1 ISZERO PUSH2 0x6A1 JUMPI PUSH1 0x0 DUP1 REVERT JUMPDEST POP PUSH2 0x343 PUSH2 0x17A5 JUMP JUMPDEST CALLVALUE DUP1 ISZERO PUSH2 0x6B6 JUMPI PUSH1 0x0 DUP1 REVERT JUMPDEST POP PUSH2 0x3B4 PUSH2 0x17AB JUMP JUMPDEST CALLVALUE DUP1 ISZERO PUSH2 0x6CB JUMPI PUSH1 0x0 DUP1 REVERT JUMPDEST POP PUSH2 0x343 PUSH2 0x6DA CALLDATASIZE PUSH1 0x4 PUSH2 0x2B57 JUMP JUMPDEST PUSH2 0x17B4 JUMP JUMPDEST CALLVALUE DUP1 ISZERO PUSH2 0x6EB JUMPI PUSH1 0x0 DUP1 REVERT JUMPDEST POP PUSH2 0x56A PUSH2 0x17CF JUMP JUMPDEST CALLVALUE DUP1 ISZERO PUSH2 0x700 JUMPI PUSH1 0x0 DUP1 REVERT JUMPDEST POP PUSH2 0x343 PUSH2 0x17DD JUMP JUMPDEST CALLVALUE DUP1 ISZERO PUSH2 0x715 JUMPI PUSH1 0x0 DUP1 REVERT JUMPDEST POP PUSH2 0x343 PUSH2 0x17E3 JUMP JUMPDEST CALLVALUE DUP1 ISZERO PUSH2 0x72A JUMPI PUSH1 0x0 DUP1 REVERT JUMPDEST POP PUSH2 0x392 PUSH2 0x739 CALLDATASIZE PUSH1 0x4 PUSH2 0x2CC3 JUMP JUMPDEST PUSH2 0x17E9 JUMP JUMPDEST CALLVALUE DUP1 ISZERO PUSH2 0x74A JUMPI PUSH1 0x0 DUP1 REVERT JUMPDEST POP PUSH2 0x318 PUSH2 0x1839 JUMP JUMPDEST CALLVALUE DUP1 ISZERO PUSH2 0x75F JUMPI PUSH1 0x0 DUP1 REVERT JUMPDEST POP PUSH2 0x365 PUSH2 0x1848 JUMP JUMPDEST CALLVALUE DUP1 ISZERO PUSH2 0x774 JUMPI PUSH1 0x0 DUP1 REVERT JUMPDEST POP PUSH2 0x392 PUSH2 0x783 CALLDATASIZE PUSH1 0x4 PUSH2 0x2E1F JUMP JUMPDEST PUSH2 0x18A9 JUMP JUMPDEST CALLVALUE DUP1 ISZERO PUSH2 0x794 JUMPI PUSH1 0x0 DUP1 REVERT JUMPDEST POP PUSH2 0x343 PUSH2 0x18E2 JUMP JUMPDEST CALLVALUE DUP1 ISZERO PUSH2 0x7A9 JUMPI PUSH1 0x0 DUP1 REVERT JUMPDEST POP PUSH2 0x392 PUSH2 0x7B8 CALLDATASIZE PUSH1 0x4 PUSH2 0x2B73 JUMP JUMPDEST PUSH2 0x18E8 JUMP JUMPDEST CALLVALUE DUP1 ISZERO PUSH2 0x7C9 JUMPI PUSH1 0x0 DUP1 REVERT JUMPDEST POP PUSH2 0x318 PUSH2 0x193B JUMP JUMPDEST CALLVALUE DUP1 ISZERO PUSH2 0x7DE JUMPI PUSH1 0x0 DUP1 REVERT JUMPDEST POP PUSH2 0x3B4 PUSH2 0x7ED CALLDATASIZE PUSH1 0x4 PUSH2 0x2CF7 JUMP JUMPDEST PUSH2 0x194A JUMP JUMPDEST CALLVALUE DUP1 ISZERO PUSH2 0x7FE JUMPI PUSH1 0x0 DUP1 REVERT JUMPDEST POP PUSH2 0x392 PUSH2 0x80D CALLDATASIZE PUSH1 0x4 PUSH2 0x2CC3 JUMP JUMPDEST PUSH2 0x1957 JUMP JUMPDEST CALLVALUE DUP1 ISZERO PUSH2 0x81E JUMPI PUSH1 0x0 DUP1 REVERT JUMPDEST POP PUSH2 0x392 PUSH2 0x82D CALLDATASIZE PUSH1 0x4 PUSH2 0x2CC3 JUMP JUMPDEST PUSH2 0x19A7 JUMP JUMPDEST CALLVALUE DUP1 ISZERO PUSH2 0x83E JUMPI PUSH1 0x0 DUP1 REVERT JUMPDEST POP PUSH2 0x392 PUSH2 0x84D CALLDATASIZE PUSH1 0x4 PUSH2 0x2B57 JUMP JUMPDEST PUSH2 0x19F7 JUMP JUMPDEST CALLVALUE DUP1 ISZERO PUSH2 0x85E JUMPI PUSH1 0x0 DUP1 REVERT JUMPDEST POP PUSH2 0x392 PUSH2 0x86D CALLDATASIZE PUSH1 0x4 PUSH2 0x2E1F JUMP JUMPDEST PUSH2 0x1A43 JUMP JUMPDEST CALLVALUE DUP1 ISZERO PUSH2 0x87E JUMPI PUSH1 0x0 DUP1 REVERT JUMPDEST POP PUSH2 0x392 PUSH2 0x88D CALLDATASIZE PUSH1 0x4 PUSH2 0x2E1F JUMP JUMPDEST PUSH2 0x1A6D JUMP JUMPDEST CALLVALUE DUP1 ISZERO PUSH2 0x89E JUMPI PUSH1 0x0 DUP1 REVERT JUMPDEST POP PUSH2 0x318 PUSH2 0x1AA8 JUMP JUMPDEST CALLVALUE DUP1 ISZERO PUSH2 0x8B3 JUMPI PUSH1 0x0 DUP1 REVERT JUMPDEST POP PUSH2 0x392 PUSH2 0x8C2 CALLDATASIZE PUSH1 0x4 PUSH2 0x2D87 JUMP JUMPDEST PUSH2 0x1AB7 JUMP JUMPDEST CALLVALUE DUP1 ISZERO PUSH2 0x8D3 JUMPI PUSH1 0x0 DUP1 REVERT JUMPDEST POP PUSH2 0x318 PUSH2 0x1B74 JUMP JUMPDEST CALLVALUE DUP1 ISZERO PUSH2 0x8E8 JUMPI PUSH1 0x0 DUP1 REVERT JUMPDEST POP PUSH2 0x392 PUSH2 0x8F7 CALLDATASIZE PUSH1 0x4 PUSH2 0x2CC3 JUMP JUMPDEST PUSH2 0x1B83 JUMP JUMPDEST CALLVALUE DUP1 ISZERO PUSH2 0x908 JUMPI PUSH1 0x0 DUP1 REVERT JUMPDEST POP PUSH2 0x343 PUSH2 0x917 CALLDATASIZE PUSH1 0x4 PUSH2 0x2E1F JUMP JUMPDEST PUSH2 0x1BD3 JUMP JUMPDEST CALLVALUE DUP1 ISZERO PUSH2 0x928 JUMPI PUSH1 0x0 DUP1 REVERT JUMPDEST POP PUSH2 0x343 PUSH2 0x937 CALLDATASIZE PUSH1 0x4 PUSH2 0x2B73 JUMP JUMPDEST PUSH2 0x1C13 JUMP JUMPDEST CALLVALUE DUP1 ISZERO PUSH2 0x948 JUMPI PUSH1 0x0 DUP1 REVERT JUMPDEST POP PUSH2 0x392 PUSH2 0x957 CALLDATASIZE PUSH1 0x4 PUSH2 0x2D3C JUMP JUMPDEST PUSH2 0x1C3E JUMP JUMPDEST CALLVALUE DUP1 ISZERO PUSH2 0x968 JUMPI PUSH1 0x0 DUP1 REVERT JUMPDEST POP PUSH2 0x343 PUSH2 0x1C7A JUMP JUMPDEST CALLVALUE DUP1 ISZERO PUSH2 0x97D JUMPI PUSH1 0x0 DUP1 REVERT JUMPDEST POP PUSH2 0x343 PUSH2 0x1C80 JUMP JUMPDEST CALLVALUE DUP1 ISZERO PUSH2 0x992 JUMPI PUSH1 0x0 DUP1 REVERT JUMPDEST POP PUSH2 0x392 PUSH2 0x9A1 CALLDATASIZE PUSH1 0x4 PUSH2 0x2E1F JUMP JUMPDEST PUSH2 0x1C86 JUMP JUMPDEST CALLVALUE DUP1 ISZERO PUSH2 0x9B2 JUMPI PUSH1 0x0 DUP1 REVERT JUMPDEST POP PUSH2 0x392 PUSH2 0x9C1 CALLDATASIZE PUSH1 0x4 PUSH2 0x2B57 JUMP JUMPDEST PUSH2 0x1CB0 JUMP JUMPDEST CALLVALUE DUP1 ISZERO PUSH2 0x9D2 JUMPI PUSH1 0x0 DUP1 REVERT JUMPDEST POP PUSH2 0x392 PUSH2 0x9E1 CALLDATASIZE PUSH1 0x4 PUSH2 0x2B57 JUMP JUMPDEST PUSH2 0x1CF6 JUMP JUMPDEST CALLVALUE DUP1 ISZERO PUSH2 0x9F2 JUMPI PUSH1 0x0 DUP1 REVERT JUMPDEST POP PUSH2 0x318 PUSH2 0x1D8B JUMP JUMPDEST CALLVALUE DUP1 ISZERO PUSH2 0xA07 JUMPI PUSH1 0x0 DUP1 REVERT JUMPDEST POP PUSH2 0x343 PUSH2 0x1D9A JUMP JUMPDEST CALLVALUE DUP1 ISZERO PUSH2 0xA1C JUMPI PUSH1 0x0 DUP1 REVERT JUMPDEST POP PUSH2 0x3B4 PUSH2 0xA2B CALLDATASIZE PUSH1 0x4 PUSH2 0x2B57 JUMP JUMPDEST PUSH2 0x1DA0 JUMP JUMPDEST CALLVALUE DUP1 ISZERO PUSH2 0xA3C JUMPI PUSH1 0x0 DUP1 REVERT JUMPDEST POP PUSH2 0x343 PUSH2 0x1DBE JUMP JUMPDEST CALLVALUE DUP1 ISZERO PUSH2 0xA51 JUMPI PUSH1 0x0 DUP1 REVERT JUMPDEST POP PUSH2 0x3B4 PUSH2 0x1DC4 JUMP JUMPDEST PUSH1 0x24 SLOAD PUSH1 0x1 PUSH1 0x1 PUSH1 0xA0 SHL SUB AND DUP2 JUMP JUMPDEST PUSH1 0x2E SLOAD DUP2 JUMP JUMPDEST PUSH1 0x7 DUP1 SLOAD PUSH1 0x40 DUP1 MLOAD PUSH1 0x20 PUSH1 0x1F PUSH1 0x2 PUSH1 0x0 NOT PUSH2 0x100 PUSH1 0x1 DUP9 AND ISZERO MUL ADD SWAP1 SWAP6 AND SWAP5 SWAP1 SWAP5 DIV SWAP4 DUP5 ADD DUP2 SWAP1 DIV DUP2 MUL DUP3 ADD DUP2 ADD SWAP1 SWAP3 MSTORE DUP3 DUP2 MSTORE PUSH1 0x60 SWAP4 SWAP1 SWAP3 SWAP1 SWAP2 DUP4 ADD DUP3 DUP3 DUP1 ISZERO PUSH2 0xAFB JUMPI DUP1 PUSH1 0x1F LT PUSH2 0xAD0 JUMPI PUSH2 0x100 DUP1 DUP4 SLOAD DIV MUL DUP4 MSTORE SWAP2 PUSH1 0x20 ADD SWAP2 PUSH2 0xAFB JUMP JUMPDEST DUP3 ADD SWAP2 SWAP1 PUSH1 0x0 MSTORE PUSH1 0x20 PUSH1 0x0 KECCAK256 SWAP1 JUMPDEST DUP2 SLOAD DUP2 MSTORE SWAP1 PUSH1 0x1 ADD SWAP1 PUSH1 0x20 ADD DUP1 DUP4 GT PUSH2 0xADE JUMPI DUP3 SWAP1 SUB PUSH1 0x1F AND DUP3 ADD SWAP2 JUMPDEST POP POP POP POP POP SWAP1 POP SWAP1 JUMP JUMPDEST PUSH2 0xB0E CALLER PUSH2 0x12B0 JUMP JUMPDEST PUSH2 0xB33 JUMPI PUSH1 0x40 MLOAD PUSH3 0x461BCD PUSH1 0xE5 SHL DUP2 MSTORE PUSH1 0x4 ADD PUSH2 0xB2A SWAP1 PUSH2 0x31EC JUMP JUMPDEST PUSH1 0x40 MLOAD DUP1 SWAP2 SUB SWAP1 REVERT JUMPDEST PUSH2 0x3E8 DUP2 PUSH1 0xA SLOAD MUL DUP2 PUSH2 0xB42 JUMPI INVALID JUMPDEST DIV PUSH1 0xC SSTORE POP JUMP JUMPDEST CALLER PUSH1 0x0 DUP2 DUP2 MSTORE PUSH1 0xE PUSH1 0x20 SWAP1 DUP2 MSTORE PUSH1 0x40 DUP1 DUP4 KECCAK256 PUSH1 0x1 PUSH1 0x1 PUSH1 0xA0 SHL SUB DUP8 AND DUP1 DUP6 MSTORE SWAP3 MSTORE DUP1 DUP4 KECCAK256 DUP6 SWAP1 SSTORE MLOAD SWAP2 SWAP3 SWAP1 SWAP2 PUSH32 0x8C5BE1E5EBEC7D5BD14F71427D1E84F3DD0314C0F7B2291E5B200AC8C7C3B925 SWAP1 PUSH2 0xBA2 SWAP1 DUP7 SWAP1 PUSH2 0x32A2 JUMP JUMPDEST PUSH1 0x40 MLOAD DUP1 SWAP2 SUB SWAP1 LOG3 POP PUSH1 0x1 JUMPDEST SWAP3 SWAP2 POP POP JUMP JUMPDEST PUSH2 0xBBD CALLER PUSH2 0x12B0 JUMP JUMPDEST PUSH2 0xBD9 JUMPI PUSH1 0x40 MLOAD PUSH3 0x461BCD PUSH1 0xE5 SHL DUP2 MSTORE PUSH1 0x4 ADD PUSH2 0xB2A SWAP1 PUSH2 0x31EC JUMP JUMPDEST PUSH1 0x28 DUP1 SLOAD SWAP2 ISZERO ISZERO PUSH1 0x1 PUSH1 0xA0 SHL MUL PUSH1 0xFF PUSH1 0xA0 SHL NOT SWAP1 SWAP3 AND SWAP2 SWAP1 SWAP2 OR SWAP1 SSTORE JUMP JUMPDEST PUSH1 0x0 DUP3 PUSH2 0xC03 DUP4 PUSH2 0x1BD3 JUMP JUMPDEST GT SWAP4 SWAP3 POP POP POP JUMP JUMPDEST PUSH1 0x21 SLOAD DUP2 JUMP JUMPDEST PUSH1 0xA SLOAD SWAP1 JUMP JUMPDEST PUSH1 0x1F SLOAD DUP2 JUMP JUMPDEST PUSH2 0xC26 CALLER PUSH2 0x12B0 JUMP JUMPDEST PUSH2 0xC42 JUMPI PUSH1 0x40 MLOAD PUSH3 0x461BCD PUSH1 0xE5 SHL DUP2 MSTORE PUSH1 0x4 ADD PUSH2 0xB2A SWAP1 PUSH2 0x31EC JUMP JUMPDEST PUSH2 0x1F5 DUP4 LT PUSH2 0xC63 JUMPI PUSH1 0x40 MLOAD PUSH3 0x461BCD PUSH1 0xE5 SHL DUP2 MSTORE PUSH1 0x4 ADD PUSH2 0xB2A SWAP1 PUSH2 0x31B1 JUMP JUMPDEST DUP3 DUP2 EQ PUSH2 0xC82 JUMPI PUSH1 0x40 MLOAD PUSH3 0x461BCD PUSH1 0xE5 SHL DUP2 MSTORE PUSH1 0x4 ADD PUSH2 0xB2A SWAP1 PUSH2 0x2FC3 JUMP JUMPDEST PUSH1 0x0 DUP1 JUMPDEST DUP5 DUP2 LT ISZERO PUSH2 0xCB0 JUMPI DUP4 DUP4 DUP3 DUP2 DUP2 LT PUSH2 0xC9A JUMPI INVALID JUMPDEST PUSH1 0x20 MUL SWAP2 SWAP1 SWAP2 ADD CALLDATALOAD SWAP3 SWAP1 SWAP3 ADD SWAP2 POP PUSH1 0x1 ADD PUSH2 0xC86 JUMP JUMPDEST POP DUP1 PUSH2 0xCBB DUP8 PUSH2 0x17B4 JUMP JUMPDEST LT ISZERO PUSH2 0xCD9 JUMPI PUSH1 0x40 MLOAD PUSH3 0x461BCD PUSH1 0xE5 SHL DUP2 MSTORE PUSH1 0x4 ADD PUSH2 0xB2A SWAP1 PUSH2 0x30B0 JUMP JUMPDEST PUSH1 0x0 JUMPDEST DUP5 DUP2 LT ISZERO PUSH2 0xE7E JUMPI PUSH2 0xD21 DUP8 DUP8 DUP8 DUP5 DUP2 DUP2 LT PUSH2 0xCF4 JUMPI INVALID JUMPDEST SWAP1 POP PUSH1 0x20 MUL ADD PUSH1 0x20 DUP2 ADD SWAP1 PUSH2 0xD09 SWAP2 SWAP1 PUSH2 0x2B57 JUMP JUMPDEST DUP7 DUP7 DUP6 DUP2 DUP2 LT PUSH2 0xD15 JUMPI INVALID JUMPDEST SWAP1 POP PUSH1 0x20 MUL ADD CALLDATALOAD PUSH2 0x1DD4 JUMP JUMPDEST POP PUSH1 0x11 PUSH1 0x0 DUP8 DUP8 DUP5 DUP2 DUP2 LT PUSH2 0xD32 JUMPI INVALID JUMPDEST SWAP1 POP PUSH1 0x20 MUL ADD PUSH1 0x20 DUP2 ADD SWAP1 PUSH2 0xD47 SWAP2 SWAP1 PUSH2 0x2B57 JUMP JUMPDEST PUSH1 0x1 PUSH1 0x1 PUSH1 0xA0 SHL SUB AND DUP2 MSTORE PUSH1 0x20 DUP2 ADD SWAP2 SWAP1 SWAP2 MSTORE PUSH1 0x40 ADD PUSH1 0x0 KECCAK256 SLOAD PUSH1 0xFF AND ISZERO DUP1 PUSH2 0xDAF JUMPI POP PUSH1 0x13 PUSH1 0x0 DUP8 DUP8 DUP5 DUP2 DUP2 LT PUSH2 0xD7B JUMPI INVALID JUMPDEST SWAP1 POP PUSH1 0x20 MUL ADD PUSH1 0x20 DUP2 ADD SWAP1 PUSH2 0xD90 SWAP2 SWAP1 PUSH2 0x2B57 JUMP JUMPDEST PUSH1 0x1 PUSH1 0x1 PUSH1 0xA0 SHL SUB AND DUP2 MSTORE PUSH1 0x20 DUP2 ADD SWAP2 SWAP1 SWAP2 MSTORE PUSH1 0x40 ADD PUSH1 0x0 KECCAK256 SLOAD PUSH1 0xFF AND ISZERO JUMPDEST ISZERO PUSH2 0xE76 JUMPI PUSH1 0x29 SLOAD PUSH1 0x1 PUSH1 0x1 PUSH1 0xA0 SHL SUB AND PUSH4 0x14B6CA96 DUP8 DUP8 DUP5 DUP2 DUP2 LT PUSH2 0xDD1 JUMPI INVALID JUMPDEST SWAP1 POP PUSH1 0x20 MUL ADD PUSH1 0x20 DUP2 ADD SWAP1 PUSH2 0xDE6 SWAP2 SWAP1 PUSH2 0x2B57 JUMP JUMPDEST PUSH1 0xD PUSH1 0x0 DUP11 DUP11 DUP8 DUP2 DUP2 LT PUSH2 0xDF6 JUMPI INVALID JUMPDEST SWAP1 POP PUSH1 0x20 MUL ADD PUSH1 0x20 DUP2 ADD SWAP1 PUSH2 0xE0B SWAP2 SWAP1 PUSH2 0x2B57 JUMP JUMPDEST PUSH1 0x1 PUSH1 0x1 PUSH1 0xA0 SHL SUB AND PUSH1 0x1 PUSH1 0x1 PUSH1 0xA0 SHL SUB AND DUP2 MSTORE PUSH1 0x20 ADD SWAP1 DUP2 MSTORE PUSH1 0x20 ADD PUSH1 0x0 KECCAK256 SLOAD PUSH1 0x40 MLOAD DUP4 PUSH4 0xFFFFFFFF AND PUSH1 0xE0 SHL DUP2 MSTORE PUSH1 0x4 ADD PUSH2 0xE49 SWAP3 SWAP2 SWAP1 PUSH2 0x2F17 JUMP JUMPDEST PUSH1 0x0 PUSH1 0x40 MLOAD DUP1 DUP4 SUB DUP2 PUSH1 0x0 DUP8 DUP1 EXTCODESIZE ISZERO DUP1 ISZERO PUSH2 0xE63 JUMPI PUSH1 0x0 DUP1 REVERT JUMPDEST POP GAS CALL SWAP3 POP POP POP DUP1 ISZERO PUSH2 0xE74 JUMPI POP PUSH1 0x1 JUMPDEST POP JUMPDEST PUSH1 0x1 ADD PUSH2 0xCDC JUMP JUMPDEST POP PUSH1 0x1 PUSH1 0x1 PUSH1 0xA0 SHL SUB DUP7 AND PUSH1 0x0 SWAP1 DUP2 MSTORE PUSH1 0x11 PUSH1 0x20 MSTORE PUSH1 0x40 SWAP1 KECCAK256 SLOAD PUSH1 0xFF AND ISZERO DUP1 PUSH2 0xEC0 JUMPI POP PUSH1 0x1 PUSH1 0x1 PUSH1 0xA0 SHL SUB DUP7 AND PUSH1 0x0 SWAP1 DUP2 MSTORE PUSH1 0x13 PUSH1 0x20 MSTORE PUSH1 0x40 SWAP1 KECCAK256 SLOAD PUSH1 0xFF AND ISZERO JUMPDEST ISZERO PUSH2 0xF36 JUMPI PUSH1 0x29 SLOAD PUSH1 0x1 PUSH1 0x1 PUSH1 0xA0 SHL SUB DUP8 DUP2 AND PUSH1 0x0 SWAP1 DUP2 MSTORE PUSH1 0xD PUSH1 0x20 MSTORE PUSH1 0x40 SWAP1 DUP2 SWAP1 KECCAK256 SLOAD SWAP1 MLOAD PUSH4 0xA5B654B PUSH1 0xE1 SHL DUP2 MSTORE SWAP2 SWAP1 SWAP3 AND SWAP2 PUSH4 0x14B6CA96 SWAP2 PUSH2 0xF09 SWAP2 DUP11 SWAP2 PUSH1 0x4 ADD PUSH2 0x2F17 JUMP JUMPDEST PUSH1 0x0 PUSH1 0x40 MLOAD DUP1 DUP4 SUB DUP2 PUSH1 0x0 DUP8 DUP1 EXTCODESIZE ISZERO DUP1 ISZERO PUSH2 0xF23 JUMPI PUSH1 0x0 DUP1 REVERT JUMPDEST POP GAS CALL SWAP3 POP POP POP DUP1 ISZERO PUSH2 0xF34 JUMPI POP PUSH1 0x1 JUMPDEST POP JUMPDEST POP POP POP POP POP POP JUMP JUMPDEST PUSH2 0xF47 CALLER PUSH2 0x1DA0 JUMP JUMPDEST PUSH2 0xF63 JUMPI PUSH1 0x40 MLOAD PUSH3 0x461BCD PUSH1 0xE5 SHL DUP2 MSTORE PUSH1 0x4 ADD PUSH2 0xB2A SWAP1 PUSH2 0x3242 JUMP JUMPDEST PUSH1 0x40 DUP1 MLOAD PUSH1 0x2 DUP1 DUP3 MSTORE PUSH1 0x60 DUP3 ADD DUP4 MSTORE SELFBALANCE SWAP3 PUSH1 0x64 DUP6 DUP6 MUL DIV SWAP3 PUSH1 0x0 SWAP3 SWAP1 SWAP2 PUSH1 0x20 DUP4 ADD SWAP1 DUP1 CALLDATASIZE DUP4 CALLDATACOPY POP POP PUSH1 0x2 SLOAD DUP3 MLOAD SWAP3 SWAP4 POP PUSH1 0x1 PUSH1 0x1 PUSH1 0xA0 SHL SUB AND SWAP2 DUP4 SWAP2 POP PUSH1 0x0 SWAP1 PUSH2 0xFA9 JUMPI INVALID JUMPDEST PUSH1 0x1 PUSH1 0x1 PUSH1 0xA0 SHL SUB SWAP3 DUP4 AND PUSH1 0x20 SWAP2 DUP3 MUL SWAP3 SWAP1 SWAP3 ADD ADD MSTORE PUSH1 0x6 SLOAD DUP3 MLOAD SWAP2 AND SWAP1 DUP3 SWAP1 PUSH1 0x1 SWAP1 DUP2 LT PUSH2 0xFD4 JUMPI INVALID JUMPDEST PUSH1 0x1 PUSH1 0x1 PUSH1 0xA0 SHL SUB SWAP3 DUP4 AND PUSH1 0x20 SWAP2 DUP3 MUL SWAP3 SWAP1 SWAP3 ADD ADD MSTORE PUSH1 0x27 SLOAD PUSH1 0x24 SLOAD PUSH1 0x40 MLOAD PUSH4 0xB6F9DE95 PUSH1 0xE0 SHL DUP2 MSTORE SWAP2 DUP4 AND SWAP3 PUSH4 0xB6F9DE95 SWAP3 DUP7 SWAP3 PUSH2 0x1020 SWAP3 PUSH1 0x0 SWAP3 DUP9 SWAP3 SWAP1 SWAP2 AND SWAP1 TIMESTAMP SWAP1 PUSH1 0x4 ADD PUSH2 0x2F3B JUMP JUMPDEST PUSH1 0x0 PUSH1 0x40 MLOAD DUP1 DUP4 SUB DUP2 DUP6 DUP9 DUP1 EXTCODESIZE ISZERO DUP1 ISZERO PUSH2 0x1039 JUMPI PUSH1 0x0 DUP1 REVERT JUMPDEST POP GAS CALL ISZERO DUP1 ISZERO PUSH2 0x104D JUMPI RETURNDATASIZE PUSH1 0x0 DUP1 RETURNDATACOPY RETURNDATASIZE PUSH1 0x0 REVERT JUMPDEST POP POP POP POP POP POP POP POP POP JUMP JUMPDEST PUSH2 0x1061 CALLER PUSH2 0x1DA0 JUMP JUMPDEST PUSH2 0x107D JUMPI PUSH1 0x40 MLOAD PUSH3 0x461BCD PUSH1 0xE5 SHL DUP2 MSTORE PUSH1 0x4 ADD PUSH2 0xB2A SWAP1 PUSH2 0x3242 JUMP JUMPDEST PUSH1 0x25 SWAP2 SWAP1 SWAP2 SSTORE PUSH1 0x26 SSTORE JUMP JUMPDEST PUSH1 0x1 PUSH1 0x1 PUSH1 0xA0 SHL SUB DUP4 AND PUSH1 0x0 SWAP1 DUP2 MSTORE PUSH1 0xE PUSH1 0x20 SWAP1 DUP2 MSTORE PUSH1 0x40 DUP1 DUP4 KECCAK256 CALLER DUP5 MSTORE SWAP1 SWAP2 MSTORE DUP2 KECCAK256 SLOAD ISZERO PUSH2 0x1132 JUMPI PUSH1 0x40 DUP1 MLOAD DUP1 DUP3 ADD DUP3 MSTORE PUSH1 0x16 DUP2 MSTORE PUSH22 0x496E73756666696369656E7420416C6C6F77616E6365 PUSH1 0x50 SHL PUSH1 0x20 DUP1 DUP4 ADD SWAP2 SWAP1 SWAP2 MSTORE PUSH1 0x1 PUSH1 0x1 PUSH1 0xA0 SHL SUB DUP8 AND PUSH1 0x0 SWAP1 DUP2 MSTORE PUSH1 0xE DUP3 MSTORE DUP4 DUP2 KECCAK256 CALLER DUP3 MSTORE SWAP1 SWAP2 MSTORE SWAP2 SWAP1 SWAP2 KECCAK256 SLOAD PUSH2 0x110D SWAP2 DUP5 SWAP1 PUSH2 0x1EA6 JUMP JUMPDEST PUSH1 0x1 PUSH1 0x1 PUSH1 0xA0 SHL SUB DUP6 AND PUSH1 0x0 SWAP1 DUP2 MSTORE PUSH1 0xE PUSH1 0x20 SWAP1 DUP2 MSTORE PUSH1 0x40 DUP1 DUP4 KECCAK256 CALLER DUP5 MSTORE SWAP1 SWAP2 MSTORE SWAP1 KECCAK256 SSTORE JUMPDEST PUSH2 0x113D DUP5 DUP5 DUP5 PUSH2 0x1ED2 JUMP JUMPDEST SWAP1 POP JUMPDEST SWAP4 SWAP3 POP POP POP JUMP JUMPDEST PUSH2 0x1150 CALLER PUSH2 0x1DA0 JUMP JUMPDEST PUSH2 0x116C JUMPI PUSH1 0x40 MLOAD PUSH3 0x461BCD PUSH1 0xE5 SHL DUP2 MSTORE PUSH1 0x4 ADD PUSH2 0xB2A SWAP1 PUSH2 0x3242 JUMP JUMPDEST PUSH1 0x1 PUSH1 0x1 PUSH1 0xA0 SHL SUB SWAP2 SWAP1 SWAP2 AND PUSH1 0x0 SWAP1 DUP2 MSTORE PUSH1 0x13 PUSH1 0x20 MSTORE PUSH1 0x40 SWAP1 KECCAK256 DUP1 SLOAD PUSH1 0xFF NOT AND SWAP2 ISZERO ISZERO SWAP2 SWAP1 SWAP2 OR SWAP1 SSTORE JUMP JUMPDEST PUSH1 0x4 SLOAD PUSH1 0x0 SWAP1 PUSH2 0x11DB SWAP1 PUSH2 0x11B3 SWAP1 PUSH1 0x1 PUSH1 0x1 PUSH1 0xA0 SHL SUB AND PUSH2 0x17B4 JUMP JUMPDEST PUSH1 0x3 SLOAD PUSH2 0x11D5 SWAP1 PUSH2 0x11CC SWAP1 PUSH1 0x1 PUSH1 0x1 PUSH1 0xA0 SHL SUB AND PUSH2 0x17B4 JUMP JUMPDEST PUSH1 0xA SLOAD SWAP1 PUSH2 0x23E6 JUMP JUMPDEST SWAP1 PUSH2 0x23E6 JUMP JUMPDEST SWAP1 POP SWAP1 JUMP JUMPDEST PUSH2 0x11E9 CALLER PUSH2 0x1DA0 JUMP JUMPDEST PUSH2 0x1205 JUMPI PUSH1 0x40 MLOAD PUSH3 0x461BCD PUSH1 0xE5 SHL DUP2 MSTORE PUSH1 0x4 ADD PUSH2 0xB2A SWAP1 PUSH2 0x3242 JUMP JUMPDEST PUSH1 0x29 SLOAD PUSH1 0x40 MLOAD PUSH4 0x16A4744B PUSH1 0xE1 SHL DUP2 MSTORE PUSH1 0x1 PUSH1 0x1 PUSH1 0xA0 SHL SUB SWAP1 SWAP2 AND SWAP1 PUSH4 0x2D48E896 SWAP1 PUSH2 0x1237 SWAP1 DUP6 SWAP1 DUP6 SWAP1 PUSH1 0x4 ADD PUSH2 0x32E7 JUMP JUMPDEST PUSH1 0x0 PUSH1 0x40 MLOAD DUP1 DUP4 SUB DUP2 PUSH1 0x0 DUP8 DUP1 EXTCODESIZE ISZERO DUP1 ISZERO PUSH2 0x1251 JUMPI PUSH1 0x0 DUP1 REVERT JUMPDEST POP GAS CALL ISZERO DUP1 ISZERO PUSH2 0xF36 JUMPI RETURNDATASIZE PUSH1 0x0 DUP1 RETURNDATACOPY RETURNDATASIZE PUSH1 0x0 REVERT JUMPDEST PUSH2 0x126E CALLER PUSH2 0x12B0 JUMP JUMPDEST PUSH2 0x128A JUMPI PUSH1 0x40 MLOAD PUSH3 0x461BCD PUSH1 0xE5 SHL DUP2 MSTORE PUSH1 0x4 ADD PUSH2 0xB2A SWAP1 PUSH2 0x31EC JUMP JUMPDEST PUSH1 0x2B DUP1 SLOAD PUSH1 0xFF NOT AND SWAP3 ISZERO ISZERO SWAP3 SWAP1 SWAP3 OR PUSH2 0xFF00 NOT AND PUSH2 0x100 PUSH1 0xFF SWAP3 SWAP1 SWAP3 AND SWAP2 SWAP1 SWAP2 MUL OR SWAP1 SSTORE JUMP JUMPDEST PUSH1 0x0 SLOAD PUSH1 0x1 PUSH1 0x1 PUSH1 0xA0 SHL SUB DUP3 DUP2 AND SWAP2 AND EQ JUMPDEST SWAP2 SWAP1 POP JUMP JUMPDEST PUSH1 0x9 SLOAD PUSH1 0xFF AND SWAP1 JUMP JUMPDEST PUSH1 0x1A SLOAD DUP2 JUMP JUMPDEST PUSH2 0x12DF CALLER PUSH2 0x12B0 JUMP JUMPDEST PUSH2 0x12FB JUMPI PUSH1 0x40 MLOAD PUSH3 0x461BCD PUSH1 0xE5 SHL DUP2 MSTORE PUSH1 0x4 ADD PUSH2 0xB2A SWAP1 PUSH2 0x31EC JUMP JUMPDEST PUSH2 0x321 DUP3 LT PUSH2 0x131C JUMPI PUSH1 0x40 MLOAD PUSH3 0x461BCD PUSH1 0xE5 SHL DUP2 MSTORE PUSH1 0x4 ADD PUSH2 0xB2A SWAP1 PUSH2 0x3267 JUMP JUMPDEST DUP1 DUP3 MUL DUP1 PUSH2 0x1329 DUP7 PUSH2 0x17B4 JUMP JUMPDEST LT ISZERO PUSH2 0x1347 JUMPI PUSH1 0x40 MLOAD PUSH3 0x461BCD PUSH1 0xE5 SHL DUP2 MSTORE PUSH1 0x4 ADD PUSH2 0xB2A SWAP1 PUSH2 0x30B0 JUMP JUMPDEST PUSH1 0x0 JUMPDEST DUP4 DUP2 LT ISZERO PUSH2 0x14DA JUMPI PUSH2 0x137D DUP7 DUP7 DUP7 DUP5 DUP2 DUP2 LT PUSH2 0x1362 JUMPI INVALID JUMPDEST SWAP1 POP PUSH1 0x20 MUL ADD PUSH1 0x20 DUP2 ADD SWAP1 PUSH2 0x1377 SWAP2 SWAP1 PUSH2 0x2B57 JUMP JUMPDEST DUP6 PUSH2 0x1DD4 JUMP JUMPDEST POP PUSH1 0x11 PUSH1 0x0 DUP7 DUP7 DUP5 DUP2 DUP2 LT PUSH2 0x138E JUMPI INVALID JUMPDEST SWAP1 POP PUSH1 0x20 MUL ADD PUSH1 0x20 DUP2 ADD SWAP1 PUSH2 0x13A3 SWAP2 SWAP1 PUSH2 0x2B57 JUMP JUMPDEST PUSH1 0x1 PUSH1 0x1 PUSH1 0xA0 SHL SUB AND DUP2 MSTORE PUSH1 0x20 DUP2 ADD SWAP2 SWAP1 SWAP2 MSTORE PUSH1 0x40 ADD PUSH1 0x0 KECCAK256 SLOAD PUSH1 0xFF AND ISZERO DUP1 PUSH2 0x140B JUMPI POP PUSH1 0x13 PUSH1 0x0 DUP7 DUP7 DUP5 DUP2 DUP2 LT PUSH2 0x13D7 JUMPI INVALID JUMPDEST SWAP1 POP PUSH1 0x20 MUL ADD PUSH1 0x20 DUP2 ADD SWAP1 PUSH2 0x13EC SWAP2 SWAP1 PUSH2 0x2B57 JUMP JUMPDEST PUSH1 0x1 PUSH1 0x1 PUSH1 0xA0 SHL SUB AND DUP2 MSTORE PUSH1 0x20 DUP2 ADD SWAP2 SWAP1 SWAP2 MSTORE PUSH1 0x40 ADD PUSH1 0x0 KECCAK256 SLOAD PUSH1 0xFF AND ISZERO JUMPDEST ISZERO PUSH2 0x14D2 JUMPI PUSH1 0x29 SLOAD PUSH1 0x1 PUSH1 0x1 PUSH1 0xA0 SHL SUB AND PUSH4 0x14B6CA96 DUP7 DUP7 DUP5 DUP2 DUP2 LT PUSH2 0x142D JUMPI INVALID JUMPDEST SWAP1 POP PUSH1 0x20 MUL ADD PUSH1 0x20 DUP2 ADD SWAP1 PUSH2 0x1442 SWAP2 SWAP1 PUSH2 0x2B57 JUMP JUMPDEST PUSH1 0xD PUSH1 0x0 DUP10 DUP10 DUP8 DUP2 DUP2 LT PUSH2 0x1452 JUMPI INVALID JUMPDEST SWAP1 POP PUSH1 0x20 MUL ADD PUSH1 0x20 DUP2 ADD SWAP1 PUSH2 0x1467 SWAP2 SWAP1 PUSH2 0x2B57 JUMP JUMPDEST PUSH1 0x1 PUSH1 0x1 PUSH1 0xA0 SHL SUB AND PUSH1 0x1 PUSH1 0x1 PUSH1 0xA0 SHL SUB AND DUP2 MSTORE PUSH1 0x20 ADD SWAP1 DUP2 MSTORE PUSH1 0x20 ADD PUSH1 0x0 KECCAK256 SLOAD PUSH1 0x40 MLOAD DUP4 PUSH4 0xFFFFFFFF AND PUSH1 0xE0 SHL DUP2 MSTORE PUSH1 0x4 ADD PUSH2 0x14A5 SWAP3 SWAP2 SWAP1 PUSH2 0x2F17 JUMP JUMPDEST PUSH1 0x0 PUSH1 0x40 MLOAD DUP1 DUP4 SUB DUP2 PUSH1 0x0 DUP8 DUP1 EXTCODESIZE ISZERO DUP1 ISZERO PUSH2 0x14BF JUMPI PUSH1 0x0 DUP1 REVERT JUMPDEST POP GAS CALL SWAP3 POP POP POP DUP1 ISZERO PUSH2 0x14D0 JUMPI POP PUSH1 0x1 JUMPDEST POP JUMPDEST PUSH1 0x1 ADD PUSH2 0x134A JUMP JUMPDEST POP PUSH1 0x1 PUSH1 0x1 PUSH1 0xA0 SHL SUB DUP6 AND PUSH1 0x0 SWAP1 DUP2 MSTORE PUSH1 0x11 PUSH1 0x20 MSTORE PUSH1 0x40 SWAP1 KECCAK256 SLOAD PUSH1 0xFF AND ISZERO DUP1 PUSH2 0x151C JUMPI POP PUSH1 0x1 PUSH1 0x1 PUSH1 0xA0 SHL SUB DUP6 AND PUSH1 0x0 SWAP1 DUP2 MSTORE PUSH1 0x13 PUSH1 0x20 MSTORE PUSH1 0x40 SWAP1 KECCAK256 SLOAD PUSH1 0xFF AND ISZERO JUMPDEST ISZERO PUSH2 0x158E JUMPI PUSH1 0x29 SLOAD PUSH1 0x1 PUSH1 0x1 PUSH1 0xA0 SHL SUB DUP7 DUP2 AND PUSH1 0x0 SWAP1 DUP2 MSTORE PUSH1 0xD PUSH1 0x20 MSTORE PUSH1 0x40 SWAP1 DUP2 SWAP1 KECCAK256 SLOAD SWAP1 MLOAD PUSH4 0xA5B654B PUSH1 0xE1 SHL DUP2 MSTORE SWAP2 SWAP1 SWAP3 AND SWAP2 PUSH4 0x14B6CA96 SWAP2 PUSH2 0x1565 SWAP2 DUP10 SWAP2 PUSH1 0x4 ADD PUSH2 0x2F17 JUMP JUMPDEST PUSH1 0x0 PUSH1 0x40 MLOAD DUP1 DUP4 SUB DUP2 PUSH1 0x0 DUP8 DUP1 EXTCODESIZE ISZERO DUP1 ISZERO PUSH2 0x157F JUMPI PUSH1 0x0 DUP1 REVERT JUMPDEST POP GAS CALL SWAP3 POP POP POP DUP1 ISZERO PUSH2 0xF36 JUMPI POP JUMPDEST POP POP POP POP POP JUMP JUMPDEST PUSH2 0x159E CALLER PUSH2 0x1DA0 JUMP JUMPDEST PUSH2 0x15BA JUMPI PUSH1 0x40 MLOAD PUSH3 0x461BCD PUSH1 0xE5 SHL DUP2 MSTORE PUSH1 0x4 ADD PUSH2 0xB2A SWAP1 PUSH2 0x3242 JUMP JUMPDEST PUSH1 0x1 PUSH1 0x1 PUSH1 0xA0 SHL SUB SWAP2 SWAP1 SWAP2 AND PUSH1 0x0 SWAP1 DUP2 MSTORE PUSH1 0x12 PUSH1 0x20 MSTORE PUSH1 0x40 SWAP1 KECCAK256 DUP1 SLOAD PUSH1 0xFF NOT AND SWAP2 ISZERO ISZERO SWAP2 SWAP1 SWAP2 OR SWAP1 SSTORE JUMP JUMPDEST PUSH2 0x15EE CALLER PUSH2 0x1DA0 JUMP JUMPDEST PUSH2 0x160A JUMPI PUSH1 0x40 MLOAD PUSH3 0x461BCD PUSH1 0xE5 SHL DUP2 MSTORE PUSH1 0x4 ADD PUSH2 0xB2A SWAP1 PUSH2 0x3242 JUMP JUMPDEST PUSH1 0x1 PUSH1 0x1 PUSH1 0xA0 SHL SUB DUP3 AND ADDRESS EQ DUP1 ISZERO SWAP1 PUSH2 0x1631 JUMPI POP PUSH1 0x28 SLOAD PUSH1 0x1 PUSH1 0x1 PUSH1 0xA0 SHL SUB DUP4 DUP2 AND SWAP2 AND EQ ISZERO JUMPDEST PUSH2 0x163A JUMPI PUSH1 0x0 DUP1 REVERT JUMPDEST PUSH1 0x1 PUSH1 0x1 PUSH1 0xA0 SHL SUB DUP3 AND PUSH1 0x0 SWAP1 DUP2 MSTORE PUSH1 0x11 PUSH1 0x20 MSTORE PUSH1 0x40 SWAP1 KECCAK256 DUP1 SLOAD PUSH1 0xFF NOT AND DUP3 ISZERO DUP1 ISZERO SWAP2 SWAP1 SWAP2 OR SWAP1 SWAP2 SSTORE PUSH2 0x16D1 JUMPI PUSH1 0x29 SLOAD PUSH1 0x40 MLOAD PUSH4 0xA5B654B PUSH1 0xE1 SHL DUP2 MSTORE PUSH1 0x1 PUSH1 0x1 PUSH1 0xA0 SHL SUB SWAP1 SWAP2 AND SWAP1 PUSH4 0x14B6CA96 SWAP1 PUSH2 0x169A SWAP1 DUP6 SWAP1 PUSH1 0x0 SWAP1 PUSH1 0x4 ADD PUSH2 0x2F17 JUMP JUMPDEST PUSH1 0x0 PUSH1 0x40 MLOAD DUP1 DUP4 SUB DUP2 PUSH1 0x0 DUP8 DUP1 EXTCODESIZE ISZERO DUP1 ISZERO PUSH2 0x16B4 JUMPI PUSH1 0x0 DUP1 REVERT JUMPDEST POP GAS CALL ISZERO DUP1 ISZERO PUSH2 0x16C8 JUMPI RETURNDATASIZE PUSH1 0x0 DUP1 RETURNDATACOPY RETURNDATASIZE PUSH1 0x0 REVERT JUMPDEST POP POP POP POP PUSH2 0x1715 JUMP JUMPDEST PUSH1 0x29 SLOAD PUSH1 0x1 PUSH1 0x1 PUSH1 0xA0 SHL SUB DUP4 DUP2 AND PUSH1 0x0 SWAP1 DUP2 MSTORE PUSH1 0xD PUSH1 0x20 MSTORE PUSH1 0x40 SWAP1 DUP2 SWAP1 KECCAK256 SLOAD SWAP1 MLOAD PUSH4 0xA5B654B PUSH1 0xE1 SHL DUP2 MSTORE SWAP2 SWAP1 SWAP3 AND SWAP2 PUSH4 0x14B6CA96 SWAP2 PUSH2 0x1237 SWAP2 DUP7 SWAP2 PUSH1 0x4 ADD PUSH2 0x2F17 JUMP JUMPDEST POP POP JUMP JUMPDEST PUSH2 0x1722 CALLER PUSH2 0x1DA0 JUMP JUMPDEST PUSH2 0x173E JUMPI PUSH1 0x40 MLOAD PUSH3 0x461BCD PUSH1 0xE5 SHL DUP2 MSTORE PUSH1 0x4 ADD PUSH2 0xB2A SWAP1 PUSH2 0x3242 JUMP JUMPDEST PUSH1 0x40 MLOAD SELFBALANCE SWAP1 CALLER SWAP1 PUSH1 0x64 DUP5 DUP5 MUL DIV DUP1 ISZERO PUSH2 0x8FC MUL SWAP2 PUSH1 0x0 DUP2 DUP2 DUP2 DUP6 DUP9 DUP9 CALL SWAP4 POP POP POP POP ISZERO DUP1 ISZERO PUSH2 0x1771 JUMPI RETURNDATASIZE PUSH1 0x0 DUP1 RETURNDATACOPY RETURNDATASIZE PUSH1 0x0 REVERT JUMPDEST POP POP POP JUMP JUMPDEST PUSH1 0x1E SLOAD DUP2 JUMP JUMPDEST PUSH1 0x18 SLOAD DUP2 JUMP JUMPDEST PUSH1 0x0 PUSH2 0xBAE DUP3 PUSH1 0x0 NOT PUSH2 0xB49 JUMP JUMPDEST PUSH1 0x1C SLOAD DUP2 JUMP JUMPDEST PUSH1 0x1D SLOAD DUP2 JUMP JUMPDEST PUSH1 0x2B SLOAD PUSH1 0xFF AND DUP2 JUMP JUMPDEST PUSH1 0x17 SLOAD DUP2 JUMP JUMPDEST PUSH1 0x2D SLOAD PUSH1 0xFF AND DUP2 JUMP JUMPDEST PUSH1 0x1 PUSH1 0x1 PUSH1 0xA0 SHL SUB AND PUSH1 0x0 SWAP1 DUP2 MSTORE PUSH1 0xD PUSH1 0x20 MSTORE PUSH1 0x40 SWAP1 KECCAK256 SLOAD SWAP1 JUMP JUMPDEST PUSH1 0x2B SLOAD PUSH2 0x100 SWAP1 DIV PUSH1 0xFF AND DUP2 JUMP JUMPDEST PUSH1 0xC SLOAD DUP2 JUMP JUMPDEST PUSH1 0xB SLOAD DUP2 JUMP JUMPDEST PUSH2 0x17F2 CALLER PUSH2 0x1DA0 JUMP JUMPDEST PUSH2 0x180E JUMPI PUSH1 0x40 MLOAD PUSH3 0x461BCD PUSH1 0xE5 SHL DUP2 MSTORE PUSH1 0x4 ADD PUSH2 0xB2A SWAP1 PUSH2 0x3242 JUMP JUMPDEST PUSH1 0x1 PUSH1 0x1 PUSH1 0xA0 SHL SUB SWAP2 SWAP1 SWAP2 AND PUSH1 0x0 SWAP1 DUP2 MSTORE PUSH1 0x10 PUSH1 0x20 MSTORE PUSH1 0x40 SWAP1 KECCAK256 DUP1 SLOAD PUSH1 0xFF NOT AND SWAP2 ISZERO ISZERO SWAP2 SWAP1 SWAP2 OR SWAP1 SSTORE JUMP JUMPDEST PUSH1 0x0 SLOAD PUSH1 0x1 PUSH1 0x1 PUSH1 0xA0 SHL SUB AND SWAP1 JUMP JUMPDEST PUSH1 0x8 DUP1 SLOAD PUSH1 0x40 DUP1 MLOAD PUSH1 0x20 PUSH1 0x1F PUSH1 0x2 PUSH1 0x0 NOT PUSH2 0x100 PUSH1 0x1 DUP9 AND ISZERO MUL ADD SWAP1 SWAP6 AND SWAP5 SWAP1 SWAP5 DIV SWAP4 DUP5 ADD DUP2 SWAP1 DIV DUP2 MUL DUP3 ADD DUP2 ADD SWAP1 SWAP3 MSTORE DUP3 DUP2 MSTORE PUSH1 0x60 SWAP4 SWAP1 SWAP3 SWAP1 SWAP2 DUP4 ADD DUP3 DUP3 DUP1 ISZERO PUSH2 0xAFB JUMPI DUP1 PUSH1 0x1F LT PUSH2 0xAD0 JUMPI PUSH2 0x100 DUP1 DUP4 SLOAD DIV MUL DUP4 MSTORE SWAP2 PUSH1 0x20 ADD SWAP2 PUSH2 0xAFB JUMP JUMPDEST PUSH2 0x18B2 CALLER PUSH2 0x1DA0 JUMP JUMPDEST PUSH2 0x18CE JUMPI PUSH1 0x40 MLOAD PUSH3 0x461BCD PUSH1 0xE5 SHL DUP2 MSTORE PUSH1 0x4 ADD PUSH2 0xB2A SWAP1 PUSH2 0x3242 JUMP JUMPDEST PUSH3 0xB71B0 DUP2 LT PUSH2 0x18DD JUMPI PUSH1 0x0 DUP1 REVERT JUMPDEST PUSH1 0x2A SSTORE JUMP JUMPDEST PUSH1 0x16 SLOAD DUP2 JUMP JUMPDEST PUSH2 0x18F1 CALLER PUSH2 0x1DA0 JUMP JUMPDEST PUSH2 0x190D JUMPI PUSH1 0x40 MLOAD PUSH3 0x461BCD PUSH1 0xE5 SHL DUP2 MSTORE PUSH1 0x4 ADD PUSH2 0xB2A SWAP1 PUSH2 0x3242 JUMP JUMPDEST PUSH1 0x23 DUP1 SLOAD PUSH1 0x1 PUSH1 0x1 PUSH1 0xA0 SHL SUB SWAP4 DUP5 AND PUSH1 0x1 PUSH1 0x1 PUSH1 0xA0 SHL SUB NOT SWAP2 DUP3 AND OR SWAP1 SWAP2 SSTORE PUSH1 0x24 DUP1 SLOAD SWAP3 SWAP1 SWAP4 AND SWAP2 AND OR SWAP1 SSTORE JUMP JUMPDEST PUSH1 0x28 SLOAD PUSH1 0x1 PUSH1 0x1 PUSH1 0xA0 SHL SUB AND DUP2 JUMP JUMPDEST PUSH1 0x0 PUSH2 0x1140 CALLER DUP5 DUP5 PUSH2 0x1ED2 JUMP JUMPDEST PUSH2 0x1960 CALLER PUSH2 0x1DA0 JUMP JUMPDEST PUSH2 0x197C JUMPI PUSH1 0x40 MLOAD PUSH3 0x461BCD PUSH1 0xE5 SHL DUP2 MSTORE PUSH1 0x4 ADD PUSH2 0xB2A SWAP1 PUSH2 0x3242 JUMP JUMPDEST PUSH1 0x1 PUSH1 0x1 PUSH1 0xA0 SHL SUB SWAP2 SWAP1 SWAP2 AND PUSH1 0x0 SWAP1 DUP2 MSTORE PUSH1 0x15 PUSH1 0x20 MSTORE PUSH1 0x40 SWAP1 KECCAK256 DUP1 SLOAD PUSH1 0xFF NOT AND SWAP2 ISZERO ISZERO SWAP2 SWAP1 SWAP2 OR SWAP1 SSTORE JUMP JUMPDEST PUSH2 0x19B0 CALLER PUSH2 0x1DA0 JUMP JUMPDEST PUSH2 0x19CC JUMPI PUSH1 0x40 MLOAD PUSH3 0x461BCD PUSH1 0xE5 SHL DUP2 MSTORE PUSH1 0x4 ADD PUSH2 0xB2A SWAP1 PUSH2 0x3242 JUMP JUMPDEST PUSH1 0x1 PUSH1 0x1 PUSH1 0xA0 SHL SUB SWAP2 SWAP1 SWAP2 AND PUSH1 0x0 SWAP1 DUP2 MSTORE PUSH1 0xF PUSH1 0x20 MSTORE PUSH1 0x40 SWAP1 KECCAK256 DUP1 SLOAD PUSH1 0xFF NOT AND SWAP2 ISZERO ISZERO SWAP2 SWAP1 SWAP2 OR SWAP1 SSTORE JUMP JUMPDEST PUSH2 0x1A00 CALLER PUSH2 0x12B0 JUMP JUMPDEST PUSH2 0x1A1C JUMPI PUSH1 0x40 MLOAD PUSH3 0x461BCD PUSH1 0xE5 SHL DUP2 MSTORE PUSH1 0x4 ADD PUSH2 0xB2A SWAP1 PUSH2 0x31EC JUMP JUMPDEST PUSH1 0x1 PUSH1 0x1 PUSH1 0xA0 SHL SUB AND PUSH1 0x0 SWAP1 DUP2 MSTORE PUSH1 0x1 PUSH1 0x20 DUP2 SWAP1 MSTORE PUSH1 0x40 SWAP1 SWAP2 KECCAK256 DUP1 SLOAD PUSH1 0xFF NOT AND SWAP1 SWAP2 OR SWAP1 SSTORE JUMP JUMPDEST PUSH2 0x1A4C CALLER PUSH2 0x1DA0 JUMP JUMPDEST PUSH2 0x1A68 JUMPI PUSH1 0x40 MLOAD PUSH3 0x461BCD PUSH1 0xE5 SHL DUP2 MSTORE PUSH1 0x4 ADD PUSH2 0xB2A SWAP1 PUSH2 0x3242 JUMP JUMPDEST PUSH1 0xB SSTORE JUMP JUMPDEST PUSH2 0x1A76 CALLER PUSH2 0x12B0 JUMP JUMPDEST PUSH2 0x1A92 JUMPI PUSH1 0x40 MLOAD PUSH3 0x461BCD PUSH1 0xE5 SHL DUP2 MSTORE PUSH1 0x4 ADD PUSH2 0xB2A SWAP1 PUSH2 0x31EC JUMP JUMPDEST PUSH2 0x3E8 DUP2 PUSH1 0xA SLOAD MUL DUP2 PUSH2 0x1AA1 JUMPI INVALID JUMPDEST DIV PUSH1 0xB SSTORE POP JUMP JUMPDEST PUSH1 0x29 SLOAD PUSH1 0x1 PUSH1 0x1 PUSH1 0xA0 SHL SUB AND DUP2 JUMP JUMPDEST PUSH2 0x1AC0 CALLER PUSH2 0x1DA0 JUMP JUMPDEST PUSH2 0x1ADC JUMPI PUSH1 0x40 MLOAD PUSH3 0x461BCD PUSH1 0xE5 SHL DUP2 MSTORE PUSH1 0x4 ADD PUSH2 0xB2A SWAP1 PUSH2 0x3242 JUMP JUMPDEST DUP2 MLOAD PUSH1 0x16 DUP2 SWAP1 SSTORE PUSH1 0x20 DUP1 DUP5 ADD MLOAD PUSH1 0x17 DUP2 SWAP1 SSTORE PUSH1 0x40 DUP6 ADD MLOAD PUSH1 0x18 DUP2 SWAP1 SSTORE PUSH1 0x60 DUP7 ADD MLOAD PUSH1 0x19 DUP2 SWAP1 SSTORE PUSH1 0x80 DUP8 ADD MLOAD PUSH1 0x1A DUP2 SWAP1 SSTORE PUSH1 0xA0 DUP9 ADD MLOAD PUSH1 0x1B DUP2 SWAP1 SSTORE PUSH1 0xC0 DUP10 ADD MLOAD PUSH1 0x1C DUP2 SWAP1 SSTORE PUSH1 0xE0 DUP11 ADD MLOAD PUSH1 0x1D DUP2 SWAP1 SSTORE SWAP5 SWAP1 SWAP8 ADD SWAP1 SWAP2 ADD SWAP1 SWAP6 ADD PUSH1 0x1E DUP2 SWAP1 SSTORE SWAP3 ADD SWAP1 SWAP4 ADD SWAP1 SWAP3 ADD PUSH1 0x1F DUP2 SWAP1 SSTORE SWAP1 SWAP2 ADD SWAP1 SSTORE PUSH1 0x21 DUP2 SWAP1 SSTORE PUSH1 0x3 DUP2 DIV PUSH1 0x20 SLOAD LT PUSH2 0x1715 JUMPI PUSH1 0x40 MLOAD PUSH3 0x461BCD PUSH1 0xE5 SHL DUP2 MSTORE PUSH1 0x4 ADD PUSH2 0xB2A SWAP1 PUSH2 0x320C JUMP JUMPDEST PUSH1 0x23 SLOAD PUSH1 0x1 PUSH1 0x1 PUSH1 0xA0 SHL SUB AND DUP2 JUMP JUMPDEST PUSH2 0x1B8C CALLER PUSH2 0x1DA0 JUMP JUMPDEST PUSH2 0x1BA8 JUMPI PUSH1 0x40 MLOAD PUSH3 0x461BCD PUSH1 0xE5 SHL DUP2 MSTORE PUSH1 0x4 ADD PUSH2 0xB2A SWAP1 PUSH2 0x3242 JUMP JUMPDEST PUSH1 0x1 PUSH1 0x1 PUSH1 0xA0 SHL SUB SWAP2 SWAP1 SWAP2 AND PUSH1 0x0 SWAP1 DUP2 MSTORE PUSH1 0x14 PUSH1 0x20 MSTORE PUSH1 0x40 SWAP1 KECCAK256 DUP1 SLOAD PUSH1 0xFF NOT AND SWAP2 ISZERO ISZERO SWAP2 SWAP1 SWAP2 OR SWAP1 SSTORE JUMP JUMPDEST PUSH1 0x0 PUSH2 0xBAE PUSH2 0x1BE0 PUSH2 0x1197 JUMP JUMPDEST PUSH1 0x28 SLOAD PUSH2 0x1C0D SWAP1 PUSH2 0x1C06 SWAP1 PUSH1 0x2 SWAP1 PUSH2 0x1C00 SWAP1 PUSH1 0x1 PUSH1 0x1 PUSH1 0xA0 SHL SUB AND PUSH2 0x17B4 JUMP JUMPDEST SWAP1 PUSH2 0x2428 JUMP JUMPDEST DUP6 SWAP1 PUSH2 0x2428 JUMP JUMPDEST SWAP1 PUSH2 0x2462 JUMP JUMPDEST PUSH1 0x1 PUSH1 0x1 PUSH1 0xA0 SHL SUB SWAP2 DUP3 AND PUSH1 0x0 SWAP1 DUP2 MSTORE PUSH1 0xE PUSH1 0x20 SWAP1 DUP2 MSTORE PUSH1 0x40 DUP1 DUP4 KECCAK256 SWAP4 SWAP1 SWAP5 AND DUP3 MSTORE SWAP2 SWAP1 SWAP2 MSTORE KECCAK256 SLOAD SWAP1 JUMP JUMPDEST PUSH2 0x1C47 CALLER PUSH2 0x1DA0 JUMP JUMPDEST PUSH2 0x1C63 JUMPI PUSH1 0x40 MLOAD PUSH3 0x461BCD PUSH1 0xE5 SHL DUP2 MSTORE PUSH1 0x4 ADD PUSH2 0xB2A SWAP1 PUSH2 0x3242 JUMP JUMPDEST PUSH1 0x2D DUP1 SLOAD PUSH1 0xFF NOT AND SWAP3 ISZERO ISZERO SWAP3 SWAP1 SWAP3 OR SWAP1 SWAP2 SSTORE PUSH1 0x2E SSTORE JUMP JUMPDEST PUSH1 0x19 SLOAD DUP2 JUMP JUMPDEST PUSH1 0x1B SLOAD DUP2 JUMP JUMPDEST PUSH2 0x1C8F CALLER PUSH2 0x12B0 JUMP JUMPDEST PUSH2 0x1CAB JUMPI PUSH1 0x40 MLOAD PUSH3 0x461BCD PUSH1 0xE5 SHL DUP2 MSTORE PUSH1 0x4 ADD PUSH2 0xB2A SWAP1 PUSH2 0x31EC JUMP JUMPDEST PUSH1 0x22 SSTORE JUMP JUMPDEST PUSH2 0x1CB9 CALLER PUSH2 0x12B0 JUMP JUMPDEST PUSH2 0x1CD5 JUMPI PUSH1 0x40 MLOAD PUSH3 0x461BCD PUSH1 0xE5 SHL DUP2 MSTORE PUSH1 0x4 ADD PUSH2 0xB2A SWAP1 PUSH2 0x31EC JUMP JUMPDEST PUSH1 0x1 PUSH1 0x1 PUSH1 0xA0 SHL SUB AND PUSH1 0x0 SWAP1 DUP2 MSTORE PUSH1 0x1 PUSH1 0x20 MSTORE PUSH1 0x40 SWAP1 KECCAK256 DUP1 SLOAD PUSH1 0xFF NOT AND SWAP1 SSTORE JUMP JUMPDEST PUSH2 0x1CFF CALLER PUSH2 0x12B0 JUMP JUMPDEST PUSH2 0x1D1B JUMPI PUSH1 0x40 MLOAD PUSH3 0x461BCD PUSH1 0xE5 SHL DUP2 MSTORE PUSH1 0x4 ADD PUSH2 0xB2A SWAP1 PUSH2 0x31EC JUMP JUMPDEST PUSH1 0x0 DUP1 SLOAD PUSH1 0x1 PUSH1 0x1 PUSH1 0xA0 SHL SUB NOT AND PUSH1 0x1 PUSH1 0x1 PUSH1 0xA0 SHL SUB DUP4 AND SWAP1 DUP2 OR DUP3 SSTORE DUP2 MSTORE PUSH1 0x1 PUSH1 0x20 DUP2 SWAP1 MSTORE PUSH1 0x40 SWAP2 DUP3 SWAP1 KECCAK256 DUP1 SLOAD PUSH1 0xFF NOT AND SWAP1 SWAP2 OR SWAP1 SSTORE MLOAD PUSH32 0x4DBA622D284ED0014EE4B9A6A68386BE1A4C08A4913AE272DE89199CC686163 SWAP1 PUSH2 0x1D80 SWAP1 DUP4 SWAP1 PUSH2 0x2EC8 JUMP JUMPDEST PUSH1 0x40 MLOAD DUP1 SWAP2 SUB SWAP1 LOG1 POP JUMP JUMPDEST PUSH1 0x27 SLOAD PUSH1 0x1 PUSH1 0x1 PUSH1 0xA0 SHL SUB AND DUP2 JUMP JUMPDEST PUSH1 0x20 SLOAD DUP2 JUMP JUMPDEST PUSH1 0x1 PUSH1 0x1 PUSH1 0xA0 SHL SUB AND PUSH1 0x0 SWAP1 DUP2 MSTORE PUSH1 0x1 PUSH1 0x20 MSTORE PUSH1 0x40 SWAP1 KECCAK256 SLOAD PUSH1 0xFF AND SWAP1 JUMP JUMPDEST PUSH1 0x22 SLOAD DUP2 JUMP JUMPDEST PUSH1 0x28 SLOAD PUSH1 0x1 PUSH1 0xA0 SHL SWAP1 DIV PUSH1 0xFF AND DUP2 JUMP JUMPDEST PUSH1 0x40 DUP1 MLOAD DUP1 DUP3 ADD DUP3 MSTORE PUSH1 0x14 DUP2 MSTORE PUSH20 0x496E73756666696369656E742042616C616E6365 PUSH1 0x60 SHL PUSH1 0x20 DUP1 DUP4 ADD SWAP2 SWAP1 SWAP2 MSTORE PUSH1 0x1 PUSH1 0x1 PUSH1 0xA0 SHL SUB DUP7 AND PUSH1 0x0 SWAP1 DUP2 MSTORE PUSH1 0xD SWAP1 SWAP2 MSTORE SWAP2 DUP3 KECCAK256 SLOAD PUSH2 0x1E25 SWAP2 DUP5 SWAP1 PUSH2 0x1EA6 JUMP JUMPDEST PUSH1 0x1 PUSH1 0x1 PUSH1 0xA0 SHL SUB DUP1 DUP7 AND PUSH1 0x0 SWAP1 DUP2 MSTORE PUSH1 0xD PUSH1 0x20 MSTORE PUSH1 0x40 DUP1 DUP3 KECCAK256 SWAP4 SWAP1 SWAP4 SSTORE SWAP1 DUP6 AND DUP2 MSTORE KECCAK256 SLOAD PUSH2 0x1E54 SWAP1 DUP4 PUSH2 0x24A1 JUMP JUMPDEST PUSH1 0x1 PUSH1 0x1 PUSH1 0xA0 SHL SUB DUP1 DUP6 AND PUSH1 0x0 DUP2 DUP2 MSTORE PUSH1 0xD PUSH1 0x20 MSTORE PUSH1 0x40 SWAP1 DUP2 SWAP1 KECCAK256 SWAP4 SWAP1 SWAP4 SSTORE SWAP2 MLOAD SWAP1 DUP7 AND SWAP1 PUSH1 0x0 DUP1 MLOAD PUSH1 0x20 PUSH2 0x333C DUP4 CODECOPY DUP2 MLOAD SWAP2 MSTORE SWAP1 PUSH2 0x1E94 SWAP1 DUP7 SWAP1 PUSH2 0x32A2 JUMP JUMPDEST PUSH1 0x40 MLOAD DUP1 SWAP2 SUB SWAP1 LOG3 POP PUSH1 0x1 SWAP4 SWAP3 POP POP POP JUMP JUMPDEST PUSH1 0x0 DUP2 DUP5 DUP5 GT ISZERO PUSH2 0x1ECA JUMPI PUSH1 0x40 MLOAD PUSH3 0x461BCD PUSH1 0xE5 SHL DUP2 MSTORE PUSH1 0x4 ADD PUSH2 0xB2A SWAP2 SWAP1 PUSH2 0x2F70 JUMP JUMPDEST POP POP POP SWAP1 SUB SWAP1 JUMP JUMPDEST PUSH1 0x2F SLOAD PUSH1 0x0 SWAP1 PUSH1 0xFF AND ISZERO PUSH2 0x1EF2 JUMPI PUSH2 0x1EEB DUP5 DUP5 DUP5 PUSH2 0x1DD4 JUMP JUMPDEST SWAP1 POP PUSH2 0x1140 JUMP JUMPDEST PUSH1 0x1 PUSH1 0x1 PUSH1 0xA0 SHL SUB DUP5 AND PUSH1 0x0 SWAP1 DUP2 MSTORE PUSH1 0x1 PUSH1 0x20 MSTORE PUSH1 0x40 SWAP1 KECCAK256 SLOAD PUSH1 0xFF AND ISZERO DUP1 ISZERO PUSH2 0x1F34 JUMPI POP PUSH1 0x1 PUSH1 0x1 PUSH1 0xA0 SHL SUB DUP4 AND PUSH1 0x0 SWAP1 DUP2 MSTORE PUSH1 0x1 PUSH1 0x20 MSTORE PUSH1 0x40 SWAP1 KECCAK256 SLOAD PUSH1 0xFF AND ISZERO JUMPDEST ISZERO PUSH2 0x1F62 JUMPI PUSH1 0x28 SLOAD PUSH1 0x1 PUSH1 0xA0 SHL SWAP1 DIV PUSH1 0xFF AND PUSH2 0x1F62 JUMPI PUSH1 0x40 MLOAD PUSH3 0x461BCD PUSH1 0xE5 SHL DUP2 MSTORE PUSH1 0x4 ADD PUSH2 0xB2A SWAP1 PUSH2 0x30E5 JUMP JUMPDEST PUSH1 0x1 PUSH1 0x1 PUSH1 0xA0 SHL SUB DUP5 AND PUSH1 0x0 SWAP1 DUP2 MSTORE PUSH1 0x1 PUSH1 0x20 MSTORE PUSH1 0x40 SWAP1 KECCAK256 SLOAD PUSH1 0xFF AND ISZERO DUP1 ISZERO PUSH2 0x1F94 JUMPI POP PUSH1 0x1 PUSH1 0x1 PUSH1 0xA0 SHL SUB DUP4 AND ADDRESS EQ ISZERO JUMPDEST DUP1 ISZERO PUSH2 0x1FAE JUMPI POP PUSH1 0x3 SLOAD PUSH1 0x1 PUSH1 0x1 PUSH1 0xA0 SHL SUB DUP5 DUP2 AND SWAP2 AND EQ ISZERO JUMPDEST DUP1 ISZERO PUSH2 0x1FC8 JUMPI POP PUSH1 0x28 SLOAD PUSH1 0x1 PUSH1 0x1 PUSH1 0xA0 SHL SUB DUP5 DUP2 AND SWAP2 AND EQ ISZERO JUMPDEST DUP1 ISZERO PUSH2 0x1FE2 JUMPI POP PUSH1 0x24 SLOAD PUSH1 0x1 PUSH1 0x1 PUSH1 0xA0 SHL SUB DUP5 DUP2 AND SWAP2 AND EQ ISZERO JUMPDEST DUP1 ISZERO PUSH2 0x1FFC JUMPI POP PUSH1 0x23 SLOAD PUSH1 0x1 PUSH1 0x1 PUSH1 0xA0 SHL SUB DUP5 DUP2 AND SWAP2 AND EQ ISZERO JUMPDEST ISZERO PUSH2 0x2034 JUMPI PUSH1 0x0 PUSH2 0x200C DUP5 PUSH2 0x17B4 JUMP JUMPDEST SWAP1 POP PUSH1 0xC SLOAD DUP4 DUP3 ADD GT ISZERO PUSH2 0x2032 JUMPI PUSH1 0x40 MLOAD PUSH3 0x461BCD PUSH1 0xE5 SHL DUP2 MSTORE PUSH1 0x4 ADD PUSH2 0xB2A SWAP1 PUSH2 0x3154 JUMP JUMPDEST POP JUMPDEST PUSH1 0x28 SLOAD PUSH1 0x1 PUSH1 0x1 PUSH1 0xA0 SHL SUB DUP6 DUP2 AND SWAP2 AND EQ DUP1 ISZERO PUSH2 0x2053 JUMPI POP PUSH1 0x2B SLOAD PUSH1 0xFF AND JUMPDEST DUP1 ISZERO PUSH2 0x2078 JUMPI POP PUSH1 0x1 PUSH1 0x1 PUSH1 0xA0 SHL SUB DUP4 AND PUSH1 0x0 SWAP1 DUP2 MSTORE PUSH1 0x12 PUSH1 0x20 MSTORE PUSH1 0x40 SWAP1 KECCAK256 SLOAD PUSH1 0xFF AND ISZERO JUMPDEST ISZERO PUSH2 0x20DD JUMPI PUSH1 0x1 PUSH1 0x1 PUSH1 0xA0 SHL SUB DUP4 AND PUSH1 0x0 SWAP1 DUP2 MSTORE PUSH1 0x2C PUSH1 0x20 MSTORE PUSH1 0x40 SWAP1 KECCAK256 SLOAD TIMESTAMP GT PUSH2 0x20B4 JUMPI PUSH1 0x40 MLOAD PUSH3 0x461BCD PUSH1 0xE5 SHL DUP2 MSTORE PUSH1 0x4 ADD PUSH2 0xB2A SWAP1 PUSH2 0x306B JUMP JUMPDEST PUSH1 0x2B SLOAD PUSH1 0x1 PUSH1 0x1 PUSH1 0xA0 SHL SUB DUP5 AND PUSH1 0x0 SWAP1 DUP2 MSTORE PUSH1 0x2C PUSH1 0x20 MSTORE PUSH1 0x40 SWAP1 KECCAK256 PUSH2 0x100 SWAP1 SWAP2 DIV PUSH1 0xFF AND TIMESTAMP ADD SWAP1 SSTORE JUMPDEST PUSH2 0x20E7 DUP5 DUP4 PUSH2 0x24C6 JUMP JUMPDEST PUSH2 0x20EF PUSH2 0x250B JUMP JUMPDEST ISZERO PUSH2 0x20FC JUMPI PUSH2 0x20FC PUSH2 0x255A JUMP JUMPDEST PUSH1 0x40 DUP1 MLOAD DUP1 DUP3 ADD DUP3 MSTORE PUSH1 0x14 DUP2 MSTORE PUSH20 0x496E73756666696369656E742042616C616E6365 PUSH1 0x60 SHL PUSH1 0x20 DUP1 DUP4 ADD SWAP2 SWAP1 SWAP2 MSTORE PUSH1 0x1 PUSH1 0x1 PUSH1 0xA0 SHL SUB DUP8 AND PUSH1 0x0 SWAP1 DUP2 MSTORE PUSH1 0xD SWAP1 SWAP2 MSTORE SWAP2 SWAP1 SWAP2 KECCAK256 SLOAD PUSH2 0x214E SWAP2 DUP5 SWAP1 PUSH2 0x1EA6 JUMP JUMPDEST PUSH1 0x1 PUSH1 0x1 PUSH1 0xA0 SHL SUB DUP6 AND PUSH1 0x0 SWAP1 DUP2 MSTORE PUSH1 0xD PUSH1 0x20 MSTORE PUSH1 0x40 DUP2 KECCAK256 SWAP2 SWAP1 SWAP2 SSTORE PUSH2 0x2173 DUP6 PUSH2 0x29FA JUMP JUMPDEST PUSH2 0x217D JUMPI DUP3 PUSH2 0x219B JUMP JUMPDEST PUSH1 0x28 SLOAD PUSH2 0x219B SWAP1 DUP7 SWAP1 DUP6 SWAP1 PUSH1 0x1 PUSH1 0x1 PUSH1 0xA0 SHL SUB DUP9 DUP2 AND SWAP2 AND EQ PUSH2 0x2A19 JUMP JUMPDEST PUSH1 0x1 PUSH1 0x1 PUSH1 0xA0 SHL SUB DUP6 AND PUSH1 0x0 SWAP1 DUP2 MSTORE PUSH1 0xD PUSH1 0x20 MSTORE PUSH1 0x40 SWAP1 KECCAK256 SLOAD SWAP1 SWAP2 POP PUSH2 0x21C1 SWAP1 DUP3 PUSH2 0x24A1 JUMP JUMPDEST PUSH1 0x1 PUSH1 0x1 PUSH1 0xA0 SHL SUB DUP1 DUP7 AND PUSH1 0x0 SWAP1 DUP2 MSTORE PUSH1 0xD PUSH1 0x20 SWAP1 DUP2 MSTORE PUSH1 0x40 DUP1 DUP4 KECCAK256 SWAP5 SWAP1 SWAP5 SSTORE SWAP2 DUP9 AND DUP2 MSTORE PUSH1 0x11 SWAP1 SWAP2 MSTORE KECCAK256 SLOAD PUSH1 0xFF AND ISZERO DUP1 PUSH2 0x2215 JUMPI POP PUSH1 0x1 PUSH1 0x1 PUSH1 0xA0 SHL SUB DUP6 AND PUSH1 0x0 SWAP1 DUP2 MSTORE PUSH1 0x13 PUSH1 0x20 MSTORE PUSH1 0x40 SWAP1 KECCAK256 SLOAD PUSH1 0xFF AND ISZERO JUMPDEST ISZERO PUSH2 0x228B JUMPI PUSH1 0x29 SLOAD PUSH1 0x1 PUSH1 0x1 PUSH1 0xA0 SHL SUB DUP7 DUP2 AND PUSH1 0x0 SWAP1 DUP2 MSTORE PUSH1 0xD PUSH1 0x20 MSTORE PUSH1 0x40 SWAP1 DUP2 SWAP1 KECCAK256 SLOAD SWAP1 MLOAD PUSH4 0xA5B654B PUSH1 0xE1 SHL DUP2 MSTORE SWAP2 SWAP1 SWAP3 AND SWAP2 PUSH4 0x14B6CA96 SWAP2 PUSH2 0x225E SWAP2 DUP10 SWAP2 PUSH1 0x4 ADD PUSH2 0x2F17 JUMP JUMPDEST PUSH1 0x0 PUSH1 0x40 MLOAD DUP1 DUP4 SUB DUP2 PUSH1 0x0 DUP8 DUP1 EXTCODESIZE ISZERO DUP1 ISZERO PUSH2 0x2278 JUMPI PUSH1 0x0 DUP1 REVERT JUMPDEST POP GAS CALL SWAP3 POP POP POP DUP1 ISZERO PUSH2 0x2289 JUMPI POP PUSH1 0x1 JUMPDEST POP JUMPDEST PUSH1 0x1 PUSH1 0x1 PUSH1 0xA0 SHL SUB DUP5 AND PUSH1 0x0 SWAP1 DUP2 MSTORE PUSH1 0x11 PUSH1 0x20 MSTORE PUSH1 0x40 SWAP1 KECCAK256 SLOAD PUSH1 0xFF AND ISZERO DUP1 PUSH2 0x22CC JUMPI POP PUSH1 0x1 PUSH1 0x1 PUSH1 0xA0 SHL SUB DUP5 AND PUSH1 0x0 SWAP1 DUP2 MSTORE PUSH1 0x13 PUSH1 0x20 MSTORE PUSH1 0x40 SWAP1 KECCAK256 SLOAD PUSH1 0xFF AND ISZERO JUMPDEST ISZERO PUSH2 0x2342 JUMPI PUSH1 0x29 SLOAD PUSH1 0x1 PUSH1 0x1 PUSH1 0xA0 SHL SUB DUP6 DUP2 AND PUSH1 0x0 SWAP1 DUP2 MSTORE PUSH1 0xD PUSH1 0x20 MSTORE PUSH1 0x40 SWAP1 DUP2 SWAP1 KECCAK256 SLOAD SWAP1 MLOAD PUSH4 0xA5B654B PUSH1 0xE1 SHL DUP2 MSTORE SWAP2 SWAP1 SWAP3 AND SWAP2 PUSH4 0x14B6CA96 SWAP2 PUSH2 0x2315 SWAP2 DUP9 SWAP2 PUSH1 0x4 ADD PUSH2 0x2F17 JUMP JUMPDEST PUSH1 0x0 PUSH1 0x40 MLOAD DUP1 DUP4 SUB DUP2 PUSH1 0x0 DUP8 DUP1 EXTCODESIZE ISZERO DUP1 ISZERO PUSH2 0x232F JUMPI PUSH1 0x0 DUP1 REVERT JUMPDEST POP GAS CALL SWAP3 POP POP POP DUP1 ISZERO PUSH2 0x2340 JUMPI POP PUSH1 0x1 JUMPDEST POP JUMPDEST PUSH1 0x29 SLOAD PUSH1 0x2A SLOAD PUSH1 0x40 MLOAD PUSH1 0x1 PUSH3 0x4D3B87 PUSH1 0xE0 SHL SUB NOT DUP2 MSTORE PUSH1 0x1 PUSH1 0x1 PUSH1 0xA0 SHL SUB SWAP1 SWAP3 AND SWAP2 PUSH4 0xFFB2C479 SWAP2 PUSH2 0x2376 SWAP2 PUSH1 0x4 ADD PUSH2 0x32A2 JUMP JUMPDEST PUSH1 0x0 PUSH1 0x40 MLOAD DUP1 DUP4 SUB DUP2 PUSH1 0x0 DUP8 DUP1 EXTCODESIZE ISZERO DUP1 ISZERO PUSH2 0x2390 JUMPI PUSH1 0x0 DUP1 REVERT JUMPDEST POP GAS CALL SWAP3 POP POP POP DUP1 ISZERO PUSH2 0x23A1 JUMPI POP PUSH1 0x1 JUMPDEST POP DUP4 PUSH1 0x1 PUSH1 0x1 PUSH1 0xA0 SHL SUB AND DUP6 PUSH1 0x1 PUSH1 0x1 PUSH1 0xA0 SHL SUB AND PUSH1 0x0 DUP1 MLOAD PUSH1 0x20 PUSH2 0x333C DUP4 CODECOPY DUP2 MLOAD SWAP2 MSTORE DUP4 PUSH1 0x40 MLOAD PUSH2 0x23D3 SWAP2 SWAP1 PUSH2 0x32A2 JUMP JUMPDEST PUSH1 0x40 MLOAD DUP1 SWAP2 SUB SWAP1 LOG3 POP PUSH1 0x1 SWAP5 SWAP4 POP POP POP POP JUMP JUMPDEST PUSH1 0x0 PUSH2 0x1140 DUP4 DUP4 PUSH1 0x40 MLOAD DUP1 PUSH1 0x40 ADD PUSH1 0x40 MSTORE DUP1 PUSH1 0x1E DUP2 MSTORE PUSH1 0x20 ADD PUSH32 0x536166654D6174683A207375627472616374696F6E206F766572666C6F770000 DUP2 MSTORE POP PUSH2 0x1EA6 JUMP JUMPDEST PUSH1 0x0 DUP3 PUSH2 0x2437 JUMPI POP PUSH1 0x0 PUSH2 0xBAE JUMP JUMPDEST DUP3 DUP3 MUL DUP3 DUP5 DUP3 DUP2 PUSH2 0x2444 JUMPI INVALID JUMPDEST DIV EQ PUSH2 0x1140 JUMPI PUSH1 0x40 MLOAD PUSH3 0x461BCD PUSH1 0xE5 SHL DUP2 MSTORE PUSH1 0x4 ADD PUSH2 0xB2A SWAP1 PUSH2 0x3113 JUMP JUMPDEST PUSH1 0x0 PUSH2 0x1140 DUP4 DUP4 PUSH1 0x40 MLOAD DUP1 PUSH1 0x40 ADD PUSH1 0x40 MSTORE DUP1 PUSH1 0x1A DUP2 MSTORE PUSH1 0x20 ADD PUSH26 0x536166654D6174683A206469766973696F6E206279207A65726F PUSH1 0x30 SHL DUP2 MSTORE POP PUSH2 0x2AC8 JUMP JUMPDEST PUSH1 0x0 DUP3 DUP3 ADD DUP4 DUP2 LT ISZERO PUSH2 0x1140 JUMPI PUSH1 0x40 MLOAD PUSH3 0x461BCD PUSH1 0xE5 SHL DUP2 MSTORE PUSH1 0x4 ADD PUSH2 0xB2A SWAP1 PUSH2 0x3036 JUMP JUMPDEST PUSH1 0xB SLOAD DUP2 GT ISZERO DUP1 PUSH2 0x24EF JUMPI POP PUSH1 0x1 PUSH1 0x1 PUSH1 0xA0 SHL SUB DUP3 AND PUSH1 0x0 SWAP1 DUP2 MSTORE PUSH1 0x14 PUSH1 0x20 MSTORE PUSH1 0x40 SWAP1 KECCAK256 SLOAD PUSH1 0xFF AND JUMPDEST PUSH2 0x1715 JUMPI PUSH1 0x40 MLOAD PUSH3 0x461BCD PUSH1 0xE5 SHL DUP2 MSTORE PUSH1 0x4 ADD PUSH2 0xB2A SWAP1 PUSH2 0x300B JUMP JUMPDEST PUSH1 0x28 SLOAD PUSH1 0x0 SWAP1 PUSH1 0x1 PUSH1 0x1 PUSH1 0xA0 SHL SUB AND CALLER EQ DUP1 ISZERO SWAP1 PUSH2 0x252C JUMPI POP PUSH1 0x2F SLOAD PUSH1 0xFF AND ISZERO JUMPDEST DUP1 ISZERO PUSH2 0x253A JUMPI POP PUSH1 0x2D SLOAD PUSH1 0xFF AND JUMPDEST DUP1 ISZERO PUSH2 0x11DB JUMPI POP POP PUSH1 0x2E SLOAD ADDRESS PUSH1 0x0 SWAP1 DUP2 MSTORE PUSH1 0xD PUSH1 0x20 MSTORE PUSH1 0x40 SWAP1 KECCAK256 SLOAD LT ISZERO SWAP1 JUMP JUMPDEST PUSH1 0x2F DUP1 SLOAD PUSH1 0xFF NOT AND PUSH1 0x1 OR SWAP1 SSTORE PUSH1 0x25 SLOAD PUSH1 0x26 SLOAD PUSH1 0x0 SWAP2 PUSH2 0x2579 SWAP2 PUSH2 0xBF7 JUMP JUMPDEST PUSH2 0x2585 JUMPI PUSH1 0x17 SLOAD PUSH2 0x2588 JUMP JUMPDEST PUSH1 0x0 JUMPDEST SWAP1 POP PUSH1 0x0 PUSH2 0x25AC PUSH1 0x2 PUSH2 0x1C0D PUSH1 0x1F SLOAD PUSH2 0x1C0D DUP7 PUSH1 0x2E SLOAD PUSH2 0x2428 SWAP1 SWAP2 SWAP1 PUSH4 0xFFFFFFFF AND JUMP JUMPDEST SWAP1 POP PUSH1 0x0 PUSH2 0x25C5 DUP3 PUSH1 0x2E SLOAD PUSH2 0x23E6 SWAP1 SWAP2 SWAP1 PUSH4 0xFFFFFFFF AND JUMP JUMPDEST PUSH1 0x40 DUP1 MLOAD PUSH1 0x2 DUP1 DUP3 MSTORE PUSH1 0x60 DUP3 ADD DUP4 MSTORE SWAP3 SWAP4 POP PUSH1 0x0 SWAP3 SWAP1 SWAP2 PUSH1 0x20 DUP4 ADD SWAP1 DUP1 CALLDATASIZE DUP4 CALLDATACOPY ADD SWAP1 POP POP SWAP1 POP ADDRESS DUP2 PUSH1 0x0 DUP2 MLOAD DUP2 LT PUSH2 0x25F9 JUMPI INVALID JUMPDEST PUSH1 0x1 PUSH1 0x1 PUSH1 0xA0 SHL SUB SWAP3 DUP4 AND PUSH1 0x20 SWAP2 DUP3 MUL SWAP3 SWAP1 SWAP3 ADD ADD MSTORE PUSH1 0x2 SLOAD DUP3 MLOAD SWAP2 AND SWAP1 DUP3 SWAP1 PUSH1 0x1 SWAP1 DUP2 LT PUSH2 0x2624 JUMPI INVALID JUMPDEST PUSH1 0x1 PUSH1 0x1 PUSH1 0xA0 SHL SUB SWAP3 DUP4 AND PUSH1 0x20 SWAP2 DUP3 MUL SWAP3 SWAP1 SWAP3 ADD ADD MSTORE PUSH1 0x27 SLOAD PUSH1 0x40 MLOAD PUSH4 0x791AC947 PUSH1 0xE0 SHL DUP2 MSTORE SELFBALANCE SWAP3 SWAP2 SWAP1 SWAP2 AND SWAP1 PUSH4 0x791AC947 SWAP1 PUSH2 0x266E SWAP1 DUP7 SWAP1 PUSH1 0x0 SWAP1 DUP8 SWAP1 ADDRESS SWAP1 TIMESTAMP SWAP1 PUSH1 0x4 ADD PUSH2 0x32AB JUMP JUMPDEST PUSH1 0x0 PUSH1 0x40 MLOAD DUP1 DUP4 SUB DUP2 PUSH1 0x0 DUP8 DUP1 EXTCODESIZE ISZERO DUP1 ISZERO PUSH2 0x2688 JUMPI PUSH1 0x0 DUP1 REVERT JUMPDEST POP GAS CALL ISZERO DUP1 ISZERO PUSH2 0x269C JUMPI RETURNDATASIZE PUSH1 0x0 DUP1 RETURNDATACOPY RETURNDATASIZE PUSH1 0x0 REVERT JUMPDEST POP POP POP POP PUSH1 0x0 PUSH2 0x26B5 DUP3 SELFBALANCE PUSH2 0x23E6 SWAP1 SWAP2 SWAP1 PUSH4 0xFFFFFFFF AND JUMP JUMPDEST SWAP1 POP PUSH1 0x0 PUSH2 0x26D0 PUSH2 0x26C7 DUP9 PUSH1 0x2 PUSH2 0x2462 JUMP JUMPDEST PUSH1 0x1F SLOAD SWAP1 PUSH2 0x23E6 JUMP JUMPDEST SWAP1 POP PUSH1 0x0 PUSH2 0x26E5 PUSH1 0x2 PUSH2 0x1C0D DUP5 DUP2 DUP8 DUP14 PUSH2 0x2428 JUMP JUMPDEST SWAP1 POP PUSH1 0x0 PUSH2 0x2702 DUP4 PUSH2 0x1C0D PUSH1 0x19 SLOAD DUP8 PUSH2 0x2428 SWAP1 SWAP2 SWAP1 PUSH4 0xFFFFFFFF AND JUMP JUMPDEST SWAP1 POP PUSH1 0x0 PUSH2 0x271F DUP5 PUSH2 0x1C0D PUSH1 0x1D SLOAD DUP9 PUSH2 0x2428 SWAP1 SWAP2 SWAP1 PUSH4 0xFFFFFFFF AND JUMP JUMPDEST SWAP1 POP PUSH1 0x0 PUSH2 0x273C DUP6 PUSH2 0x1C0D PUSH1 0x1B SLOAD DUP10 PUSH2 0x2428 SWAP1 SWAP2 SWAP1 PUSH4 0xFFFFFFFF AND JUMP JUMPDEST SWAP1 POP PUSH1 0x29 PUSH1 0x0 SWAP1 SLOAD SWAP1 PUSH2 0x100 EXP SWAP1 DIV PUSH1 0x1 PUSH1 0x1 PUSH1 0xA0 SHL SUB AND PUSH1 0x1 PUSH1 0x1 PUSH1 0xA0 SHL SUB AND PUSH4 0xDE353ECB DUP5 PUSH1 0x40 MLOAD DUP3 PUSH4 0xFFFFFFFF AND PUSH1 0xE0 SHL DUP2 MSTORE PUSH1 0x4 ADD PUSH1 0x0 PUSH1 0x40 MLOAD DUP1 DUP4 SUB DUP2 DUP6 DUP9 DUP1 EXTCODESIZE ISZERO DUP1 ISZERO PUSH2 0x278E JUMPI PUSH1 0x0 DUP1 REVERT JUMPDEST POP GAS CALL SWAP4 POP POP POP POP DUP1 ISZERO PUSH2 0x27A0 JUMPI POP PUSH1 0x1 JUMPDEST POP PUSH1 0x29 PUSH1 0x0 SWAP1 SLOAD SWAP1 PUSH2 0x100 EXP SWAP1 DIV PUSH1 0x1 PUSH1 0x1 PUSH1 0xA0 SHL SUB AND PUSH1 0x1 PUSH1 0x1 PUSH1 0xA0 SHL SUB AND PUSH4 0x152111F7 DUP4 PUSH1 0x40 MLOAD DUP3 PUSH4 0xFFFFFFFF AND PUSH1 0xE0 SHL DUP2 MSTORE PUSH1 0x4 ADD PUSH1 0x0 PUSH1 0x40 MLOAD DUP1 DUP4 SUB DUP2 DUP6 DUP9 DUP1 EXTCODESIZE ISZERO DUP1 ISZERO PUSH2 0x27F1 JUMPI PUSH1 0x0 DUP1 REVERT JUMPDEST POP GAS CALL SWAP4 POP POP POP POP DUP1 ISZERO PUSH2 0x2803 JUMPI POP PUSH1 0x1 JUMPDEST POP PUSH1 0x40 DUP1 MLOAD PUSH1 0x2 DUP1 DUP3 MSTORE PUSH1 0x60 DUP3 ADD DUP4 MSTORE PUSH1 0x0 SWAP3 PUSH1 0x20 DUP4 ADD SWAP1 DUP1 CALLDATASIZE DUP4 CALLDATACOPY POP POP PUSH1 0x2 SLOAD DUP3 MLOAD SWAP3 SWAP4 POP PUSH1 0x1 PUSH1 0x1 PUSH1 0xA0 SHL SUB AND SWAP2 DUP4 SWAP2 POP PUSH1 0x0 SWAP1 PUSH2 0x283F JUMPI INVALID JUMPDEST PUSH1 0x1 PUSH1 0x1 PUSH1 0xA0 SHL SUB SWAP3 DUP4 AND PUSH1 0x20 SWAP2 DUP3 MUL SWAP3 SWAP1 SWAP3 ADD ADD MSTORE PUSH1 0x6 SLOAD DUP3 MLOAD SWAP2 AND SWAP1 DUP3 SWAP1 PUSH1 0x1 SWAP1 DUP2 LT PUSH2 0x286A JUMPI INVALID JUMPDEST PUSH1 0x1 PUSH1 0x1 PUSH1 0xA0 SHL SUB SWAP3 DUP4 AND PUSH1 0x20 SWAP2 DUP3 MUL SWAP3 SWAP1 SWAP3 ADD ADD MSTORE PUSH1 0x27 SLOAD PUSH1 0x24 SLOAD PUSH1 0x40 MLOAD PUSH4 0xB6F9DE95 PUSH1 0xE0 SHL DUP2 MSTORE SWAP2 DUP4 AND SWAP3 PUSH4 0xB6F9DE95 SWAP3 DUP7 SWAP3 PUSH2 0x28B6 SWAP3 PUSH1 0x0 SWAP3 DUP9 SWAP3 SWAP1 SWAP2 AND SWAP1 TIMESTAMP SWAP1 PUSH1 0x4 ADD PUSH2 0x2F3B JUMP JUMPDEST PUSH1 0x0 PUSH1 0x40 MLOAD DUP1 DUP4 SUB DUP2 DUP6 DUP9 DUP1 EXTCODESIZE ISZERO DUP1 ISZERO PUSH2 0x28CF JUMPI PUSH1 0x0 DUP1 REVERT JUMPDEST POP GAS CALL ISZERO DUP1 ISZERO PUSH2 0x28E3 JUMPI RETURNDATASIZE PUSH1 0x0 DUP1 RETURNDATACOPY RETURNDATASIZE PUSH1 0x0 REVERT JUMPDEST POP POP POP POP POP PUSH1 0x0 DUP12 GT ISZERO PUSH2 0x29E2 JUMPI PUSH1 0x27 PUSH1 0x0 SWAP1 SLOAD SWAP1 PUSH2 0x100 EXP SWAP1 DIV PUSH1 0x1 PUSH1 0x1 PUSH1 0xA0 SHL SUB AND PUSH1 0x1 PUSH1 0x1 PUSH1 0xA0 SHL SUB AND PUSH4 0xF305D719 DUP7 ADDRESS DUP15 PUSH1 0x0 DUP1 PUSH1 0x23 PUSH1 0x0 SWAP1 SLOAD SWAP1 PUSH2 0x100 EXP SWAP1 DIV PUSH1 0x1 PUSH1 0x1 PUSH1 0xA0 SHL SUB AND TIMESTAMP PUSH1 0x40 MLOAD DUP9 PUSH4 0xFFFFFFFF AND PUSH1 0xE0 SHL DUP2 MSTORE PUSH1 0x4 ADD PUSH2 0x2953 SWAP7 SWAP6 SWAP5 SWAP4 SWAP3 SWAP2 SWAP1 PUSH2 0x2EDC JUMP JUMPDEST PUSH1 0x60 PUSH1 0x40 MLOAD DUP1 DUP4 SUB DUP2 DUP6 DUP9 DUP1 EXTCODESIZE ISZERO DUP1 ISZERO PUSH2 0x296C JUMPI PUSH1 0x0 DUP1 REVERT JUMPDEST POP GAS CALL ISZERO DUP1 ISZERO PUSH2 0x2980 JUMPI RETURNDATASIZE PUSH1 0x0 DUP1 RETURNDATACOPY RETURNDATASIZE PUSH1 0x0 REVERT JUMPDEST POP POP POP POP POP PUSH1 0x40 MLOAD RETURNDATASIZE PUSH1 0x1F NOT PUSH1 0x1F DUP3 ADD AND DUP3 ADD DUP1 PUSH1 0x40 MSTORE POP DUP2 ADD SWAP1 PUSH2 0x29A5 SWAP2 SWAP1 PUSH2 0x2E58 JUMP JUMPDEST POP POP POP PUSH32 0x424DB2872186FA7E7AFA7A5E902ED3B49A2EF19C2F5431E672462495DD6B4506 DUP6 DUP13 PUSH1 0x40 MLOAD PUSH2 0x29D9 SWAP3 SWAP2 SWAP1 PUSH2 0x32E7 JUMP JUMPDEST PUSH1 0x40 MLOAD DUP1 SWAP2 SUB SWAP1 LOG1 JUMPDEST POP POP PUSH1 0x2F DUP1 SLOAD PUSH1 0xFF NOT AND SWAP1 SSTORE POP POP POP POP POP POP POP POP POP POP JUMP JUMPDEST PUSH1 0x1 PUSH1 0x1 PUSH1 0xA0 SHL SUB AND PUSH1 0x0 SWAP1 DUP2 MSTORE PUSH1 0xF PUSH1 0x20 MSTORE PUSH1 0x40 SWAP1 KECCAK256 SLOAD PUSH1 0xFF AND ISZERO SWAP1 JUMP JUMPDEST PUSH1 0x0 DUP1 DUP3 PUSH2 0x2A28 JUMPI PUSH1 0x64 PUSH2 0x2A2C JUMP JUMPDEST PUSH1 0x22 SLOAD JUMPDEST SWAP1 POP PUSH1 0x0 PUSH2 0x2A52 PUSH1 0x21 SLOAD PUSH1 0x64 MUL PUSH2 0x1C0D DUP5 PUSH2 0x1C00 PUSH1 0x20 SLOAD DUP11 PUSH2 0x2428 SWAP1 SWAP2 SWAP1 PUSH4 0xFFFFFFFF AND JUMP JUMPDEST ADDRESS PUSH1 0x0 SWAP1 DUP2 MSTORE PUSH1 0xD PUSH1 0x20 MSTORE PUSH1 0x40 SWAP1 KECCAK256 SLOAD SWAP1 SWAP2 POP PUSH2 0x2A6F SWAP1 DUP3 PUSH2 0x24A1 JUMP JUMPDEST ADDRESS PUSH1 0x0 DUP2 DUP2 MSTORE PUSH1 0xD PUSH1 0x20 MSTORE PUSH1 0x40 SWAP1 DUP2 SWAP1 KECCAK256 SWAP3 SWAP1 SWAP3 SSTORE SWAP1 MLOAD PUSH1 0x1 PUSH1 0x1 PUSH1 0xA0 SHL SUB DUP9 AND SWAP1 PUSH1 0x0 DUP1 MLOAD PUSH1 0x20 PUSH2 0x333C DUP4 CODECOPY DUP2 MLOAD SWAP2 MSTORE SWAP1 PUSH2 0x2AAC SWAP1 DUP6 SWAP1 PUSH2 0x32A2 JUMP JUMPDEST PUSH1 0x40 MLOAD DUP1 SWAP2 SUB SWAP1 LOG3 PUSH2 0x2ABE DUP6 DUP3 PUSH2 0x23E6 JUMP JUMPDEST SWAP7 SWAP6 POP POP POP POP POP POP JUMP JUMPDEST PUSH1 0x0 DUP2 DUP4 PUSH2 0x2AE9 JUMPI PUSH1 0x40 MLOAD PUSH3 0x461BCD PUSH1 0xE5 SHL DUP2 MSTORE PUSH1 0x4 ADD PUSH2 0xB2A SWAP2 SWAP1 PUSH2 0x2F70 JUMP JUMPDEST POP PUSH1 0x0 DUP4 DUP6 DUP2 PUSH2 0x2AF5 JUMPI INVALID JUMPDEST DIV SWAP6 SWAP5 POP POP POP POP POP JUMP JUMPDEST PUSH1 0x0 DUP1 DUP4 PUSH1 0x1F DUP5 ADD SLT PUSH2 0x2B10 JUMPI DUP2 DUP3 REVERT JUMPDEST POP DUP2 CALLDATALOAD PUSH1 0x1 PUSH1 0x1 PUSH1 0x40 SHL SUB DUP2 GT ISZERO PUSH2 0x2B26 JUMPI DUP2 DUP3 REVERT JUMPDEST PUSH1 0x20 DUP4 ADD SWAP2 POP DUP4 PUSH1 0x20 DUP1 DUP4 MUL DUP6 ADD ADD GT ISZERO PUSH2 0x2B40 JUMPI PUSH1 0x0 DUP1 REVERT JUMPDEST SWAP3 POP SWAP3 SWAP1 POP JUMP JUMPDEST DUP1 CALLDATALOAD DUP1 ISZERO ISZERO DUP2 EQ PUSH2 0x12C2 JUMPI PUSH1 0x0 DUP1 REVERT JUMPDEST PUSH1 0x0 PUSH1 0x20 DUP3 DUP5 SUB SLT ISZERO PUSH2 0x2B68 JUMPI DUP1 DUP2 REVERT JUMPDEST DUP2 CALLDATALOAD PUSH2 0x1140 DUP2 PUSH2 0x3303 JUMP JUMPDEST PUSH1 0x0 DUP1 PUSH1 0x40 DUP4 DUP6 SUB SLT ISZERO PUSH2 0x2B85 JUMPI DUP1 DUP2 REVERT JUMPDEST DUP3 CALLDATALOAD PUSH2 0x2B90 DUP2 PUSH2 0x3303 JUMP JUMPDEST SWAP2 POP PUSH1 0x20 DUP4 ADD CALLDATALOAD PUSH2 0x2BA0 DUP2 PUSH2 0x3303 JUMP JUMPDEST DUP1 SWAP2 POP POP SWAP3 POP SWAP3 SWAP1 POP JUMP JUMPDEST PUSH1 0x0 DUP1 PUSH1 0x0 PUSH1 0x60 DUP5 DUP7 SUB SLT ISZERO PUSH2 0x2BBF JUMPI DUP1 DUP2 REVERT JUMPDEST DUP4 CALLDATALOAD PUSH2 0x2BCA DUP2 PUSH2 0x3303 JUMP JUMPDEST SWAP3 POP PUSH1 0x20 DUP5 ADD CALLDATALOAD PUSH2 0x2BDA DUP2 PUSH2 0x3303 JUMP JUMPDEST SWAP3 SWAP6 SWAP3 SWAP5 POP POP POP PUSH1 0x40 SWAP2 SWAP1 SWAP2 ADD CALLDATALOAD SWAP1 JUMP JUMPDEST PUSH1 0x0 DUP1 PUSH1 0x0 DUP1 PUSH1 0x0 PUSH1 0x60 DUP7 DUP9 SUB SLT ISZERO PUSH2 0x2C02 JUMPI DUP1 DUP2 REVERT JUMPDEST DUP6 CALLDATALOAD PUSH2 0x2C0D DUP2 PUSH2 0x3303 JUMP JUMPDEST SWAP5 POP PUSH1 0x20 DUP7 ADD CALLDATALOAD PUSH1 0x1 PUSH1 0x1 PUSH1 0x40 SHL SUB DUP1 DUP3 GT ISZERO PUSH2 0x2C28 JUMPI DUP3 DUP4 REVERT JUMPDEST PUSH2 0x2C34 DUP10 DUP4 DUP11 ADD PUSH2 0x2AFF JUMP JUMPDEST SWAP1 SWAP7 POP SWAP5 POP PUSH1 0x40 DUP9 ADD CALLDATALOAD SWAP2 POP DUP1 DUP3 GT ISZERO PUSH2 0x2C4C JUMPI DUP3 DUP4 REVERT JUMPDEST POP PUSH2 0x2C59 DUP9 DUP3 DUP10 ADD PUSH2 0x2AFF JUMP JUMPDEST SWAP7 SWAP10 SWAP6 SWAP9 POP SWAP4 SWAP7 POP SWAP3 SWAP5 SWAP4 SWAP3 POP POP POP JUMP JUMPDEST PUSH1 0x0 DUP1 PUSH1 0x0 DUP1 PUSH1 0x60 DUP6 DUP8 SUB SLT ISZERO PUSH2 0x2C7F JUMPI DUP4 DUP5 REVERT JUMPDEST DUP5 CALLDATALOAD PUSH2 0x2C8A DUP2 PUSH2 0x3303 JUMP JUMPDEST SWAP4 POP PUSH1 0x20 DUP6 ADD CALLDATALOAD PUSH1 0x1 PUSH1 0x1 PUSH1 0x40 SHL SUB DUP2 GT ISZERO PUSH2 0x2CA4 JUMPI DUP4 DUP5 REVERT JUMPDEST PUSH2 0x2CB0 DUP8 DUP3 DUP9 ADD PUSH2 0x2AFF JUMP JUMPDEST SWAP6 SWAP9 SWAP1 SWAP8 POP SWAP5 SWAP6 PUSH1 0x40 ADD CALLDATALOAD SWAP5 SWAP4 POP POP POP POP JUMP JUMPDEST PUSH1 0x0 DUP1 PUSH1 0x40 DUP4 DUP6 SUB SLT ISZERO PUSH2 0x2CD5 JUMPI DUP2 DUP3 REVERT JUMPDEST DUP3 CALLDATALOAD PUSH2 0x2CE0 DUP2 PUSH2 0x3303 JUMP JUMPDEST SWAP2 POP PUSH2 0x2CEE PUSH1 0x20 DUP5 ADD PUSH2 0x2B47 JUMP JUMPDEST SWAP1 POP SWAP3 POP SWAP3 SWAP1 POP JUMP JUMPDEST PUSH1 0x0 DUP1 PUSH1 0x40 DUP4 DUP6 SUB SLT ISZERO PUSH2 0x2D09 JUMPI DUP2 DUP3 REVERT JUMPDEST DUP3 CALLDATALOAD PUSH2 0x2D14 DUP2 PUSH2 0x3303 JUMP JUMPDEST SWAP5 PUSH1 0x20 SWAP4 SWAP1 SWAP4 ADD CALLDATALOAD SWAP4 POP POP POP JUMP JUMPDEST PUSH1 0x0 PUSH1 0x20 DUP3 DUP5 SUB SLT ISZERO PUSH2 0x2D33 JUMPI DUP1 DUP2 REVERT JUMPDEST PUSH2 0x1140 DUP3 PUSH2 0x2B47 JUMP JUMPDEST PUSH1 0x0 DUP1 PUSH1 0x40 DUP4 DUP6 SUB SLT ISZERO PUSH2 0x2D4E JUMPI DUP2 DUP3 REVERT JUMPDEST PUSH2 0x2D14 DUP4 PUSH2 0x2B47 JUMP JUMPDEST PUSH1 0x0 DUP1 PUSH1 0x40 DUP4 DUP6 SUB SLT ISZERO PUSH2 0x2D69 JUMPI DUP2 DUP3 REVERT JUMPDEST PUSH2 0x2D72 DUP4 PUSH2 0x2B47 JUMP JUMPDEST SWAP2 POP PUSH1 0x20 DUP4 ADD CALLDATALOAD PUSH1 0xFF DUP2 AND DUP2 EQ PUSH2 0x2BA0 JUMPI DUP2 DUP3 REVERT JUMPDEST PUSH1 0x0 DUP1 DUP3 DUP5 SUB PUSH2 0x120 DUP2 SLT ISZERO PUSH2 0x2D9B JUMPI DUP3 DUP4 REVERT JUMPDEST PUSH2 0x100 DUP1 DUP3 SLT ISZERO PUSH2 0x2DAA JUMPI DUP4 DUP5 REVERT JUMPDEST PUSH1 0x40 MLOAD SWAP2 POP DUP1 DUP3 ADD PUSH1 0x1 PUSH1 0x1 PUSH1 0x40 SHL SUB DUP2 GT DUP4 DUP3 LT OR ISZERO PUSH2 0x2DC7 JUMPI INVALID JUMPDEST PUSH1 0x40 SWAP1 DUP2 MSTORE DUP6 CALLDATALOAD DUP4 MSTORE PUSH1 0x20 DUP1 DUP8 ADD CALLDATALOAD SWAP1 DUP5 ADD MSTORE DUP6 DUP2 ADD CALLDATALOAD SWAP1 DUP4 ADD MSTORE PUSH1 0x60 DUP1 DUP7 ADD CALLDATALOAD SWAP1 DUP4 ADD MSTORE PUSH1 0x80 DUP1 DUP7 ADD CALLDATALOAD SWAP1 DUP4 ADD MSTORE PUSH1 0xA0 DUP1 DUP7 ADD CALLDATALOAD SWAP1 DUP4 ADD MSTORE PUSH1 0xC0 DUP1 DUP7 ADD CALLDATALOAD SWAP1 DUP4 ADD MSTORE PUSH1 0xE0 DUP1 DUP7 ADD CALLDATALOAD SWAP1 DUP4 ADD MSTORE SWAP1 SWAP6 SWAP4 ADD CALLDATALOAD SWAP4 POP POP POP JUMP JUMPDEST PUSH1 0x0 PUSH1 0x20 DUP3 DUP5 SUB SLT ISZERO PUSH2 0x2E30 JUMPI DUP1 DUP2 REVERT JUMPDEST POP CALLDATALOAD SWAP2 SWAP1 POP JUMP JUMPDEST PUSH1 0x0 DUP1 PUSH1 0x40 DUP4 DUP6 SUB SLT ISZERO PUSH2 0x2E49 JUMPI DUP2 DUP3 REVERT JUMPDEST POP POP DUP1 CALLDATALOAD SWAP3 PUSH1 0x20 SWAP1 SWAP2 ADD CALLDATALOAD SWAP2 POP JUMP JUMPDEST PUSH1 0x0 DUP1 PUSH1 0x0 PUSH1 0x60 DUP5 DUP7 SUB SLT ISZERO PUSH2 0x2E6C JUMPI DUP1 DUP2 REVERT JUMPDEST DUP4 MLOAD SWAP3 POP PUSH1 0x20 DUP5 ADD MLOAD SWAP2 POP PUSH1 0x40 DUP5 ADD MLOAD SWAP1 POP SWAP3 POP SWAP3 POP SWAP3 JUMP JUMPDEST PUSH1 0x0 DUP2 MLOAD DUP1 DUP5 MSTORE PUSH1 0x20 DUP1 DUP6 ADD SWAP5 POP DUP1 DUP5 ADD DUP4 JUMPDEST DUP4 DUP2 LT ISZERO PUSH2 0x2EBD JUMPI DUP2 MLOAD PUSH1 0x1 PUSH1 0x1 PUSH1 0xA0 SHL SUB AND DUP8 MSTORE SWAP6 DUP3 ADD SWAP6 SWAP1 DUP3 ADD SWAP1 PUSH1 0x1 ADD PUSH2 0x2E98 JUMP JUMPDEST POP SWAP5 SWAP6 SWAP5 POP POP POP POP POP JUMP JUMPDEST PUSH1 0x1 PUSH1 0x1 PUSH1 0xA0 SHL SUB SWAP2 SWAP1 SWAP2 AND DUP2 MSTORE PUSH1 0x20 ADD SWAP1 JUMP JUMPDEST PUSH1 0x1 PUSH1 0x1 PUSH1 0xA0 SHL SUB SWAP7 DUP8 AND DUP2 MSTORE PUSH1 0x20 DUP2 ADD SWAP6 SWAP1 SWAP6 MSTORE PUSH1 0x40 DUP6 ADD SWAP4 SWAP1 SWAP4 MSTORE PUSH1 0x60 DUP5 ADD SWAP2 SWAP1 SWAP2 MSTORE SWAP1 SWAP3 AND PUSH1 0x80 DUP3 ADD MSTORE PUSH1 0xA0 DUP2 ADD SWAP2 SWAP1 SWAP2 MSTORE PUSH1 0xC0 ADD SWAP1 JUMP JUMPDEST PUSH1 0x1 PUSH1 0x1 PUSH1 0xA0 SHL SUB SWAP3 SWAP1 SWAP3 AND DUP3 MSTORE PUSH1 0x20 DUP3 ADD MSTORE PUSH1 0x40 ADD SWAP1 JUMP JUMPDEST SWAP1 ISZERO ISZERO DUP2 MSTORE PUSH1 0x20 ADD SWAP1 JUMP JUMPDEST PUSH1 0x0 DUP6 DUP3 MSTORE PUSH1 0x80 PUSH1 0x20 DUP4 ADD MSTORE PUSH2 0x2F54 PUSH1 0x80 DUP4 ADD DUP7 PUSH2 0x2E85 JUMP JUMPDEST PUSH1 0x1 PUSH1 0x1 PUSH1 0xA0 SHL SUB SWAP5 SWAP1 SWAP5 AND PUSH1 0x40 DUP4 ADD MSTORE POP PUSH1 0x60 ADD MSTORE SWAP3 SWAP2 POP POP JUMP JUMPDEST PUSH1 0x0 PUSH1 0x20 DUP1 DUP4 MSTORE DUP4 MLOAD DUP1 DUP3 DUP6 ADD MSTORE DUP3 JUMPDEST DUP2 DUP2 LT ISZERO PUSH2 0x2F9C JUMPI DUP6 DUP2 ADD DUP4 ADD MLOAD DUP6 DUP3 ADD PUSH1 0x40 ADD MSTORE DUP3 ADD PUSH2 0x2F80 JUMP JUMPDEST DUP2 DUP2 GT ISZERO PUSH2 0x2FAD JUMPI DUP4 PUSH1 0x40 DUP4 DUP8 ADD ADD MSTORE JUMPDEST POP PUSH1 0x1F ADD PUSH1 0x1F NOT AND SWAP3 SWAP1 SWAP3 ADD PUSH1 0x40 ADD SWAP4 SWAP3 POP POP POP JUMP JUMPDEST PUSH1 0x20 DUP1 DUP3 MSTORE PUSH1 0x28 SWAP1 DUP3 ADD MSTORE PUSH32 0x4D69736D61746368206265747765656E204164647265737320616E6420746F6B PUSH1 0x40 DUP3 ADD MSTORE PUSH8 0x195B8818DBDD5B9D PUSH1 0xC2 SHL PUSH1 0x60 DUP3 ADD MSTORE PUSH1 0x80 ADD SWAP1 JUMP JUMPDEST PUSH1 0x20 DUP1 DUP3 MSTORE PUSH1 0x11 SWAP1 DUP3 ADD MSTORE PUSH17 0x151608131A5B5A5D08115E18D959591959 PUSH1 0x7A SHL PUSH1 0x40 DUP3 ADD MSTORE PUSH1 0x60 ADD SWAP1 JUMP JUMPDEST PUSH1 0x20 DUP1 DUP3 MSTORE PUSH1 0x1B SWAP1 DUP3 ADD MSTORE PUSH27 0x536166654D6174683A206164646974696F6E206F766572666C6F77 PUSH1 0x28 SHL PUSH1 0x40 DUP3 ADD MSTORE PUSH1 0x60 ADD SWAP1 JUMP JUMPDEST PUSH1 0x20 DUP1 DUP3 MSTORE PUSH1 0x25 SWAP1 DUP3 ADD MSTORE PUSH32 0x506C65617365207761697420666F7220316D696E206265747765656E2074776F PUSH1 0x40 DUP3 ADD MSTORE PUSH5 0x2062757973 PUSH1 0xD8 SHL PUSH1 0x60 DUP3 ADD MSTORE PUSH1 0x80 ADD SWAP1 JUMP JUMPDEST PUSH1 0x20 DUP1 DUP3 MSTORE PUSH1 0x1B SWAP1 DUP3 ADD MSTORE PUSH27 0x139BDD08195B9BDD59DA081D1BDAD95B9CC81A5B881DD85B1B195D PUSH1 0x2A SHL PUSH1 0x40 DUP3 ADD MSTORE PUSH1 0x60 ADD SWAP1 JUMP JUMPDEST PUSH1 0x20 DUP1 DUP3 MSTORE PUSH1 0x14 SWAP1 DUP3 ADD MSTORE PUSH20 0x151C98591A5B99C81B9BDD081BDC195B881E595D PUSH1 0x62 SHL PUSH1 0x40 DUP3 ADD MSTORE PUSH1 0x60 ADD SWAP1 JUMP JUMPDEST PUSH1 0x20 DUP1 DUP3 MSTORE PUSH1 0x21 SWAP1 DUP3 ADD MSTORE PUSH32 0x536166654D6174683A206D756C7469706C69636174696F6E206F766572666C6F PUSH1 0x40 DUP3 ADD MSTORE PUSH1 0x77 PUSH1 0xF8 SHL PUSH1 0x60 DUP3 ADD MSTORE PUSH1 0x80 ADD SWAP1 JUMP JUMPDEST PUSH1 0x20 DUP1 DUP3 MSTORE PUSH1 0x3E SWAP1 DUP3 ADD MSTORE PUSH32 0x546F74616C20486F6C64696E672069732063757272656E746C79206C696D6974 PUSH1 0x40 DUP3 ADD MSTORE PUSH32 0x65642C20796F752063616E206E6F74206275792074686174206D7563682E0000 PUSH1 0x60 DUP3 ADD MSTORE PUSH1 0x80 ADD SWAP1 JUMP JUMPDEST PUSH1 0x20 DUP1 DUP3 MSTORE PUSH1 0x2D SWAP1 DUP3 ADD MSTORE PUSH1 0x0 DUP1 MLOAD PUSH1 0x20 PUSH2 0x331C DUP4 CODECOPY DUP2 MLOAD SWAP2 MSTORE PUSH1 0x40 DUP3 ADD MSTORE PUSH13 0x35303020616464726573736573 PUSH1 0x98 SHL PUSH1 0x60 DUP3 ADD MSTORE PUSH1 0x80 ADD SWAP1 JUMP JUMPDEST PUSH1 0x20 DUP1 DUP3 MSTORE PUSH1 0x6 SWAP1 DUP3 ADD MSTORE PUSH6 0x10A7ABA722A9 PUSH1 0xD1 SHL PUSH1 0x40 DUP3 ADD MSTORE PUSH1 0x60 ADD SWAP1 JUMP JUMPDEST PUSH1 0x20 DUP1 DUP3 MSTORE PUSH1 0x1C SWAP1 DUP3 ADD MSTORE PUSH28 0x466565732063616E6E6F74206265206D6F7265207468616E20333325 PUSH1 0x20 SHL PUSH1 0x40 DUP3 ADD MSTORE PUSH1 0x60 ADD SWAP1 JUMP JUMPDEST PUSH1 0x20 DUP1 DUP3 MSTORE PUSH1 0xB SWAP1 DUP3 ADD MSTORE PUSH11 0x85055551213D492569151 PUSH1 0xAA SHL PUSH1 0x40 DUP3 ADD MSTORE PUSH1 0x60 ADD SWAP1 JUMP JUMPDEST PUSH1 0x20 DUP1 DUP3 MSTORE PUSH1 0x2D SWAP1 DUP3 ADD MSTORE PUSH1 0x0 DUP1 MLOAD PUSH1 0x20 PUSH2 0x331C DUP4 CODECOPY DUP2 MLOAD SWAP2 MSTORE PUSH1 0x40 DUP3 ADD MSTORE PUSH13 0x38303020616464726573736573 PUSH1 0x98 SHL PUSH1 0x60 DUP3 ADD MSTORE PUSH1 0x80 ADD SWAP1 JUMP JUMPDEST SWAP1 DUP2 MSTORE PUSH1 0x20 ADD SWAP1 JUMP JUMPDEST PUSH1 0x0 DUP7 DUP3 MSTORE DUP6 PUSH1 0x20 DUP4 ADD MSTORE PUSH1 0xA0 PUSH1 0x40 DUP4 ADD MSTORE PUSH2 0x32CA PUSH1 0xA0 DUP4 ADD DUP7 PUSH2 0x2E85 JUMP JUMPDEST PUSH1 0x1 PUSH1 0x1 PUSH1 0xA0 SHL SUB SWAP5 SWAP1 SWAP5 AND PUSH1 0x60 DUP4 ADD MSTORE POP PUSH1 0x80 ADD MSTORE SWAP4 SWAP3 POP POP POP JUMP JUMPDEST SWAP2 DUP3 MSTORE PUSH1 0x20 DUP3 ADD MSTORE PUSH1 0x40 ADD SWAP1 JUMP JUMPDEST PUSH1 0xFF SWAP2 SWAP1 SWAP2 AND DUP2 MSTORE PUSH1 0x20 ADD SWAP1 JUMP JUMPDEST PUSH1 0x1 PUSH1 0x1 PUSH1 0xA0 SHL SUB DUP2 AND DUP2 EQ PUSH2 0x3318 JUMPI PUSH1 0x0 DUP1 REVERT JUMPDEST POP JUMP INVALID SELFBALANCE COINBASE MSTORE8 KECCAK256 GASLIMIT PUSH19 0x726F723A206D61782061697264726F70206C69 PUSH14 0x697420697320DDF252AD1BE2C89B PUSH10 0xC2B068FC378DAA952BA7 CALL PUSH4 0xC4A11628 CREATE2 GAS 0x4D CREATE2 0x23 0xB3 0xEF LOG2 PUSH5 0x6970667358 0x22 SLT KECCAK256 SLOAD 0xB4 0xAB 0xC4 INVALID 0x25 CALLVALUE LOG4 0xEC 0xB2 0x4C 0x2E 0xAD DUP3 SUB 0xD9 SWAP8 PUSH26 0xF6D6E9305DB4C5DE3CB39F29E82964736F6C6343000706003360 DUP1 PUSH1 0x40 MSTORE PUSH1 0x3 DUP1 SLOAD PUSH1 0x1 PUSH1 0x1 PUSH1 0xA0 SHL SUB NOT AND PUSH20 0xBB4CDB9CBD36B01BD1CBAEBF2DE08D9173BC095C OR SWAP1 SSTORE PUSH15 0xC097CE7BC90715B34B9F1000000000 PUSH1 0xD SSTORE PUSH2 0xA8C PUSH1 0xE SSTORE PUSH6 0x9184E72A000 PUSH1 0xF SSTORE CALLVALUE DUP1 ISZERO PUSH2 0x59 JUMPI PUSH1 0x0 DUP1 REVERT JUMPDEST POP PUSH1 0x40 MLOAD PUSH2 0x1119 CODESIZE SUB DUP1 PUSH2 0x1119 DUP4 CODECOPY DUP2 ADD PUSH1 0x40 DUP2 SWAP1 MSTORE PUSH2 0x78 SWAP2 PUSH2 0xEE JUMP JUMPDEST PUSH1 0x4 DUP1 SLOAD PUSH1 0x1 PUSH1 0x1 PUSH1 0xA0 SHL SUB NOT SWAP1 DUP2 AND PUSH20 0x9AC64CC6E4415144C455BD8E4837FEA55603E5C3 OR SWAP1 SWAP2 SSTORE PUSH1 0x0 DUP1 SLOAD DUP3 AND CALLER OR SWAP1 SSTORE PUSH1 0x1 DUP1 SLOAD PUSH1 0x1 PUSH1 0x1 PUSH1 0xA0 SHL SUB SWAP5 DUP6 AND SWAP1 DUP4 AND OR SWAP1 SSTORE PUSH1 0x2 DUP1 SLOAD SWAP3 SWAP1 SWAP4 AND SWAP2 AND OR SWAP1 SSTORE PUSH2 0x120 JUMP JUMPDEST DUP1 MLOAD PUSH1 0x1 PUSH1 0x1 PUSH1 0xA0 SHL SUB DUP2 AND DUP2 EQ PUSH2 0xE9 JUMPI PUSH1 0x0 DUP1 REVERT JUMPDEST SWAP2 SWAP1 POP JUMP JUMPDEST PUSH1 0x0 DUP1 PUSH1 0x40 DUP4 DUP6 SUB SLT ISZERO PUSH2 0x100 JUMPI DUP2 DUP3 REVERT JUMPDEST PUSH2 0x109 DUP4 PUSH2 0xD2 JUMP JUMPDEST SWAP2 POP PUSH2 0x117 PUSH1 0x20 DUP5 ADD PUSH2 0xD2 JUMP JUMPDEST SWAP1 POP SWAP3 POP SWAP3 SWAP1 POP JUMP JUMPDEST PUSH2 0xFEA DUP1 PUSH2 0x12F PUSH1 0x0 CODECOPY PUSH1 0x0 RETURN INVALID PUSH1 0x80 PUSH1 0x40 MSTORE PUSH1 0x4 CALLDATASIZE LT PUSH2 0xB8 JUMPI PUSH1 0x0 CALLDATALOAD PUSH1 0xE0 SHR DUP1 PUSH4 0x11CE023D EQ PUSH2 0xBD JUMPI DUP1 PUSH4 0x14B6CA96 EQ PUSH2 0xE8 JUMPI DUP1 PUSH4 0x152111F7 EQ PUSH2 0x10A JUMPI DUP1 PUSH4 0x28FD3198 EQ PUSH2 0x112 JUMPI DUP1 PUSH4 0x2D48E896 EQ PUSH2 0x132 JUMPI DUP1 PUSH4 0x3A98EF39 EQ PUSH2 0x152 JUMPI DUP1 PUSH4 0x4FAB0AE8 EQ PUSH2 0x167 JUMPI DUP1 PUSH4 0x997664D7 EQ PUSH2 0x17C JUMPI DUP1 PUSH4 0xCE7C2AC2 EQ PUSH2 0x191 JUMPI DUP1 PUSH4 0xDE353ECB EQ PUSH2 0x1C0 JUMPI DUP1 PUSH4 0xE2D2E219 EQ PUSH2 0x1C8 JUMPI DUP1 PUSH4 0xEFCA2EED EQ PUSH2 0x1DD JUMPI DUP1 PUSH4 0xF0FC6BCA EQ PUSH2 0x1F2 JUMPI DUP1 PUSH4 0xFFB2C479 EQ PUSH2 0x207 JUMPI DUP1 PUSH4 0xFFD49C84 EQ PUSH2 0x227 JUMPI JUMPDEST PUSH1 0x0 DUP1 REVERT JUMPDEST CALLVALUE DUP1 ISZERO PUSH2 0xC9 JUMPI PUSH1 0x0 DUP1 REVERT JUMPDEST POP PUSH2 0xD2 PUSH2 0x23C JUMP JUMPDEST PUSH1 0x40 MLOAD PUSH2 0xDF SWAP2 SWAP1 PUSH2 0xF95 JUMP JUMPDEST PUSH1 0x40 MLOAD DUP1 SWAP2 SUB SWAP1 RETURN JUMPDEST CALLVALUE DUP1 ISZERO PUSH2 0xF4 JUMPI PUSH1 0x0 DUP1 REVERT JUMPDEST POP PUSH2 0x108 PUSH2 0x103 CALLDATASIZE PUSH1 0x4 PUSH2 0xD9C JUMP JUMPDEST PUSH2 0x242 JUMP JUMPDEST STOP JUMPDEST PUSH2 0x108 PUSH2 0x367 JUMP JUMPDEST CALLVALUE DUP1 ISZERO PUSH2 0x11E JUMPI PUSH1 0x0 DUP1 REVERT JUMPDEST POP PUSH2 0xD2 PUSH2 0x12D CALLDATASIZE PUSH1 0x4 PUSH2 0xD82 JUMP JUMPDEST PUSH2 0x5B1 JUMP JUMPDEST CALLVALUE DUP1 ISZERO PUSH2 0x13E JUMPI PUSH1 0x0 DUP1 REVERT JUMPDEST POP PUSH2 0x108 PUSH2 0x14D CALLDATASIZE PUSH1 0x4 PUSH2 0xE15 JUMP JUMPDEST PUSH2 0x63D JUMP JUMPDEST CALLVALUE DUP1 ISZERO PUSH2 0x15E JUMPI PUSH1 0x0 DUP1 REVERT JUMPDEST POP PUSH2 0xD2 PUSH2 0x65F JUMP JUMPDEST CALLVALUE DUP1 ISZERO PUSH2 0x173 JUMPI PUSH1 0x0 DUP1 REVERT JUMPDEST POP PUSH2 0xD2 PUSH2 0x665 JUMP JUMPDEST CALLVALUE DUP1 ISZERO PUSH2 0x188 JUMPI PUSH1 0x0 DUP1 REVERT JUMPDEST POP PUSH2 0xD2 PUSH2 0x66B JUMP JUMPDEST CALLVALUE DUP1 ISZERO PUSH2 0x19D JUMPI PUSH1 0x0 DUP1 REVERT JUMPDEST POP PUSH2 0x1B1 PUSH2 0x1AC CALLDATASIZE PUSH1 0x4 PUSH2 0xD82 JUMP JUMPDEST PUSH2 0x671 JUMP JUMPDEST PUSH1 0x40 MLOAD PUSH2 0xDF SWAP4 SWAP3 SWAP2 SWAP1 PUSH2 0xF9E JUMP JUMPDEST PUSH2 0x108 PUSH2 0x692 JUMP JUMPDEST CALLVALUE DUP1 ISZERO PUSH2 0x1D4 JUMPI PUSH1 0x0 DUP1 REVERT JUMPDEST POP PUSH2 0xD2 PUSH2 0x845 JUMP JUMPDEST CALLVALUE DUP1 ISZERO PUSH2 0x1E9 JUMPI PUSH1 0x0 DUP1 REVERT JUMPDEST POP PUSH2 0xD2 PUSH2 0x84B JUMP JUMPDEST CALLVALUE DUP1 ISZERO PUSH2 0x1FE JUMPI PUSH1 0x0 DUP1 REVERT JUMPDEST POP PUSH2 0x108 PUSH2 0x851 JUMP JUMPDEST CALLVALUE DUP1 ISZERO PUSH2 0x213 JUMPI PUSH1 0x0 DUP1 REVERT JUMPDEST POP PUSH2 0x108 PUSH2 0x222 CALLDATASIZE PUSH1 0x4 PUSH2 0xDE5 JUMP JUMPDEST PUSH2 0x85C JUMP JUMPDEST CALLVALUE DUP1 ISZERO PUSH2 0x233 JUMPI PUSH1 0x0 DUP1 REVERT JUMPDEST POP PUSH2 0xD2 PUSH2 0x93E JUMP JUMPDEST PUSH1 0xD SLOAD DUP2 JUMP JUMPDEST PUSH1 0x0 SLOAD PUSH1 0x1 PUSH1 0x1 PUSH1 0xA0 SHL SUB AND CALLER EQ PUSH2 0x259 JUMPI PUSH1 0x0 DUP1 REVERT JUMPDEST PUSH1 0x1 PUSH1 0x1 PUSH1 0xA0 SHL SUB DUP3 AND PUSH1 0x0 SWAP1 DUP2 MSTORE PUSH1 0x8 PUSH1 0x20 MSTORE PUSH1 0x40 SWAP1 KECCAK256 SLOAD ISZERO PUSH2 0x280 JUMPI PUSH2 0x280 DUP3 PUSH2 0x944 JUMP JUMPDEST PUSH1 0x0 DUP2 GT DUP1 ISZERO PUSH2 0x2A6 JUMPI POP PUSH1 0x1 PUSH1 0x1 PUSH1 0xA0 SHL SUB DUP3 AND PUSH1 0x0 SWAP1 DUP2 MSTORE PUSH1 0x8 PUSH1 0x20 MSTORE PUSH1 0x40 SWAP1 KECCAK256 SLOAD ISZERO JUMPDEST ISZERO PUSH2 0x2B9 JUMPI PUSH2 0x2B4 DUP3 PUSH2 0xA6F JUMP JUMPDEST PUSH2 0x2EC JUMP JUMPDEST DUP1 ISZERO DUP1 ISZERO PUSH2 0x2DE JUMPI POP PUSH1 0x1 PUSH1 0x1 PUSH1 0xA0 SHL SUB DUP3 AND PUSH1 0x0 SWAP1 DUP2 MSTORE PUSH1 0x8 PUSH1 0x20 MSTORE PUSH1 0x40 SWAP1 KECCAK256 SLOAD ISZERO ISZERO JUMPDEST ISZERO PUSH2 0x2EC JUMPI PUSH2 0x2EC DUP3 PUSH2 0xAD0 JUMP JUMPDEST PUSH1 0x1 PUSH1 0x1 PUSH1 0xA0 SHL SUB DUP3 AND PUSH1 0x0 SWAP1 DUP2 MSTORE PUSH1 0x8 PUSH1 0x20 MSTORE PUSH1 0x40 SWAP1 KECCAK256 SLOAD PUSH1 0x9 SLOAD PUSH2 0x31D SWAP2 DUP4 SWAP2 PUSH2 0x317 SWAP2 PUSH2 0xBBD JUMP JUMPDEST SWAP1 PUSH2 0xC08 JUMP JUMPDEST PUSH1 0x9 SSTORE PUSH1 0x1 PUSH1 0x1 PUSH1 0xA0 SHL SUB DUP3 AND PUSH1 0x0 SWAP1 DUP2 MSTORE PUSH1 0x8 PUSH1 0x20 MSTORE PUSH1 0x40 SWAP1 KECCAK256 DUP2 SWAP1 SSTORE PUSH2 0x344 DUP2 PUSH2 0xC36 JUMP JUMPDEST PUSH1 0x1 PUSH1 0x1 PUSH1 0xA0 SHL SUB SWAP1 SWAP3 AND PUSH1 0x0 SWAP1 DUP2 MSTORE PUSH1 0x8 PUSH1 0x20 MSTORE PUSH1 0x40 SWAP1 KECCAK256 PUSH1 0x1 ADD SWAP2 SWAP1 SWAP2 SSTORE POP JUMP JUMPDEST PUSH1 0x0 SLOAD PUSH1 0x1 PUSH1 0x1 PUSH1 0xA0 SHL SUB AND CALLER EQ PUSH2 0x37E JUMPI PUSH1 0x0 DUP1 REVERT JUMPDEST PUSH1 0x1 SLOAD PUSH1 0x40 MLOAD PUSH4 0x70A08231 PUSH1 0xE0 SHL DUP2 MSTORE PUSH1 0x0 SWAP2 PUSH1 0x1 PUSH1 0x1 PUSH1 0xA0 SHL SUB AND SWAP1 PUSH4 0x70A08231 SWAP1 PUSH2 0x3AF SWAP1 ADDRESS SWAP1 PUSH1 0x4 ADD PUSH2 0xE36 JUMP JUMPDEST PUSH1 0x20 PUSH1 0x40 MLOAD DUP1 DUP4 SUB DUP2 DUP7 DUP1 EXTCODESIZE ISZERO DUP1 ISZERO PUSH2 0x3C7 JUMPI PUSH1 0x0 DUP1 REVERT JUMPDEST POP GAS STATICCALL ISZERO DUP1 ISZERO PUSH2 0x3DB JUMPI RETURNDATASIZE PUSH1 0x0 DUP1 RETURNDATACOPY RETURNDATASIZE PUSH1 0x0 REVERT JUMPDEST POP POP POP POP PUSH1 0x40 MLOAD RETURNDATASIZE PUSH1 0x1F NOT PUSH1 0x1F DUP3 ADD AND DUP3 ADD DUP1 PUSH1 0x40 MSTORE POP DUP2 ADD SWAP1 PUSH2 0x3FF SWAP2 SWAP1 PUSH2 0xDFD JUMP JUMPDEST PUSH1 0x40 DUP1 MLOAD PUSH1 0x2 DUP1 DUP3 MSTORE PUSH1 0x60 DUP3 ADD DUP4 MSTORE SWAP3 SWAP4 POP PUSH1 0x0 SWAP3 SWAP1 SWAP2 PUSH1 0x20 DUP4 ADD SWAP1 DUP1 CALLDATASIZE DUP4 CALLDATACOPY POP POP PUSH1 0x3 SLOAD DUP3 MLOAD SWAP3 SWAP4 POP PUSH1 0x1 PUSH1 0x1 PUSH1 0xA0 SHL SUB AND SWAP2 DUP4 SWAP2 POP PUSH1 0x0 SWAP1 PUSH2 0x43F JUMPI INVALID JUMPDEST PUSH1 0x1 PUSH1 0x1 PUSH1 0xA0 SHL SUB SWAP3 DUP4 AND PUSH1 0x20 SWAP2 DUP3 MUL SWAP3 SWAP1 SWAP3 ADD ADD MSTORE PUSH1 0x1 DUP1 SLOAD DUP4 MLOAD SWAP3 AND SWAP2 DUP4 SWAP2 SWAP1 DUP2 LT PUSH2 0x469 JUMPI INVALID JUMPDEST PUSH1 0x1 PUSH1 0x1 PUSH1 0xA0 SHL SUB SWAP3 DUP4 AND PUSH1 0x20 SWAP2 DUP3 MUL SWAP3 SWAP1 SWAP3 ADD ADD MSTORE PUSH1 0x4 DUP1 SLOAD PUSH1 0x40 MLOAD PUSH4 0xB6F9DE95 PUSH1 0xE0 SHL DUP2 MSTORE SWAP3 AND SWAP2 PUSH4 0xB6F9DE95 SWAP2 CALLVALUE SWAP2 PUSH2 0x4AE SWAP2 PUSH1 0x0 SWAP2 DUP8 SWAP2 ADDRESS SWAP2 TIMESTAMP SWAP2 ADD PUSH2 0xE63 JUMP JUMPDEST PUSH1 0x0 PUSH1 0x40 MLOAD DUP1 DUP4 SUB DUP2 DUP6 DUP9 DUP1 EXTCODESIZE ISZERO DUP1 ISZERO PUSH2 0x4C7 JUMPI PUSH1 0x0 DUP1 REVERT JUMPDEST POP GAS CALL ISZERO DUP1 ISZERO PUSH2 0x4DB JUMPI RETURNDATASIZE PUSH1 0x0 DUP1 RETURNDATACOPY RETURNDATASIZE PUSH1 0x0 REVERT JUMPDEST POP POP PUSH1 0x1 SLOAD PUSH1 0x40 MLOAD PUSH4 0x70A08231 PUSH1 0xE0 SHL DUP2 MSTORE PUSH1 0x0 SWAP5 POP PUSH2 0x56F SWAP4 POP DUP7 SWAP3 POP PUSH1 0x1 PUSH1 0x1 PUSH1 0xA0 SHL SUB SWAP1 SWAP2 AND SWAP1 PUSH4 0x70A08231 SWAP1 PUSH2 0x519 SWAP1 ADDRESS SWAP1 PUSH1 0x4 ADD PUSH2 0xE36 JUMP JUMPDEST PUSH1 0x20 PUSH1 0x40 MLOAD DUP1 DUP4 SUB DUP2 DUP7 DUP1 EXTCODESIZE ISZERO DUP1 ISZERO PUSH2 0x531 JUMPI PUSH1 0x0 DUP1 REVERT JUMPDEST POP GAS STATICCALL ISZERO DUP1 ISZERO PUSH2 0x545 JUMPI RETURNDATASIZE PUSH1 0x0 DUP1 RETURNDATACOPY RETURNDATASIZE PUSH1 0x0 REVERT JUMPDEST POP POP POP POP PUSH1 0x40 MLOAD RETURNDATASIZE PUSH1 0x1F NOT PUSH1 0x1F DUP3 ADD AND DUP3 ADD DUP1 PUSH1 0x40 MSTORE POP DUP2 ADD SWAP1 PUSH2 0x569 SWAP2 SWAP1 PUSH2 0xDFD JUMP JUMPDEST SWAP1 PUSH2 0xBBD JUMP JUMPDEST PUSH1 0xA SLOAD SWAP1 SWAP2 POP PUSH2 0x57F SWAP1 DUP3 PUSH2 0xC08 JUMP JUMPDEST PUSH1 0xA SSTORE PUSH1 0x9 SLOAD PUSH1 0xD SLOAD PUSH2 0x5A9 SWAP2 PUSH2 0x5A0 SWAP2 PUSH2 0x59A SWAP1 DUP6 PUSH2 0xC53 JUMP JUMPDEST SWAP1 PUSH2 0xC8D JUMP JUMPDEST PUSH1 0xC SLOAD SWAP1 PUSH2 0xC08 JUMP JUMPDEST PUSH1 0xC SSTORE POP POP POP JUMP JUMPDEST PUSH1 0x1 PUSH1 0x1 PUSH1 0xA0 SHL SUB DUP2 AND PUSH1 0x0 SWAP1 DUP2 MSTORE PUSH1 0x8 PUSH1 0x20 MSTORE PUSH1 0x40 DUP2 KECCAK256 SLOAD PUSH2 0x5D6 JUMPI POP PUSH1 0x0 PUSH2 0x638 JUMP JUMPDEST PUSH1 0x1 PUSH1 0x1 PUSH1 0xA0 SHL SUB DUP3 AND PUSH1 0x0 SWAP1 DUP2 MSTORE PUSH1 0x8 PUSH1 0x20 MSTORE PUSH1 0x40 DUP2 KECCAK256 SLOAD PUSH2 0x5F8 SWAP1 PUSH2 0xC36 JUMP JUMPDEST PUSH1 0x1 PUSH1 0x1 PUSH1 0xA0 SHL SUB DUP5 AND PUSH1 0x0 SWAP1 DUP2 MSTORE PUSH1 0x8 PUSH1 0x20 MSTORE PUSH1 0x40 SWAP1 KECCAK256 PUSH1 0x1 ADD SLOAD SWAP1 SWAP2 POP DUP1 DUP3 GT PUSH2 0x629 JUMPI PUSH1 0x0 SWAP3 POP POP POP PUSH2 0x638 JUMP JUMPDEST PUSH2 0x633 DUP3 DUP3 PUSH2 0xBBD JUMP JUMPDEST SWAP3 POP POP POP JUMPDEST SWAP2 SWAP1 POP JUMP JUMPDEST PUSH1 0x0 SLOAD PUSH1 0x1 PUSH1 0x1 PUSH1 0xA0 SHL SUB AND CALLER EQ PUSH2 0x654 JUMPI PUSH1 0x0 DUP1 REVERT JUMPDEST PUSH1 0xE SWAP2 SWAP1 SWAP2 SSTORE PUSH1 0xF SSTORE JUMP JUMPDEST PUSH1 0x9 SLOAD DUP2 JUMP JUMPDEST PUSH1 0xF SLOAD DUP2 JUMP JUMPDEST PUSH1 0xA SLOAD DUP2 JUMP JUMPDEST PUSH1 0x8 PUSH1 0x20 MSTORE PUSH1 0x0 SWAP1 DUP2 MSTORE PUSH1 0x40 SWAP1 KECCAK256 DUP1 SLOAD PUSH1 0x1 DUP3 ADD SLOAD PUSH1 0x2 SWAP1 SWAP3 ADD SLOAD SWAP1 SWAP2 SWAP1 DUP4 JUMP JUMPDEST PUSH1 0x0 SLOAD PUSH1 0x1 PUSH1 0x1 PUSH1 0xA0 SHL SUB AND CALLER EQ PUSH2 0x6A9 JUMPI PUSH1 0x0 DUP1 REVERT JUMPDEST PUSH1 0x1 SLOAD PUSH1 0x40 MLOAD PUSH4 0x70A08231 PUSH1 0xE0 SHL DUP2 MSTORE PUSH1 0x0 SWAP2 PUSH1 0x1 PUSH1 0x1 PUSH1 0xA0 SHL SUB AND SWAP1 PUSH4 0x70A08231 SWAP1 PUSH2 0x6DA SWAP1 ADDRESS SWAP1 PUSH1 0x4 ADD PUSH2 0xE36 JUMP JUMPDEST PUSH1 0x20 PUSH1 0x40 MLOAD DUP1 DUP4 SUB DUP2 DUP7 DUP1 EXTCODESIZE ISZERO DUP1 ISZERO PUSH2 0x6F2 JUMPI PUSH1 0x0 DUP1 REVERT JUMPDEST POP GAS STATICCALL ISZERO DUP1 ISZERO PUSH2 0x706 JUMPI RETURNDATASIZE PUSH1 0x0 DUP1 RETURNDATACOPY RETURNDATASIZE PUSH1 0x0 REVERT JUMPDEST POP POP POP POP PUSH1 0x40 MLOAD RETURNDATASIZE PUSH1 0x1F NOT PUSH1 0x1F DUP3 ADD AND DUP3 ADD DUP1 PUSH1 0x40 MSTORE POP DUP2 ADD SWAP1 PUSH2 0x72A SWAP2 SWAP1 PUSH2 0xDFD JUMP JUMPDEST PUSH1 0x40 DUP1 MLOAD PUSH1 0x2 DUP1 DUP3 MSTORE PUSH1 0x60 DUP3 ADD DUP4 MSTORE SWAP3 SWAP4 POP PUSH1 0x0 SWAP3 SWAP1 SWAP2 PUSH1 0x20 DUP4 ADD SWAP1 DUP1 CALLDATASIZE DUP4 CALLDATACOPY POP POP PUSH1 0x3 SLOAD DUP3 MLOAD SWAP3 SWAP4 POP PUSH1 0x1 PUSH1 0x1 PUSH1 0xA0 SHL SUB AND SWAP2 DUP4 SWAP2 POP PUSH1 0x0 SWAP1 PUSH2 0x76A JUMPI INVALID JUMPDEST PUSH1 0x1 PUSH1 0x1 PUSH1 0xA0 SHL SUB SWAP3 DUP4 AND PUSH1 0x20 SWAP2 DUP3 MUL SWAP3 SWAP1 SWAP3 ADD ADD MSTORE PUSH1 0x2 SLOAD DUP3 MLOAD SWAP2 AND SWAP1 DUP3 SWAP1 PUSH1 0x1 SWAP1 DUP2 LT PUSH2 0x795 JUMPI INVALID JUMPDEST PUSH1 0x1 PUSH1 0x1 PUSH1 0xA0 SHL SUB SWAP3 DUP4 AND PUSH1 0x20 SWAP2 DUP3 MUL SWAP3 SWAP1 SWAP3 ADD ADD MSTORE PUSH1 0x4 DUP1 SLOAD PUSH1 0x40 MLOAD PUSH4 0xB6F9DE95 PUSH1 0xE0 SHL DUP2 MSTORE SWAP3 AND SWAP2 PUSH4 0xB6F9DE95 SWAP2 CALLVALUE SWAP2 PUSH2 0x7DA SWAP2 PUSH1 0x0 SWAP2 DUP8 SWAP2 ADDRESS SWAP2 TIMESTAMP SWAP2 ADD PUSH2 0xE63 JUMP JUMPDEST PUSH1 0x0 PUSH1 0x40 MLOAD DUP1 DUP4 SUB DUP2 DUP6 DUP9 DUP1 EXTCODESIZE ISZERO DUP1 ISZERO PUSH2 0x7F3 JUMPI PUSH1 0x0 DUP1 REVERT JUMPDEST POP GAS CALL ISZERO DUP1 ISZERO PUSH2 0x807 JUMPI RETURNDATASIZE PUSH1 0x0 DUP1 RETURNDATACOPY RETURNDATASIZE PUSH1 0x0 REVERT JUMPDEST POP POP PUSH1 0x2 SLOAD PUSH1 0x40 MLOAD PUSH4 0x70A08231 PUSH1 0xE0 SHL DUP2 MSTORE PUSH1 0x0 SWAP5 POP PUSH2 0x56F SWAP4 POP DUP7 SWAP3 POP PUSH1 0x1 PUSH1 0x1 PUSH1 0xA0 SHL SUB SWAP1 SWAP2 AND SWAP1 PUSH4 0x70A08231 SWAP1 PUSH2 0x519 SWAP1 ADDRESS SWAP1 PUSH1 0x4 ADD PUSH2 0xE36 JUMP JUMPDEST PUSH1 0xC SLOAD DUP2 JUMP JUMPDEST PUSH1 0xB SLOAD DUP2 JUMP JUMPDEST PUSH2 0x85A CALLER PUSH2 0x944 JUMP JUMPDEST JUMP JUMPDEST PUSH1 0x0 SLOAD PUSH1 0x1 PUSH1 0x1 PUSH1 0xA0 SHL SUB AND CALLER EQ PUSH2 0x873 JUMPI PUSH1 0x0 DUP1 REVERT JUMPDEST PUSH1 0x5 SLOAD DUP1 PUSH2 0x881 JUMPI POP PUSH2 0x93B JUMP JUMPDEST PUSH1 0x0 DUP1 GAS SWAP1 POP PUSH1 0x0 JUMPDEST DUP5 DUP4 LT DUP1 ISZERO PUSH2 0x898 JUMPI POP DUP4 DUP2 LT JUMPDEST ISZERO PUSH2 0x936 JUMPI DUP4 PUSH1 0x10 SLOAD LT PUSH2 0x8AC JUMPI PUSH1 0x0 PUSH1 0x10 SSTORE JUMPDEST PUSH2 0x8D8 PUSH1 0x5 PUSH1 0x10 SLOAD DUP2 SLOAD DUP2 LT PUSH2 0x8BE JUMPI INVALID JUMPDEST PUSH1 0x0 SWAP2 DUP3 MSTORE PUSH1 0x20 SWAP1 SWAP2 KECCAK256 ADD SLOAD PUSH1 0x1 PUSH1 0x1 PUSH1 0xA0 SHL SUB AND PUSH2 0xCCC JUMP JUMPDEST ISZERO PUSH2 0x909 JUMPI PUSH2 0x909 PUSH1 0x5 PUSH1 0x10 SLOAD DUP2 SLOAD DUP2 LT PUSH2 0x8EF JUMPI INVALID JUMPDEST PUSH1 0x0 SWAP2 DUP3 MSTORE PUSH1 0x20 SWAP1 SWAP2 KECCAK256 ADD SLOAD PUSH1 0x1 PUSH1 0x1 PUSH1 0xA0 SHL SUB AND PUSH2 0x944 JUMP JUMPDEST PUSH2 0x91E PUSH2 0x917 GAS DUP5 SWAP1 PUSH2 0xBBD JUMP JUMPDEST DUP5 SWAP1 PUSH2 0xC08 JUMP JUMPDEST SWAP3 POP GAS PUSH1 0x10 DUP1 SLOAD PUSH1 0x1 SWAP1 DUP2 ADD SWAP1 SWAP2 SSTORE SWAP1 SWAP3 POP ADD PUSH2 0x88A JUMP JUMPDEST POP POP POP POP JUMPDEST POP JUMP JUMPDEST PUSH1 0xE SLOAD DUP2 JUMP JUMPDEST PUSH1 0x1 PUSH1 0x1 PUSH1 0xA0 SHL SUB DUP2 AND PUSH1 0x0 SWAP1 DUP2 MSTORE PUSH1 0x8 PUSH1 0x20 MSTORE PUSH1 0x40 SWAP1 KECCAK256 SLOAD PUSH2 0x966 JUMPI PUSH2 0x93B JUMP JUMPDEST PUSH1 0x0 PUSH2 0x971 DUP3 PUSH2 0x5B1 JUMP JUMPDEST SWAP1 POP DUP1 ISZERO PUSH2 0xA6B JUMPI PUSH1 0xB SLOAD PUSH2 0x986 SWAP1 DUP3 PUSH2 0xC08 JUMP JUMPDEST PUSH1 0xB SSTORE PUSH1 0x1 SLOAD PUSH1 0x40 MLOAD PUSH4 0xA9059CBB PUSH1 0xE0 SHL DUP2 MSTORE PUSH1 0x1 PUSH1 0x1 PUSH1 0xA0 SHL SUB SWAP1 SWAP2 AND SWAP1 PUSH4 0xA9059CBB SWAP1 PUSH2 0x9BB SWAP1 DUP6 SWAP1 DUP6 SWAP1 PUSH1 0x4 ADD PUSH2 0xE4A JUMP JUMPDEST PUSH1 0x20 PUSH1 0x40 MLOAD DUP1 DUP4 SUB DUP2 PUSH1 0x0 DUP8 DUP1 EXTCODESIZE ISZERO DUP1 ISZERO PUSH2 0x9D5 JUMPI PUSH1 0x0 DUP1 REVERT JUMPDEST POP GAS CALL ISZERO DUP1 ISZERO PUSH2 0x9E9 JUMPI RETURNDATASIZE PUSH1 0x0 DUP1 RETURNDATACOPY RETURNDATASIZE PUSH1 0x0 REVERT JUMPDEST POP POP POP POP PUSH1 0x40 MLOAD RETURNDATASIZE PUSH1 0x1F NOT PUSH1 0x1F DUP3 ADD AND DUP3 ADD DUP1 PUSH1 0x40 MSTORE POP DUP2 ADD SWAP1 PUSH2 0xA0D SWAP2 SWAP1 PUSH2 0xDC5 JUMP JUMPDEST POP PUSH1 0x1 PUSH1 0x1 PUSH1 0xA0 SHL SUB DUP3 AND PUSH1 0x0 SWAP1 DUP2 MSTORE PUSH1 0x7 PUSH1 0x20 SWAP1 DUP2 MSTORE PUSH1 0x40 DUP1 DUP4 KECCAK256 TIMESTAMP SWAP1 SSTORE PUSH1 0x8 SWAP1 SWAP2 MSTORE SWAP1 KECCAK256 PUSH1 0x2 ADD SLOAD PUSH2 0xA41 SWAP1 DUP3 PUSH2 0xC08 JUMP JUMPDEST PUSH1 0x1 PUSH1 0x1 PUSH1 0xA0 SHL SUB DUP4 AND PUSH1 0x0 SWAP1 DUP2 MSTORE PUSH1 0x8 PUSH1 0x20 MSTORE PUSH1 0x40 SWAP1 KECCAK256 PUSH1 0x2 DUP2 ADD SWAP2 SWAP1 SWAP2 SSTORE SLOAD PUSH2 0x344 SWAP1 PUSH2 0xC36 JUMP JUMPDEST POP POP JUMP JUMPDEST PUSH1 0x5 DUP1 SLOAD PUSH1 0x1 PUSH1 0x1 PUSH1 0xA0 SHL SUB SWAP1 SWAP3 AND PUSH1 0x0 DUP2 DUP2 MSTORE PUSH1 0x6 PUSH1 0x20 MSTORE PUSH1 0x40 DUP2 KECCAK256 DUP5 SWAP1 SSTORE PUSH1 0x1 DUP5 ADD DUP4 SSTORE SWAP2 SWAP1 SWAP2 MSTORE PUSH32 0x36B6384B5ECA791C62761152D0C79BB0604C104A5FB6F4EB0703F3154BB3DB0 SWAP1 SWAP2 ADD DUP1 SLOAD PUSH1 0x1 PUSH1 0x1 PUSH1 0xA0 SHL SUB NOT AND SWAP1 SWAP2 OR SWAP1 SSTORE JUMP JUMPDEST PUSH1 0x5 DUP1 SLOAD PUSH1 0x0 NOT DUP2 ADD SWAP1 DUP2 LT PUSH2 0xAE2 JUMPI INVALID JUMPDEST PUSH1 0x0 SWAP2 DUP3 MSTORE PUSH1 0x20 DUP1 DUP4 KECCAK256 SWAP1 SWAP2 ADD SLOAD PUSH1 0x1 PUSH1 0x1 PUSH1 0xA0 SHL SUB DUP5 DUP2 AND DUP5 MSTORE PUSH1 0x6 SWAP1 SWAP3 MSTORE PUSH1 0x40 SWAP1 SWAP3 KECCAK256 SLOAD PUSH1 0x5 DUP1 SLOAD SWAP3 SWAP1 SWAP4 AND SWAP3 SWAP2 DUP2 LT PUSH2 0xB1A JUMPI INVALID JUMPDEST PUSH1 0x0 SWAP2 DUP3 MSTORE PUSH1 0x20 DUP1 DUP4 KECCAK256 SWAP2 SWAP1 SWAP2 ADD DUP1 SLOAD PUSH1 0x1 PUSH1 0x1 PUSH1 0xA0 SHL SUB NOT AND PUSH1 0x1 PUSH1 0x1 PUSH1 0xA0 SHL SUB SWAP5 DUP6 AND OR SWAP1 SSTORE SWAP2 DUP4 AND DUP2 MSTORE PUSH1 0x6 SWAP2 DUP3 SWAP1 MSTORE PUSH1 0x40 DUP2 KECCAK256 SLOAD PUSH1 0x5 DUP1 SLOAD SWAP2 SWAP4 SWAP3 SWAP2 PUSH1 0x0 NOT DUP2 ADD SWAP1 DUP2 LT PUSH2 0xB68 JUMPI INVALID JUMPDEST PUSH1 0x0 SWAP2 DUP3 MSTORE PUSH1 0x20 DUP1 DUP4 KECCAK256 SWAP1 SWAP2 ADD SLOAD PUSH1 0x1 PUSH1 0x1 PUSH1 0xA0 SHL SUB AND DUP4 MSTORE DUP3 ADD SWAP3 SWAP1 SWAP3 MSTORE PUSH1 0x40 ADD SWAP1 KECCAK256 SSTORE PUSH1 0x5 DUP1 SLOAD DUP1 PUSH2 0xB98 JUMPI INVALID JUMPDEST PUSH1 0x0 DUP3 DUP2 MSTORE PUSH1 0x20 SWAP1 KECCAK256 DUP2 ADD PUSH1 0x0 NOT SWAP1 DUP2 ADD DUP1 SLOAD PUSH1 0x1 PUSH1 0x1 PUSH1 0xA0 SHL SUB NOT AND SWAP1 SSTORE ADD SWAP1 SSTORE POP JUMP JUMPDEST PUSH1 0x0 PUSH2 0xBFF DUP4 DUP4 PUSH1 0x40 MLOAD DUP1 PUSH1 0x40 ADD PUSH1 0x40 MSTORE DUP1 PUSH1 0x1E DUP2 MSTORE PUSH1 0x20 ADD PUSH32 0x536166654D6174683A207375627472616374696F6E206F766572666C6F770000 DUP2 MSTORE POP PUSH2 0xD08 JUMP JUMPDEST SWAP1 POP JUMPDEST SWAP3 SWAP2 POP POP JUMP JUMPDEST PUSH1 0x0 DUP3 DUP3 ADD DUP4 DUP2 LT ISZERO PUSH2 0xBFF JUMPI PUSH1 0x40 MLOAD PUSH3 0x461BCD PUSH1 0xE5 SHL DUP2 MSTORE PUSH1 0x4 ADD PUSH2 0xC2D SWAP1 PUSH2 0xF1F JUMP JUMPDEST PUSH1 0x40 MLOAD DUP1 SWAP2 SUB SWAP1 REVERT JUMPDEST PUSH1 0x0 PUSH2 0xC02 PUSH1 0xD SLOAD PUSH2 0x59A PUSH1 0xC SLOAD DUP6 PUSH2 0xC53 SWAP1 SWAP2 SWAP1 PUSH4 0xFFFFFFFF AND JUMP JUMPDEST PUSH1 0x0 DUP3 PUSH2 0xC62 JUMPI POP PUSH1 0x0 PUSH2 0xC02 JUMP JUMPDEST DUP3 DUP3 MUL DUP3 DUP5 DUP3 DUP2 PUSH2 0xC6F JUMPI INVALID JUMPDEST DIV EQ PUSH2 0xBFF JUMPI PUSH1 0x40 MLOAD PUSH3 0x461BCD PUSH1 0xE5 SHL DUP2 MSTORE PUSH1 0x4 ADD PUSH2 0xC2D SWAP1 PUSH2 0xF54 JUMP JUMPDEST PUSH1 0x0 PUSH2 0xBFF DUP4 DUP4 PUSH1 0x40 MLOAD DUP1 PUSH1 0x40 ADD PUSH1 0x40 MSTORE DUP1 PUSH1 0x1A DUP2 MSTORE PUSH1 0x20 ADD PUSH26 0x536166654D6174683A206469766973696F6E206279207A65726F PUSH1 0x30 SHL DUP2 MSTORE POP PUSH2 0xD34 JUMP JUMPDEST PUSH1 0xE SLOAD PUSH1 0x1 PUSH1 0x1 PUSH1 0xA0 SHL SUB DUP3 AND PUSH1 0x0 SWAP1 DUP2 MSTORE PUSH1 0x7 PUSH1 0x20 MSTORE PUSH1 0x40 DUP2 KECCAK256 SLOAD SWAP1 SWAP2 TIMESTAMP SWAP2 ADD LT DUP1 ISZERO PUSH2 0xC02 JUMPI POP PUSH1 0xF SLOAD PUSH2 0xD01 DUP4 PUSH2 0x5B1 JUMP JUMPDEST GT SWAP3 SWAP2 POP POP JUMP JUMPDEST PUSH1 0x0 DUP2 DUP5 DUP5 GT ISZERO PUSH2 0xD2C JUMPI PUSH1 0x40 MLOAD PUSH3 0x461BCD PUSH1 0xE5 SHL DUP2 MSTORE PUSH1 0x4 ADD PUSH2 0xC2D SWAP2 SWAP1 PUSH2 0xECC JUMP JUMPDEST POP POP POP SWAP1 SUB SWAP1 JUMP JUMPDEST PUSH1 0x0 DUP2 DUP4 PUSH2 0xD55 JUMPI PUSH1 0x40 MLOAD PUSH3 0x461BCD PUSH1 0xE5 SHL DUP2 MSTORE PUSH1 0x4 ADD PUSH2 0xC2D SWAP2 SWAP1 PUSH2 0xECC JUMP JUMPDEST POP PUSH1 0x0 DUP4 DUP6 DUP2 PUSH2 0xD61 JUMPI INVALID JUMPDEST DIV SWAP6 SWAP5 POP POP POP POP POP JUMP JUMPDEST DUP1 CALLDATALOAD PUSH1 0x1 PUSH1 0x1 PUSH1 0xA0 SHL SUB DUP2 AND DUP2 EQ PUSH2 0x638 JUMPI PUSH1 0x0 DUP1 REVERT JUMPDEST PUSH1 0x0 PUSH1 0x20 DUP3 DUP5 SUB SLT ISZERO PUSH2 0xD93 JUMPI DUP1 DUP2 REVERT JUMPDEST PUSH2 0xBFF DUP3 PUSH2 0xD6B JUMP JUMPDEST PUSH1 0x0 DUP1 PUSH1 0x40 DUP4 DUP6 SUB SLT ISZERO PUSH2 0xDAE JUMPI DUP1 DUP2 REVERT JUMPDEST PUSH2 0xDB7 DUP4 PUSH2 0xD6B JUMP JUMPDEST SWAP5 PUSH1 0x20 SWAP4 SWAP1 SWAP4 ADD CALLDATALOAD SWAP4 POP POP POP JUMP JUMPDEST PUSH1 0x0 PUSH1 0x20 DUP3 DUP5 SUB SLT ISZERO PUSH2 0xDD6 JUMPI DUP1 DUP2 REVERT JUMPDEST DUP2 MLOAD DUP1 ISZERO ISZERO DUP2 EQ PUSH2 0xBFF JUMPI DUP2 DUP3 REVERT JUMPDEST PUSH1 0x0 PUSH1 0x20 DUP3 DUP5 SUB SLT ISZERO PUSH2 0xDF6 JUMPI DUP1 DUP2 REVERT JUMPDEST POP CALLDATALOAD SWAP2 SWAP1 POP JUMP JUMPDEST PUSH1 0x0 PUSH1 0x20 DUP3 DUP5 SUB SLT ISZERO PUSH2 0xE0E JUMPI DUP1 DUP2 REVERT JUMPDEST POP MLOAD SWAP2 SWAP1 POP JUMP JUMPDEST PUSH1 0x0 DUP1 PUSH1 0x40 DUP4 DUP6 SUB SLT ISZERO PUSH2 0xE27 JUMPI DUP2 DUP3 REVERT JUMPDEST POP POP DUP1 CALLDATALOAD SWAP3 PUSH1 0x20 SWAP1 SWAP2 ADD CALLDATALOAD SWAP2 POP JUMP JUMPDEST PUSH1 0x1 PUSH1 0x1 PUSH1 0xA0 SHL SUB SWAP2 SWAP1 SWAP2 AND DUP2 MSTORE PUSH1 0x20 ADD SWAP1 JUMP JUMPDEST PUSH1 0x1 PUSH1 0x1 PUSH1 0xA0 SHL SUB SWAP3 SWAP1 SWAP3 AND DUP3 MSTORE PUSH1 0x20 DUP3 ADD MSTORE PUSH1 0x40 ADD SWAP1 JUMP JUMPDEST PUSH1 0x0 PUSH1 0x80 DUP3 ADD DUP7 DUP4 MSTORE PUSH1 0x20 PUSH1 0x80 DUP2 DUP6 ADD MSTORE DUP2 DUP8 MLOAD DUP1 DUP5 MSTORE PUSH1 0xA0 DUP7 ADD SWAP2 POP DUP3 DUP10 ADD SWAP4 POP DUP5 JUMPDEST DUP2 DUP2 LT ISZERO PUSH2 0xEAC JUMPI DUP5 MLOAD PUSH1 0x1 PUSH1 0x1 PUSH1 0xA0 SHL SUB AND DUP4 MSTORE SWAP4 DUP4 ADD SWAP4 SWAP2 DUP4 ADD SWAP2 PUSH1 0x1 ADD PUSH2 0xE87 JUMP JUMPDEST POP POP PUSH1 0x1 PUSH1 0x1 PUSH1 0xA0 SHL SUB SWAP7 SWAP1 SWAP7 AND PUSH1 0x40 DUP6 ADD MSTORE POP POP POP PUSH1 0x60 ADD MSTORE SWAP3 SWAP2 POP POP JUMP JUMPDEST PUSH1 0x0 PUSH1 0x20 DUP1 DUP4 MSTORE DUP4 MLOAD DUP1 DUP3 DUP6 ADD MSTORE DUP3 JUMPDEST DUP2 DUP2 LT ISZERO PUSH2 0xEF8 JUMPI DUP6 DUP2 ADD DUP4 ADD MLOAD DUP6 DUP3 ADD PUSH1 0x40 ADD MSTORE DUP3 ADD PUSH2 0xEDC JUMP JUMPDEST DUP2 DUP2 GT ISZERO PUSH2 0xF09 JUMPI DUP4 PUSH1 0x40 DUP4 DUP8 ADD ADD MSTORE JUMPDEST POP PUSH1 0x1F ADD PUSH1 0x1F NOT AND SWAP3 SWAP1 SWAP3 ADD PUSH1 0x40 ADD SWAP4 SWAP3 POP POP POP JUMP JUMPDEST PUSH1 0x20 DUP1 DUP3 MSTORE PUSH1 0x1B SWAP1 DUP3 ADD MSTORE PUSH27 0x536166654D6174683A206164646974696F6E206F766572666C6F77 PUSH1 0x28 SHL PUSH1 0x40 DUP3 ADD MSTORE PUSH1 0x60 ADD SWAP1 JUMP JUMPDEST PUSH1 0x20 DUP1 DUP3 MSTORE PUSH1 0x21 SWAP1 DUP3 ADD MSTORE PUSH32 0x536166654D6174683A206D756C7469706C69636174696F6E206F766572666C6F PUSH1 0x40 DUP3 ADD MSTORE PUSH1 0x77 PUSH1 0xF8 SHL PUSH1 0x60 DUP3 ADD MSTORE PUSH1 0x80 ADD SWAP1 JUMP JUMPDEST SWAP1 DUP2 MSTORE PUSH1 0x20 ADD SWAP1 JUMP JUMPDEST SWAP3 DUP4 MSTORE PUSH1 0x20 DUP4 ADD SWAP2 SWAP1 SWAP2 MSTORE PUSH1 0x40 DUP3 ADD MSTORE PUSH1 0x60 ADD SWAP1 JUMP INVALID LOG2 PUSH5 0x6970667358 0x22 SLT KECCAK256 0xCD POP DUP4 0xE2 GASPRICE 0xB3 0x5C 0xE8 SAR PUSH4 0xD6BD2ED6 0xD1 GAS 0x49 0x4C XOR 0x4A 0xD9 EQ 0xBA PUSH29 0xFF0B6C02BED0525F64736F6C6343000706003300000000000000000000 "
		},
		"gasEstimates": {
			"creation": {
				"codeDepositCost": "2640200",
				"executionCost": "infinite",
				"totalCost": "infinite"
			},
			"external": {
				"_maxTxAmount()": "1798",
				"_maxWalletToken()": "1776",
				"allowance(address,address)": "infinite",
				"approve(address,uint256)": "22499",
				"approveMax(address)": "infinite",
				"authorize(address)": "23113",
				"autoLiquidityReceiver()": "2192",
				"balanceOf(address)": "1968",
				"buyCooldownEnabled()": "1678",
				"buyLiquidityTax()": "1908",
				"buyMarketingTax()": "1446",
				"buyReflectionTax()": "1578",
				"buyRewardsTax()": "1622",
				"clearStuckBalance(uint256)": "infinite",
				"clearStuckBalance_sender(uint256)": "infinite",
				"cooldownEnabled(bool,uint8)": "infinite",
				"cooldownTimerInterval()": "1783",
				"decimals()": "1442",
				"distributor()": "2148",
				"feeDenominator()": "1160",
				"getCirculatingSupply()": "infinite",
				"getLiquidityBacking(uint256)": "infinite",
				"getOwner()": "1884",
				"isAuthorized(address)": "2662",
				"isOverLiquified(uint256,uint256)": "infinite",
				"isOwner(address)": "1599",
				"marketingTaxWallet()": "1048",
				"multiTransfer(address,address[],uint256[])": "infinite",
				"multiTransfer_fixed(address,address[],uint256)": "infinite",
				"name()": "infinite",
				"pair()": "1994",
				"router()": "2412",
				"sellLiquidityTax()": "1688",
				"sellMarketingTax()": "2282",
				"sellMultiplier()": "2436",
				"sellReflectionTax()": "2260",
				"sellRewardsTax()": "1644",
				"setDistributionCriteria(uint256,uint256)": "infinite",
				"setDistributorSettings(uint256)": "22041",
				"setFeeReceivers(address,address)": "infinite",
				"setFees((uint256,uint256,uint256,uint256,uint256,uint256,uint256,uint256),uint256)": "243830",
				"setIsExcludedFromFees(address,bool)": "23244",
				"setIsExcludedFromMaxTx(address,bool)": "23398",
				"setIsExcludedFromMaxWallet(address,bool)": "23222",
				"setIsExcludedFromReflections(address,bool)": "22540",
				"setIsExcludedFromRewards(address,bool)": "infinite",
				"setIsExcludedFromTimeLock(address,bool)": "22716",
				"setIsExcludedFromTx(address,bool)": "23046",
				"setMaxTx(uint256)": "22194",
				"setMaxTxPercent_base1000(uint256)": "23003",
				"setMaxWalletPercent_base1000(uint256)": "21991",
				"setSwapBackSettings(bool,uint256)": "43302",
				"setTargetLiquidity(uint256,uint256)": "41437",
				"set_sell_multiplier(uint256)": "22385",
				"swapEnabled()": "1722",
				"swapThreshold()": "1028",
				"symbol()": "infinite",
				"totalBuyTax()": "1556",
				"totalSellTax()": "1204",
				"totalSupply()": "1182",
				"totalTax()": "2392",
				"tradingOpen()": "2487",
				"tradingStatus(bool)": "infinite",
				"transfer(address,uint256)": "infinite",
				"transferFrom(address,address,uint256)": "infinite",
				"transferOwnership(address)": "45376",
				"unauthorize(address)": "23381"
			},
			"internal": {
				"_basicTransfer(address,address,uint256)": "infinite",
				"_transferFrom(address,address,uint256)": "infinite",
				"checkMaxTx(address,uint256)": "infinite",
				"shouldSwapBack()": "4221",
				"shouldTakeFee(address)": "914",
				"swapBack()": "infinite",
				"takeFee(address,uint256,bool)": "infinite"
			}
		},
		"methodIdentifiers": {
			"_maxTxAmount()": "7d1db4a5",
			"_maxWalletToken()": "78109e54",
			"allowance(address,address)": "dd62ed3e",
			"approve(address,uint256)": "095ea7b3",
			"approveMax(address)": "571ac8b0",
			"authorize(address)": "b6a5d7de",
			"autoLiquidityReceiver()": "ca33e64c",
			"balanceOf(address)": "70a08231",
			"buyCooldownEnabled()": "617fe0ed",
			"buyLiquidityTax()": "a2cbba28",
			"buyMarketingTax()": "33012411",
			"buyReflectionTax()": "5252a228",
			"buyRewardsTax()": "5a686d54",
			"clearStuckBalance(uint256)": "1da1db5e",
			"clearStuckBalance_sender(uint256)": "44a33fd2",
			"cooldownEnabled(bool,uint8)": "2d594567",
			"cooldownTimerInterval()": "722b62ad",
			"decimals()": "313ce567",
			"distributor()": "bfe10928",
			"feeDenominator()": "180b0d7e",
			"getCirculatingSupply()": "2b112e49",
			"getLiquidityBacking(uint256)": "d51ed1c8",
			"getOwner()": "893d20e8",
			"isAuthorized(address)": "fe9fbb80",
			"isOverLiquified(uint256,uint256)": "1161ae39",
			"isOwner(address)": "2f54bf6e",
			"marketingTaxWallet()": "00851fb3",
			"multiTransfer(address,address[],uint256[])": "1ca0a28d",
			"multiTransfer_fixed(address,address[],uint256)": "335f6a43",
			"name()": "06fdde03",
			"pair()": "a8aa1b31",
			"router()": "f887ea40",
			"sellLiquidityTax()": "6ab91206",
			"sellMarketingTax()": "e96db1ef",
			"sellMultiplier()": "fed0d2a1",
			"sellReflectionTax()": "e1662ed3",
			"sellRewardsTax()": "6053b881",
			"setDistributionCriteria(uint256,uint256)": "2d48e896",
			"setDistributorSettings(uint256)": "9d1944f5",
			"setFeeReceivers(address,address)": "a4b45c00",
			"setFees((uint256,uint256,uint256,uint256,uint256,uint256,uint256,uint256),uint256)": "c6dae9a1",
			"setIsExcludedFromFees(address,bool)": "adf18693",
			"setIsExcludedFromMaxTx(address,bool)": "d2138a6d",
			"setIsExcludedFromMaxWallet(address,bool)": "aaa867a0",
			"setIsExcludedFromReflections(address,bool)": "24f8d179",
			"setIsExcludedFromRewards(address,bool)": "363f1e92",
			"setIsExcludedFromTimeLock(address,bool)": "33f2a6e9",
			"setIsExcludedFromTx(address,bool)": "875385f3",
			"setMaxTx(uint256)": "bc337182",
			"setMaxTxPercent_base1000(uint256)": "bd9ab537",
			"setMaxWalletPercent_base1000(uint256)": "09302dc6",
			"setSwapBackSettings(bool,uint256)": "df20fd49",
			"setTargetLiquidity(uint256,uint256)": "201e7991",
			"set_sell_multiplier(uint256)": "ec72d65f",
			"swapEnabled()": "6ddd1713",
			"swapThreshold()": "0445b667",
			"symbol()": "95d89b41",
			"totalBuyTax()": "46469afb",
			"totalSellTax()": "1bff7898",
			"totalSupply()": "18160ddd",
			"totalTax()": "fe85b42b",
			"tradingOpen()": "ffb54a99",
			"tradingStatus(bool)": "0d295980",
			"transfer(address,uint256)": "a9059cbb",
			"transferFrom(address,address,uint256)": "23b872dd",
			"transferOwnership(address)": "f2fde38b",
			"unauthorize(address)": "f0b37c04"
		}
	},
	"abi": [
		{
			"inputs": [
				{
					"internalType": "string",
					"name": "name_",
					"type": "string"
				},
				{
					"internalType": "string",
					"name": "symbol_",
					"type": "string"
				},
				{
					"internalType": "uint256",
					"name": "_supply",
					"type": "uint256"
				},
				{
					"components": [
						{
							"internalType": "uint256",
							"name": "buyLiquidityTax",
							"type": "uint256"
						},
						{
							"internalType": "uint256",
							"name": "sellLiquidityTax",
							"type": "uint256"
						},
						{
							"internalType": "uint256",
							"name": "buyReflectionTax",
							"type": "uint256"
						},
						{
							"internalType": "uint256",
							"name": "sellReflectionTax",
							"type": "uint256"
						},
						{
							"internalType": "uint256",
							"name": "buyMarketingTax",
							"type": "uint256"
						},
						{
							"internalType": "uint256",
							"name": "sellMarketingTax",
							"type": "uint256"
						},
						{
							"internalType": "uint256",
							"name": "buyRewardsTax",
							"type": "uint256"
						},
						{
							"internalType": "uint256",
							"name": "sellRewardsTax",
							"type": "uint256"
						}
					],
					"internalType": "struct RWRD.Fees",
					"name": "fees",
					"type": "tuple"
				},
				{
					"internalType": "address",
					"name": "rwrd_token",
					"type": "address"
				},
				{
					"internalType": "address",
					"name": "team_wallet",
					"type": "address"
				},
				{
					"internalType": "address",
					"name": "marketing_token",
					"type": "address"
				}
			],
			"stateMutability": "nonpayable",
			"type": "constructor"
		},
		{
			"anonymous": false,
			"inputs": [
				{
					"indexed": true,
					"internalType": "address",
					"name": "owner",
					"type": "address"
				},
				{
					"indexed": true,
					"internalType": "address",
					"name": "spender",
					"type": "address"
				},
				{
					"indexed": false,
					"internalType": "uint256",
					"name": "value",
					"type": "uint256"
				}
			],
			"name": "Approval",
			"type": "event"
		},
		{
			"anonymous": false,
			"inputs": [
				{
					"indexed": false,
					"internalType": "uint256",
					"name": "amountBNB",
					"type": "uint256"
				},
				{
					"indexed": false,
					"internalType": "uint256",
					"name": "amountBOG",
					"type": "uint256"
				}
			],
			"name": "AutoLiquify",
			"type": "event"
		},
		{
			"anonymous": false,
			"inputs": [
				{
					"indexed": false,
					"internalType": "address",
					"name": "owner",
					"type": "address"
				}
			],
			"name": "OwnershipTransferred",
			"type": "event"
		},
		{
			"anonymous": false,
			"inputs": [
				{
					"indexed": true,
					"internalType": "address",
					"name": "from",
					"type": "address"
				},
				{
					"indexed": true,
					"internalType": "address",
					"name": "to",
					"type": "address"
				},
				{
					"indexed": false,
					"internalType": "uint256",
					"name": "value",
					"type": "uint256"
				}
			],
			"name": "Transfer",
			"type": "event"
		},
		{
			"inputs": [],
			"name": "_maxTxAmount",
			"outputs": [
				{
					"internalType": "uint256",
					"name": "",
					"type": "uint256"
				}
			],
			"stateMutability": "view",
			"type": "function"
		},
		{
			"inputs": [],
			"name": "_maxWalletToken",
			"outputs": [
				{
					"internalType": "uint256",
					"name": "",
					"type": "uint256"
				}
			],
			"stateMutability": "view",
			"type": "function"
		},
		{
			"inputs": [
				{
					"internalType": "address",
					"name": "holder",
					"type": "address"
				},
				{
					"internalType": "address",
					"name": "spender",
					"type": "address"
				}
			],
			"name": "allowance",
			"outputs": [
				{
					"internalType": "uint256",
					"name": "",
					"type": "uint256"
				}
			],
			"stateMutability": "view",
			"type": "function"
		},
		{
			"inputs": [
				{
					"internalType": "address",
					"name": "spender",
					"type": "address"
				},
				{
					"internalType": "uint256",
					"name": "amount",
					"type": "uint256"
				}
			],
			"name": "approve",
			"outputs": [
				{
					"internalType": "bool",
					"name": "",
					"type": "bool"
				}
			],
			"stateMutability": "nonpayable",
			"type": "function"
		},
		{
			"inputs": [
				{
					"internalType": "address",
					"name": "spender",
					"type": "address"
				}
			],
			"name": "approveMax",
			"outputs": [
				{
					"internalType": "bool",
					"name": "",
					"type": "bool"
				}
			],
			"stateMutability": "nonpayable",
			"type": "function"
		},
		{
			"inputs": [
				{
					"internalType": "address",
					"name": "adr",
					"type": "address"
				}
			],
			"name": "authorize",
			"outputs": [],
			"stateMutability": "nonpayable",
			"type": "function"
		},
		{
			"inputs": [],
			"name": "autoLiquidityReceiver",
			"outputs": [
				{
					"internalType": "address",
					"name": "",
					"type": "address"
				}
			],
			"stateMutability": "view",
			"type": "function"
		},
		{
			"inputs": [
				{
					"internalType": "address",
					"name": "account",
					"type": "address"
				}
			],
			"name": "balanceOf",
			"outputs": [
				{
					"internalType": "uint256",
					"name": "",
					"type": "uint256"
				}
			],
			"stateMutability": "view",
			"type": "function"
		},
		{
			"inputs": [],
			"name": "buyCooldownEnabled",
			"outputs": [
				{
					"internalType": "bool",
					"name": "",
					"type": "bool"
				}
			],
			"stateMutability": "view",
			"type": "function"
		},
		{
			"inputs": [],
			"name": "buyLiquidityTax",
			"outputs": [
				{
					"internalType": "uint256",
					"name": "",
					"type": "uint256"
				}
			],
			"stateMutability": "view",
			"type": "function"
		},
		{
			"inputs": [],
			"name": "buyMarketingTax",
			"outputs": [
				{
					"internalType": "uint256",
					"name": "",
					"type": "uint256"
				}
			],
			"stateMutability": "view",
			"type": "function"
		},
		{
			"inputs": [],
			"name": "buyReflectionTax",
			"outputs": [
				{
					"internalType": "uint256",
					"name": "",
					"type": "uint256"
				}
			],
			"stateMutability": "view",
			"type": "function"
		},
		{
			"inputs": [],
			"name": "buyRewardsTax",
			"outputs": [
				{
					"internalType": "uint256",
					"name": "",
					"type": "uint256"
				}
			],
			"stateMutability": "view",
			"type": "function"
		},
		{
			"inputs": [
				{
					"internalType": "uint256",
					"name": "amountPercentage",
					"type": "uint256"
				}
			],
			"name": "clearStuckBalance",
			"outputs": [],
			"stateMutability": "nonpayable",
			"type": "function"
		},
		{
			"inputs": [
				{
					"internalType": "uint256",
					"name": "amountPercentage",
					"type": "uint256"
				}
			],
			"name": "clearStuckBalance_sender",
			"outputs": [],
			"stateMutability": "nonpayable",
			"type": "function"
		},
		{
			"inputs": [
				{
					"internalType": "bool",
					"name": "_status",
					"type": "bool"
				},
				{
					"internalType": "uint8",
					"name": "_interval",
					"type": "uint8"
				}
			],
			"name": "cooldownEnabled",
			"outputs": [],
			"stateMutability": "nonpayable",
			"type": "function"
		},
		{
			"inputs": [],
			"name": "cooldownTimerInterval",
			"outputs": [
				{
					"internalType": "uint8",
					"name": "",
					"type": "uint8"
				}
			],
			"stateMutability": "view",
			"type": "function"
		},
		{
			"inputs": [],
			"name": "decimals",
			"outputs": [
				{
					"internalType": "uint8",
					"name": "",
					"type": "uint8"
				}
			],
			"stateMutability": "view",
			"type": "function"
		},
		{
			"inputs": [],
			"name": "distributor",
			"outputs": [
				{
					"internalType": "contract DividendDistributor",
					"name": "",
					"type": "address"
				}
			],
			"stateMutability": "view",
			"type": "function"
		},
		{
			"inputs": [],
			"name": "feeDenominator",
			"outputs": [
				{
					"internalType": "uint256",
					"name": "",
					"type": "uint256"
				}
			],
			"stateMutability": "view",
			"type": "function"
		},
		{
			"inputs": [],
			"name": "getCirculatingSupply",
			"outputs": [
				{
					"internalType": "uint256",
					"name": "",
					"type": "uint256"
				}
			],
			"stateMutability": "view",
			"type": "function"
		},
		{
			"inputs": [
				{
					"internalType": "uint256",
					"name": "accuracy",
					"type": "uint256"
				}
			],
			"name": "getLiquidityBacking",
			"outputs": [
				{
					"internalType": "uint256",
					"name": "",
					"type": "uint256"
				}
			],
			"stateMutability": "view",
			"type": "function"
		},
		{
			"inputs": [],
			"name": "getOwner",
			"outputs": [
				{
					"internalType": "address",
					"name": "",
					"type": "address"
				}
			],
			"stateMutability": "view",
			"type": "function"
		},
		{
			"inputs": [
				{
					"internalType": "address",
					"name": "adr",
					"type": "address"
				}
			],
			"name": "isAuthorized",
			"outputs": [
				{
					"internalType": "bool",
					"name": "",
					"type": "bool"
				}
			],
			"stateMutability": "view",
			"type": "function"
		},
		{
			"inputs": [
				{
					"internalType": "uint256",
					"name": "target",
					"type": "uint256"
				},
				{
					"internalType": "uint256",
					"name": "accuracy",
					"type": "uint256"
				}
			],
			"name": "isOverLiquified",
			"outputs": [
				{
					"internalType": "bool",
					"name": "",
					"type": "bool"
				}
			],
			"stateMutability": "view",
			"type": "function"
		},
		{
			"inputs": [
				{
					"internalType": "address",
					"name": "account",
					"type": "address"
				}
			],
			"name": "isOwner",
			"outputs": [
				{
					"internalType": "bool",
					"name": "",
					"type": "bool"
				}
			],
			"stateMutability": "view",
			"type": "function"
		},
		{
			"inputs": [],
			"name": "marketingTaxWallet",
			"outputs": [
				{
					"internalType": "address",
					"name": "",
					"type": "address"
				}
			],
			"stateMutability": "view",
			"type": "function"
		},
		{
			"inputs": [
				{
					"internalType": "address",
					"name": "from",
					"type": "address"
				},
				{
					"internalType": "address[]",
					"name": "addresses",
					"type": "address[]"
				},
				{
					"internalType": "uint256[]",
					"name": "tokens",
					"type": "uint256[]"
				}
			],
			"name": "multiTransfer",
			"outputs": [],
			"stateMutability": "nonpayable",
			"type": "function"
		},
		{
			"inputs": [
				{
					"internalType": "address",
					"name": "from",
					"type": "address"
				},
				{
					"internalType": "address[]",
					"name": "addresses",
					"type": "address[]"
				},
				{
					"internalType": "uint256",
					"name": "tokens",
					"type": "uint256"
				}
			],
			"name": "multiTransfer_fixed",
			"outputs": [],
			"stateMutability": "nonpayable",
			"type": "function"
		},
		{
			"inputs": [],
			"name": "name",
			"outputs": [
				{
					"internalType": "string",
					"name": "",
					"type": "string"
				}
			],
			"stateMutability": "view",
			"type": "function"
		},
		{
			"inputs": [],
			"name": "pair",
			"outputs": [
				{
					"internalType": "address",
					"name": "",
					"type": "address"
				}
			],
			"stateMutability": "view",
			"type": "function"
		},
		{
			"inputs": [],
			"name": "router",
			"outputs": [
				{
					"internalType": "contract IDEXRouter",
					"name": "",
					"type": "address"
				}
			],
			"stateMutability": "view",
			"type": "function"
		},
		{
			"inputs": [],
			"name": "sellLiquidityTax",
			"outputs": [
				{
					"internalType": "uint256",
					"name": "",
					"type": "uint256"
				}
			],
			"stateMutability": "view",
			"type": "function"
		},
		{
			"inputs": [],
			"name": "sellMarketingTax",
			"outputs": [
				{
					"internalType": "uint256",
					"name": "",
					"type": "uint256"
				}
			],
			"stateMutability": "view",
			"type": "function"
		},
		{
			"inputs": [],
			"name": "sellMultiplier",
			"outputs": [
				{
					"internalType": "uint256",
					"name": "",
					"type": "uint256"
				}
			],
			"stateMutability": "view",
			"type": "function"
		},
		{
			"inputs": [],
			"name": "sellReflectionTax",
			"outputs": [
				{
					"internalType": "uint256",
					"name": "",
					"type": "uint256"
				}
			],
			"stateMutability": "view",
			"type": "function"
		},
		{
			"inputs": [],
			"name": "sellRewardsTax",
			"outputs": [
				{
					"internalType": "uint256",
					"name": "",
					"type": "uint256"
				}
			],
			"stateMutability": "view",
			"type": "function"
		},
		{
			"inputs": [
				{
					"internalType": "uint256",
					"name": "_minPeriod",
					"type": "uint256"
				},
				{
					"internalType": "uint256",
					"name": "_minDistribution",
					"type": "uint256"
				}
			],
			"name": "setDistributionCriteria",
			"outputs": [],
			"stateMutability": "nonpayable",
			"type": "function"
		},
		{
			"inputs": [
				{
					"internalType": "uint256",
					"name": "gas",
					"type": "uint256"
				}
			],
			"name": "setDistributorSettings",
			"outputs": [],
			"stateMutability": "nonpayable",
			"type": "function"
		},
		{
			"inputs": [
				{
					"internalType": "address",
					"name": "_autoLiquidityReceiver",
					"type": "address"
				},
				{
					"internalType": "address",
					"name": "_marketingFeeReceiver",
					"type": "address"
				}
			],
			"name": "setFeeReceivers",
			"outputs": [],
			"stateMutability": "nonpayable",
			"type": "function"
		},
		{
			"inputs": [
				{
					"components": [
						{
							"internalType": "uint256",
							"name": "buyLiquidityTax",
							"type": "uint256"
						},
						{
							"internalType": "uint256",
							"name": "sellLiquidityTax",
							"type": "uint256"
						},
						{
							"internalType": "uint256",
							"name": "buyReflectionTax",
							"type": "uint256"
						},
						{
							"internalType": "uint256",
							"name": "sellReflectionTax",
							"type": "uint256"
						},
						{
							"internalType": "uint256",
							"name": "buyMarketingTax",
							"type": "uint256"
						},
						{
							"internalType": "uint256",
							"name": "sellMarketingTax",
							"type": "uint256"
						},
						{
							"internalType": "uint256",
							"name": "buyRewardsTax",
							"type": "uint256"
						},
						{
							"internalType": "uint256",
							"name": "sellRewardsTax",
							"type": "uint256"
						}
					],
					"internalType": "struct RWRD.Fees",
					"name": "fees",
					"type": "tuple"
				},
				{
					"internalType": "uint256",
					"name": "_feeDenominator",
					"type": "uint256"
				}
			],
			"name": "setFees",
			"outputs": [],
			"stateMutability": "nonpayable",
			"type": "function"
		},
		{
			"inputs": [
				{
					"internalType": "address",
					"name": "holder",
					"type": "address"
				},
				{
					"internalType": "bool",
					"name": "exempt",
					"type": "bool"
				}
			],
			"name": "setIsExcludedFromFees",
			"outputs": [],
			"stateMutability": "nonpayable",
			"type": "function"
		},
		{
			"inputs": [
				{
					"internalType": "address",
					"name": "holder",
					"type": "address"
				},
				{
					"internalType": "bool",
					"name": "exempt",
					"type": "bool"
				}
			],
			"name": "setIsExcludedFromMaxTx",
			"outputs": [],
			"stateMutability": "nonpayable",
			"type": "function"
		},
		{
			"inputs": [
				{
					"internalType": "address",
					"name": "holder",
					"type": "address"
				},
				{
					"internalType": "bool",
					"name": "exempt",
					"type": "bool"
				}
			],
			"name": "setIsExcludedFromMaxWallet",
			"outputs": [],
			"stateMutability": "nonpayable",
			"type": "function"
		},
		{
			"inputs": [
				{
					"internalType": "address",
					"name": "holder",
					"type": "address"
				},
				{
					"internalType": "bool",
					"name": "exempt",
					"type": "bool"
				}
			],
			"name": "setIsExcludedFromReflections",
			"outputs": [],
			"stateMutability": "nonpayable",
			"type": "function"
		},
		{
			"inputs": [
				{
					"internalType": "address",
					"name": "holder",
					"type": "address"
				},
				{
					"internalType": "bool",
					"name": "exempt",
					"type": "bool"
				}
			],
			"name": "setIsExcludedFromRewards",
			"outputs": [],
			"stateMutability": "nonpayable",
			"type": "function"
		},
		{
			"inputs": [
				{
					"internalType": "address",
					"name": "holder",
					"type": "address"
				},
				{
					"internalType": "bool",
					"name": "exempt",
					"type": "bool"
				}
			],
			"name": "setIsExcludedFromTimeLock",
			"outputs": [],
			"stateMutability": "nonpayable",
			"type": "function"
		},
		{
			"inputs": [
				{
					"internalType": "address",
					"name": "holder",
					"type": "address"
				},
				{
					"internalType": "bool",
					"name": "exempt",
					"type": "bool"
				}
			],
			"name": "setIsExcludedFromTx",
			"outputs": [],
			"stateMutability": "nonpayable",
			"type": "function"
		},
		{
			"inputs": [
				{
					"internalType": "uint256",
					"name": "amount",
					"type": "uint256"
				}
			],
			"name": "setMaxTx",
			"outputs": [],
			"stateMutability": "nonpayable",
			"type": "function"
		},
		{
			"inputs": [
				{
					"internalType": "uint256",
					"name": "maxTXPercentage_base1000",
					"type": "uint256"
				}
			],
			"name": "setMaxTxPercent_base1000",
			"outputs": [],
			"stateMutability": "nonpayable",
			"type": "function"
		},
		{
			"inputs": [
				{
					"internalType": "uint256",
					"name": "maxWallPercent_base1000",
					"type": "uint256"
				}
			],
			"name": "setMaxWalletPercent_base1000",
			"outputs": [],
			"stateMutability": "nonpayable",
			"type": "function"
		},
		{
			"inputs": [
				{
					"internalType": "bool",
					"name": "_enabled",
					"type": "bool"
				},
				{
					"internalType": "uint256",
					"name": "_amount",
					"type": "uint256"
				}
			],
			"name": "setSwapBackSettings",
			"outputs": [],
			"stateMutability": "nonpayable",
			"type": "function"
		},
		{
			"inputs": [
				{
					"internalType": "uint256",
					"name": "_target",
					"type": "uint256"
				},
				{
					"internalType": "uint256",
					"name": "_denominator",
					"type": "uint256"
				}
			],
			"name": "setTargetLiquidity",
			"outputs": [],
			"stateMutability": "nonpayable",
			"type": "function"
		},
		{
			"inputs": [
				{
					"internalType": "uint256",
					"name": "Multiplier",
					"type": "uint256"
				}
			],
			"name": "set_sell_multiplier",
			"outputs": [],
			"stateMutability": "nonpayable",
			"type": "function"
		},
		{
			"inputs": [],
			"name": "swapEnabled",
			"outputs": [
				{
					"internalType": "bool",
					"name": "",
					"type": "bool"
				}
			],
			"stateMutability": "view",
			"type": "function"
		},
		{
			"inputs": [],
			"name": "swapThreshold",
			"outputs": [
				{
					"internalType": "uint256",
					"name": "",
					"type": "uint256"
				}
			],
			"stateMutability": "view",
			"type": "function"
		},
		{
			"inputs": [],
			"name": "symbol",
			"outputs": [
				{
					"internalType": "string",
					"name": "",
					"type": "string"
				}
			],
			"stateMutability": "view",
			"type": "function"
		},
		{
			"inputs": [],
			"name": "totalBuyTax",
			"outputs": [
				{
					"internalType": "uint256",
					"name": "",
					"type": "uint256"
				}
			],
			"stateMutability": "view",
			"type": "function"
		},
		{
			"inputs": [],
			"name": "totalSellTax",
			"outputs": [
				{
					"internalType": "uint256",
					"name": "",
					"type": "uint256"
				}
			],
			"stateMutability": "view",
			"type": "function"
		},
		{
			"inputs": [],
			"name": "totalSupply",
			"outputs": [
				{
					"internalType": "uint256",
					"name": "",
					"type": "uint256"
				}
			],
			"stateMutability": "view",
			"type": "function"
		},
		{
			"inputs": [],
			"name": "totalTax",
			"outputs": [
				{
					"internalType": "uint256",
					"name": "",
					"type": "uint256"
				}
			],
			"stateMutability": "view",
			"type": "function"
		},
		{
			"inputs": [],
			"name": "tradingOpen",
			"outputs": [
				{
					"internalType": "bool",
					"name": "",
					"type": "bool"
				}
			],
			"stateMutability": "view",
			"type": "function"
		},
		{
			"inputs": [
				{
					"internalType": "bool",
					"name": "_status",
					"type": "bool"
				}
			],
			"name": "tradingStatus",
			"outputs": [],
			"stateMutability": "nonpayable",
			"type": "function"
		},
		{
			"inputs": [
				{
					"internalType": "address",
					"name": "recipient",
					"type": "address"
				},
				{
					"internalType": "uint256",
					"name": "amount",
					"type": "uint256"
				}
			],
			"name": "transfer",
			"outputs": [
				{
					"internalType": "bool",
					"name": "",
					"type": "bool"
				}
			],
			"stateMutability": "nonpayable",
			"type": "function"
		},
		{
			"inputs": [
				{
					"internalType": "address",
					"name": "sender",
					"type": "address"
				},
				{
					"internalType": "address",
					"name": "recipient",
					"type": "address"
				},
				{
					"internalType": "uint256",
					"name": "amount",
					"type": "uint256"
				}
			],
			"name": "transferFrom",
			"outputs": [
				{
					"internalType": "bool",
					"name": "",
					"type": "bool"
				}
			],
			"stateMutability": "nonpayable",
			"type": "function"
		},
		{
			"inputs": [
				{
					"internalType": "address payable",
					"name": "adr",
					"type": "address"
				}
			],
			"name": "transferOwnership",
			"outputs": [],
			"stateMutability": "nonpayable",
			"type": "function"
		},
		{
			"inputs": [
				{
					"internalType": "address",
					"name": "adr",
					"type": "address"
				}
			],
			"name": "unauthorize",
			"outputs": [],
			"stateMutability": "nonpayable",
			"type": "function"
		},
		{
			"stateMutability": "payable",
			"type": "receive"
		}
	]
}